{
  "_format": "hh-sol-artifact-1",
  "contractName": "MyNFT",
  "sourceName": "contracts/MyNFT.sol",
  "abi": [
    {
      "inputs": [],
      "stateMutability": "nonpayable",
      "type": "constructor"
    },
    {
      "inputs": [
        {
          "internalType": "uint256",
          "name": "numerator",
          "type": "uint256"
        },
        {
          "internalType": "uint256",
          "name": "denominator",
          "type": "uint256"
        }
      ],
      "name": "ERC2981InvalidDefaultRoyalty",
      "type": "error"
    },
    {
      "inputs": [
        {
          "internalType": "address",
          "name": "receiver",
          "type": "address"
        }
      ],
      "name": "ERC2981InvalidDefaultRoyaltyReceiver",
      "type": "error"
    },
    {
      "inputs": [
        {
          "internalType": "uint256",
          "name": "tokenId",
          "type": "uint256"
        },
        {
          "internalType": "uint256",
          "name": "numerator",
          "type": "uint256"
        },
        {
          "internalType": "uint256",
          "name": "denominator",
          "type": "uint256"
        }
      ],
      "name": "ERC2981InvalidTokenRoyalty",
      "type": "error"
    },
    {
      "inputs": [
        {
          "internalType": "uint256",
          "name": "tokenId",
          "type": "uint256"
        },
        {
          "internalType": "address",
          "name": "receiver",
          "type": "address"
        }
      ],
      "name": "ERC2981InvalidTokenRoyaltyReceiver",
      "type": "error"
    },
    {
      "inputs": [
        {
          "internalType": "address",
          "name": "sender",
          "type": "address"
        },
        {
          "internalType": "uint256",
          "name": "tokenId",
          "type": "uint256"
        },
        {
          "internalType": "address",
          "name": "owner",
          "type": "address"
        }
      ],
      "name": "ERC721IncorrectOwner",
      "type": "error"
    },
    {
      "inputs": [
        {
          "internalType": "address",
          "name": "operator",
          "type": "address"
        },
        {
          "internalType": "uint256",
          "name": "tokenId",
          "type": "uint256"
        }
      ],
      "name": "ERC721InsufficientApproval",
      "type": "error"
    },
    {
      "inputs": [
        {
          "internalType": "address",
          "name": "approver",
          "type": "address"
        }
      ],
      "name": "ERC721InvalidApprover",
      "type": "error"
    },
    {
      "inputs": [
        {
          "internalType": "address",
          "name": "operator",
          "type": "address"
        }
      ],
      "name": "ERC721InvalidOperator",
      "type": "error"
    },
    {
      "inputs": [
        {
          "internalType": "address",
          "name": "owner",
          "type": "address"
        }
      ],
      "name": "ERC721InvalidOwner",
      "type": "error"
    },
    {
      "inputs": [
        {
          "internalType": "address",
          "name": "receiver",
          "type": "address"
        }
      ],
      "name": "ERC721InvalidReceiver",
      "type": "error"
    },
    {
      "inputs": [
        {
          "internalType": "address",
          "name": "sender",
          "type": "address"
        }
      ],
      "name": "ERC721InvalidSender",
      "type": "error"
    },
    {
      "inputs": [
        {
          "internalType": "uint256",
          "name": "tokenId",
          "type": "uint256"
        }
      ],
      "name": "ERC721NonexistentToken",
      "type": "error"
    },
    {
      "inputs": [
        {
          "internalType": "address",
          "name": "owner",
          "type": "address"
        }
      ],
      "name": "OwnableInvalidOwner",
      "type": "error"
    },
    {
      "inputs": [
        {
          "internalType": "address",
          "name": "account",
          "type": "address"
        }
      ],
      "name": "OwnableUnauthorizedAccount",
      "type": "error"
    },
    {
      "anonymous": false,
      "inputs": [
        {
          "indexed": true,
          "internalType": "address",
          "name": "owner",
          "type": "address"
        },
        {
          "indexed": true,
          "internalType": "address",
          "name": "approved",
          "type": "address"
        },
        {
          "indexed": true,
          "internalType": "uint256",
          "name": "tokenId",
          "type": "uint256"
        }
      ],
      "name": "Approval",
      "type": "event"
    },
    {
      "anonymous": false,
      "inputs": [
        {
          "indexed": true,
          "internalType": "address",
          "name": "owner",
          "type": "address"
        },
        {
          "indexed": true,
          "internalType": "address",
          "name": "operator",
          "type": "address"
        },
        {
          "indexed": false,
          "internalType": "bool",
          "name": "approved",
          "type": "bool"
        }
      ],
      "name": "ApprovalForAll",
      "type": "event"
    },
    {
      "anonymous": false,
      "inputs": [
        {
          "indexed": false,
          "internalType": "uint256",
          "name": "_fromTokenId",
          "type": "uint256"
        },
        {
          "indexed": false,
          "internalType": "uint256",
          "name": "_toTokenId",
          "type": "uint256"
        }
      ],
      "name": "BatchMetadataUpdate",
      "type": "event"
    },
    {
      "anonymous": false,
      "inputs": [
        {
          "indexed": false,
          "internalType": "uint256",
          "name": "_tokenId",
          "type": "uint256"
        }
      ],
      "name": "MetadataUpdate",
      "type": "event"
    },
    {
      "anonymous": false,
      "inputs": [
        {
          "indexed": true,
          "internalType": "address",
          "name": "previousOwner",
          "type": "address"
        },
        {
          "indexed": true,
          "internalType": "address",
          "name": "newOwner",
          "type": "address"
        }
      ],
      "name": "OwnershipTransferred",
      "type": "event"
    },
    {
      "anonymous": false,
      "inputs": [
        {
          "indexed": true,
          "internalType": "address",
          "name": "from",
          "type": "address"
        },
        {
          "indexed": true,
          "internalType": "address",
          "name": "to",
          "type": "address"
        },
        {
          "indexed": true,
          "internalType": "uint256",
          "name": "tokenId",
          "type": "uint256"
        }
      ],
      "name": "Transfer",
      "type": "event"
    },
    {
      "inputs": [
        {
          "internalType": "address",
          "name": "to",
          "type": "address"
        },
        {
          "internalType": "uint256",
          "name": "tokenId",
          "type": "uint256"
        }
      ],
      "name": "approve",
      "outputs": [],
      "stateMutability": "nonpayable",
      "type": "function"
    },
    {
      "inputs": [
        {
          "internalType": "address",
          "name": "owner",
          "type": "address"
        }
      ],
      "name": "balanceOf",
      "outputs": [
        {
          "internalType": "uint256",
          "name": "",
          "type": "uint256"
        }
      ],
      "stateMutability": "view",
      "type": "function"
    },
    {
      "inputs": [
        {
          "internalType": "uint256",
          "name": "fromTokenId",
          "type": "uint256"
        },
        {
          "internalType": "uint256",
          "name": "toTokenId",
          "type": "uint256"
        }
      ],
      "name": "batchUpdateMetadata",
      "outputs": [],
      "stateMutability": "nonpayable",
      "type": "function"
    },
    {
      "inputs": [
        {
          "internalType": "uint256",
          "name": "tokenId",
          "type": "uint256"
        }
      ],
      "name": "getApproved",
      "outputs": [
        {
          "internalType": "address",
          "name": "",
          "type": "address"
        }
      ],
      "stateMutability": "view",
      "type": "function"
    },
    {
      "inputs": [
        {
          "internalType": "address",
          "name": "owner",
          "type": "address"
        },
        {
          "internalType": "address",
          "name": "operator",
          "type": "address"
        }
      ],
      "name": "isApprovedForAll",
      "outputs": [
        {
          "internalType": "bool",
          "name": "",
          "type": "bool"
        }
      ],
      "stateMutability": "view",
      "type": "function"
    },
    {
      "inputs": [],
      "name": "marketplace",
      "outputs": [
        {
          "internalType": "address",
          "name": "",
          "type": "address"
        }
      ],
      "stateMutability": "view",
      "type": "function"
    },
    {
      "inputs": [
        {
          "internalType": "address",
          "name": "to",
          "type": "address"
        },
        {
          "internalType": "string",
          "name": "tokenURI",
          "type": "string"
        }
      ],
      "name": "mintNFT",
      "outputs": [
        {
          "internalType": "uint256",
          "name": "",
          "type": "uint256"
        }
      ],
      "stateMutability": "payable",
      "type": "function"
    },
    {
      "inputs": [],
      "name": "mintPrice",
      "outputs": [
        {
          "internalType": "uint256",
          "name": "",
          "type": "uint256"
        }
      ],
      "stateMutability": "view",
      "type": "function"
    },
    {
      "inputs": [],
      "name": "name",
      "outputs": [
        {
          "internalType": "string",
          "name": "",
          "type": "string"
        }
      ],
      "stateMutability": "view",
      "type": "function"
    },
    {
      "inputs": [],
      "name": "owner",
      "outputs": [
        {
          "internalType": "address",
          "name": "",
          "type": "address"
        }
      ],
      "stateMutability": "view",
      "type": "function"
    },
    {
      "inputs": [
        {
          "internalType": "uint256",
          "name": "tokenId",
          "type": "uint256"
        }
      ],
      "name": "ownerOf",
      "outputs": [
        {
          "internalType": "address",
          "name": "",
          "type": "address"
        }
      ],
      "stateMutability": "view",
      "type": "function"
    },
    {
      "inputs": [],
      "name": "renounceOwnership",
      "outputs": [],
      "stateMutability": "nonpayable",
      "type": "function"
    },
    {
      "inputs": [
        {
          "internalType": "uint256",
          "name": "tokenId",
          "type": "uint256"
        },
        {
          "internalType": "uint256",
          "name": "salePrice",
          "type": "uint256"
        }
      ],
      "name": "royaltyInfo",
      "outputs": [
        {
          "internalType": "address",
          "name": "receiver",
          "type": "address"
        },
        {
          "internalType": "uint256",
          "name": "amount",
          "type": "uint256"
        }
      ],
      "stateMutability": "view",
      "type": "function"
    },
    {
      "inputs": [
        {
          "internalType": "address",
          "name": "from",
          "type": "address"
        },
        {
          "internalType": "address",
          "name": "to",
          "type": "address"
        },
        {
          "internalType": "uint256",
          "name": "tokenId",
          "type": "uint256"
        }
      ],
      "name": "safeTransferFrom",
      "outputs": [],
      "stateMutability": "nonpayable",
      "type": "function"
    },
    {
      "inputs": [
        {
          "internalType": "address",
          "name": "from",
          "type": "address"
        },
        {
          "internalType": "address",
          "name": "to",
          "type": "address"
        },
        {
          "internalType": "uint256",
          "name": "tokenId",
          "type": "uint256"
        },
        {
          "internalType": "bytes",
          "name": "data",
          "type": "bytes"
        }
      ],
      "name": "safeTransferFrom",
      "outputs": [],
      "stateMutability": "nonpayable",
      "type": "function"
    },
    {
      "inputs": [
        {
          "internalType": "address",
          "name": "operator",
          "type": "address"
        },
        {
          "internalType": "bool",
          "name": "approved",
          "type": "bool"
        }
      ],
      "name": "setApprovalForAll",
      "outputs": [],
      "stateMutability": "nonpayable",
      "type": "function"
    },
    {
      "inputs": [
        {
          "internalType": "address",
          "name": "m",
          "type": "address"
        }
      ],
      "name": "setMarketplace",
      "outputs": [],
      "stateMutability": "nonpayable",
      "type": "function"
    },
    {
      "inputs": [
        {
          "internalType": "address",
          "name": "receiver",
          "type": "address"
        },
        {
          "internalType": "uint96",
          "name": "feeNumerator",
          "type": "uint96"
        }
      ],
      "name": "setRoyaltyInfo",
      "outputs": [],
      "stateMutability": "nonpayable",
      "type": "function"
    },
    {
      "inputs": [
        {
          "internalType": "bytes4",
          "name": "interfaceId",
          "type": "bytes4"
        }
      ],
      "name": "supportsInterface",
      "outputs": [
        {
          "internalType": "bool",
          "name": "",
          "type": "bool"
        }
      ],
      "stateMutability": "view",
      "type": "function"
    },
    {
      "inputs": [],
      "name": "symbol",
      "outputs": [
        {
          "internalType": "string",
          "name": "",
          "type": "string"
        }
      ],
      "stateMutability": "view",
      "type": "function"
    },
    {
      "inputs": [
        {
          "internalType": "uint256",
          "name": "tokenId",
          "type": "uint256"
        }
      ],
      "name": "tokenURI",
      "outputs": [
        {
          "internalType": "string",
          "name": "",
          "type": "string"
        }
      ],
      "stateMutability": "view",
      "type": "function"
    },
    {
      "inputs": [],
      "name": "totalSupply",
      "outputs": [
        {
          "internalType": "uint256",
          "name": "",
          "type": "uint256"
        }
      ],
      "stateMutability": "view",
      "type": "function"
    },
    {
      "inputs": [
        {
          "internalType": "address",
          "name": "from",
          "type": "address"
        },
        {
          "internalType": "address",
          "name": "to",
          "type": "address"
        },
        {
          "internalType": "uint256",
          "name": "tokenId",
          "type": "uint256"
        }
      ],
      "name": "transferFrom",
      "outputs": [],
      "stateMutability": "nonpayable",
      "type": "function"
    },
    {
      "inputs": [
        {
          "internalType": "address",
          "name": "newOwner",
          "type": "address"
        }
      ],
      "name": "transferOwnership",
      "outputs": [],
      "stateMutability": "nonpayable",
      "type": "function"
    },
    {
      "inputs": [
        {
          "internalType": "uint256",
          "name": "tokenId",
          "type": "uint256"
        },
        {
          "internalType": "string",
          "name": "newTokenURI",
          "type": "string"
        }
      ],
      "name": "updateTokenURI",
      "outputs": [],
      "stateMutability": "nonpayable",
      "type": "function"
    }
  ],
  "bytecode": "0x60806040526000600b5534801561001557600080fd5b50336040518060400160405280600f81526020017f4d794e4654436f6c6c656374696f6e00000000000000000000000000000000008152506040518060400160405280600381526020017f4d4e43000000000000000000000000000000000000000000000000000000000081525081600090816100929190610606565b5080600190816100a29190610606565b505050600073ffffffffffffffffffffffffffffffffffffffff168173ffffffffffffffffffffffffffffffffffffffff16036101175760006040517f1e4fbdf700000000000000000000000000000000000000000000000000000000815260040161010e9190610719565b60405180910390fd5b6101268161013e60201b60201c565b50610139336101f461020460201b60201c565b6107b5565b6000600960009054906101000a900473ffffffffffffffffffffffffffffffffffffffff16905081600960006101000a81548173ffffffffffffffffffffffffffffffffffffffff021916908373ffffffffffffffffffffffffffffffffffffffff1602179055508173ffffffffffffffffffffffffffffffffffffffff168173ffffffffffffffffffffffffffffffffffffffff167f8be0079c531659141344cd1fd0a4f28419497f9722a3daafe3b4186f6b6457e060405160405180910390a35050565b60006102146103ac60201b60201c565b6bffffffffffffffffffffffff16905080826bffffffffffffffffffffffff1611156102795781816040517f6f483d0900000000000000000000000000000000000000000000000000000000815260040161027092919061078c565b60405180910390fd5b600073ffffffffffffffffffffffffffffffffffffffff168373ffffffffffffffffffffffffffffffffffffffff16036102eb5760006040517fb6d9900a0000000000000000000000000000000000000000000000000000000081526004016102e29190610719565b60405180910390fd5b60405180604001604052808473ffffffffffffffffffffffffffffffffffffffff168152602001836bffffffffffffffffffffffff16815250600760008201518160000160006101000a81548173ffffffffffffffffffffffffffffffffffffffff021916908373ffffffffffffffffffffffffffffffffffffffff16021790555060208201518160000160146101000a8154816bffffffffffffffffffffffff02191690836bffffffffffffffffffffffff160217905550905050505050565b6000612710905090565b600081519050919050565b7f4e487b7100000000000000000000000000000000000000000000000000000000600052604160045260246000fd5b7f4e487b7100000000000000000000000000000000000000000000000000000000600052602260045260246000fd5b6000600282049050600182168061043757607f821691505b60208210810361044a576104496103f0565b5b50919050565b60008190508160005260206000209050919050565b60006020601f8301049050919050565b600082821b905092915050565b6000600883026104b27fffffffffffffffffffffffffffffffffffffffffffffffffffffffffffffffff82610475565b6104bc8683610475565b95508019841693508086168417925050509392505050565b6000819050919050565b6000819050919050565b60006105036104fe6104f9846104d4565b6104de565b6104d4565b9050919050565b6000819050919050565b61051d836104e8565b6105316105298261050a565b848454610482565b825550505050565b600090565b610546610539565b610551818484610514565b505050565b5b818110156105755761056a60008261053e565b600181019050610557565b5050565b601f8211156105ba5761058b81610450565b61059484610465565b810160208510156105a3578190505b6105b76105af85610465565b830182610556565b50505b505050565b600082821c905092915050565b60006105dd600019846008026105bf565b1980831691505092915050565b60006105f683836105cc565b9150826002028217905092915050565b61060f826103b6565b67ffffffffffffffff811115610628576106276103c1565b5b610632825461041f565b61063d828285610579565b600060209050601f831160018114610670576000841561065e578287015190505b61066885826105ea565b8655506106d0565b601f19841661067e86610450565b60005b828110156106a657848901518255600182019150602085019450602081019050610681565b868310156106c357848901516106bf601f8916826105cc565b8355505b6001600288020188555050505b505050505050565b600073ffffffffffffffffffffffffffffffffffffffff82169050919050565b6000610703826106d8565b9050919050565b610713816106f8565b82525050565b600060208201905061072e600083018461070a565b92915050565b60006bffffffffffffffffffffffff82169050919050565b600061076761076261075d84610734565b6104de565b6104d4565b9050919050565b6107778161074c565b82525050565b610786816104d4565b82525050565b60006040820190506107a1600083018561076e565b6107ae602083018461077d565b9392505050565b61340d806107c46000396000f3fe6080604052600436106101665760003560e01c806370a08231116100d1578063abc8c7af1161008a578063e8f6fd6011610064578063e8f6fd601461053b578063e985e9c514610564578063eacabe14146105a1578063f2fde38b146105d157610166565b8063abc8c7af146104aa578063b88d4fde146104d5578063c87b56dd146104fe57610166565b806370a08231146103ae578063715018a6146103eb57806373ad6c2d146104025780638da5cb5b1461042b57806395d89b4114610456578063a22cb4651461048157610166565b806318e97fd11161012357806318e97fd11461028d57806323b872dd146102b65780632a55205a146102df57806342842e0e1461031d5780636352211e146103465780636817c76c1461038357610166565b806301ffc9a71461016b57806302fa7c47146101a857806306fdde03146101d1578063081812fc146101fc578063095ea7b31461023957806318160ddd14610262575b600080fd5b34801561017757600080fd5b50610192600480360381019061018d919061249f565b6105fa565b60405161019f91906124e7565b60405180910390f35b3480156101b457600080fd5b506101cf60048036038101906101ca91906125a4565b610654565b005b3480156101dd57600080fd5b506101e661066a565b6040516101f39190612674565b60405180910390f35b34801561020857600080fd5b50610223600480360381019061021e91906126cc565b6106fc565b6040516102309190612708565b60405180910390f35b34801561024557600080fd5b50610260600480360381019061025b9190612723565b610718565b005b34801561026e57600080fd5b5061027761072e565b6040516102849190612772565b60405180910390f35b34801561029957600080fd5b506102b460048036038101906102af91906128c2565b610738565b005b3480156102c257600080fd5b506102dd60048036038101906102d8919061291e565b6107fc565b005b3480156102eb57600080fd5b5061030660048036038101906103019190612971565b6108fe565b6040516103149291906129b1565b60405180910390f35b34801561032957600080fd5b50610344600480360381019061033f919061291e565b610a2e565b005b34801561035257600080fd5b5061036d600480360381019061036891906126cc565b610a4e565b60405161037a9190612708565b60405180910390f35b34801561038f57600080fd5b50610398610a60565b6040516103a59190612772565b60405180910390f35b3480156103ba57600080fd5b506103d560048036038101906103d091906129da565b610a66565b6040516103e29190612772565b60405180910390f35b3480156103f757600080fd5b50610400610b20565b005b34801561040e57600080fd5b50610429600480360381019061042491906129da565b610b34565b005b34801561043757600080fd5b50610440610b80565b60405161044d9190612708565b60405180910390f35b34801561046257600080fd5b5061046b610baa565b6040516104789190612674565b60405180910390f35b34801561048d57600080fd5b506104a860048036038101906104a39190612a33565b610c3c565b005b3480156104b657600080fd5b506104bf610c52565b6040516104cc9190612708565b60405180910390f35b3480156104e157600080fd5b506104fc60048036038101906104f79190612b14565b610c78565b005b34801561050a57600080fd5b50610525600480360381019061052091906126cc565b610c9d565b6040516105329190612674565b60405180910390f35b34801561054757600080fd5b50610562600480360381019061055d9190612971565b610db0565b005b34801561057057600080fd5b5061058b60048036038101906105869190612b97565b610e38565b60405161059891906124e7565b60405180910390f35b6105bb60048036038101906105b69190612bd7565b610ecc565b6040516105c89190612772565b60405180910390f35b3480156105dd57600080fd5b506105f860048036038101906105f391906129da565b610f50565b005b6000807bffffffffffffffffffffffffffffffffffffffffffffffffffffffff1916827bffffffffffffffffffffffffffffffffffffffffffffffffffffffff1916148061064d575061064c82610fd6565b5b9050919050565b61065c611050565b61066682826110d7565b5050565b60606000805461067990612c62565b80601f01602080910402602001604051908101604052809291908181526020018280546106a590612c62565b80156106f25780601f106106c7576101008083540402835291602001916106f2565b820191906000526020600020905b8154815290600101906020018083116106d557829003601f168201915b5050505050905090565b600061070782611279565b5061071182611301565b9050919050565b61072a828261072561133e565b611346565b5050565b6000600a54905090565b610740611050565b600073ffffffffffffffffffffffffffffffffffffffff1661076183611358565b73ffffffffffffffffffffffffffffffffffffffff16036107b7576040517f08c379a00000000000000000000000000000000000000000000000000000000081526004016107ae90612cdf565b60405180910390fd5b6107c18282611395565b7ff8e1a15aba9398e019f0b49df1a4fde98ee17ae345cb5f6b5e2c27f5033e8ce7826040516107f09190612772565b60405180910390a15050565b600073ffffffffffffffffffffffffffffffffffffffff168273ffffffffffffffffffffffffffffffffffffffff160361086e5760006040517f64a0ae920000000000000000000000000000000000000000000000000000000081526004016108659190612708565b60405180910390fd5b6000610882838361087d61133e565b6113f1565b90508373ffffffffffffffffffffffffffffffffffffffff168173ffffffffffffffffffffffffffffffffffffffff16146108f8578382826040517f64283d7b0000000000000000000000000000000000000000000000000000000081526004016108ef93929190612cff565b60405180910390fd5b50505050565b600080600060086000868152602001908152602001600020905060008160000160009054906101000a900473ffffffffffffffffffffffffffffffffffffffff16905060008260000160149054906101000a90046bffffffffffffffffffffffff169050600073ffffffffffffffffffffffffffffffffffffffff168273ffffffffffffffffffffffffffffffffffffffff16036109df57600760000160009054906101000a900473ffffffffffffffffffffffffffffffffffffffff169150600760000160149054906101000a90046bffffffffffffffffffffffff1690505b60006109e9611556565b6bffffffffffffffffffffffff16826bffffffffffffffffffffffff1688610a119190612d65565b610a1b9190612dd6565b9050828195509550505050509250929050565b610a4983838360405180602001604052806000815250610c78565b505050565b6000610a5982611279565b9050919050565b600b5481565b60008073ffffffffffffffffffffffffffffffffffffffff168273ffffffffffffffffffffffffffffffffffffffff1603610ad95760006040517f89c62b64000000000000000000000000000000000000000000000000000000008152600401610ad09190612708565b60405180910390fd5b600360008373ffffffffffffffffffffffffffffffffffffffff1673ffffffffffffffffffffffffffffffffffffffff168152602001908152602001600020549050919050565b610b28611050565b610b326000611560565b565b610b3c611050565b80600c60006101000a81548173ffffffffffffffffffffffffffffffffffffffff021916908373ffffffffffffffffffffffffffffffffffffffff16021790555050565b6000600960009054906101000a900473ffffffffffffffffffffffffffffffffffffffff16905090565b606060018054610bb990612c62565b80601f0160208091040260200160405190810160405280929190818152602001828054610be590612c62565b8015610c325780601f10610c0757610100808354040283529160200191610c32565b820191906000526020600020905b815481529060010190602001808311610c1557829003601f168201915b5050505050905090565b610c4e610c4761133e565b8383611626565b5050565b600c60009054906101000a900473ffffffffffffffffffffffffffffffffffffffff1681565b610c838484846107fc565b610c97610c8e61133e565b85858585611795565b50505050565b6060610ca882611279565b506000600660008481526020019081526020016000208054610cc990612c62565b80601f0160208091040260200160405190810160405280929190818152602001828054610cf590612c62565b8015610d425780601f10610d1757610100808354040283529160200191610d42565b820191906000526020600020905b815481529060010190602001808311610d2557829003601f168201915b505050505090506000610d53611946565b90506000815103610d68578192505050610dab565b600082511115610d9d578082604051602001610d85929190612e43565b60405160208183030381529060405292505050610dab565b610da68461195d565b925050505b919050565b610db8611050565b80821115610dfb576040517f08c379a0000000000000000000000000000000000000000000000000000000008152600401610df290612eb3565b60405180910390fd5b7f6bd5c950a8d8df17f772f5af37cb3655737899cbf903264b9795592da439661c8282604051610e2c929190612ed3565b60405180910390a15050565b6000600560008473ffffffffffffffffffffffffffffffffffffffff1673ffffffffffffffffffffffffffffffffffffffff16815260200190815260200160002060008373ffffffffffffffffffffffffffffffffffffffff1673ffffffffffffffffffffffffffffffffffffffff16815260200190815260200160002060009054906101000a900460ff16905092915050565b6000600b54341015610f13576040517f08c379a0000000000000000000000000000000000000000000000000000000008152600401610f0a90612f48565b60405180910390fd5b6000600a549050600a6000815480929190610f2d90612f68565b9190505550610f3c84826119c6565b610f468184611395565b8091505092915050565b610f58611050565b600073ffffffffffffffffffffffffffffffffffffffff168173ffffffffffffffffffffffffffffffffffffffff1603610fca5760006040517f1e4fbdf7000000000000000000000000000000000000000000000000000000008152600401610fc19190612708565b60405180910390fd5b610fd381611560565b50565b60007f2a55205a000000000000000000000000000000000000000000000000000000007bffffffffffffffffffffffffffffffffffffffffffffffffffffffff1916827bffffffffffffffffffffffffffffffffffffffffffffffffffffffff191614806110495750611048826119e4565b5b9050919050565b61105861133e565b73ffffffffffffffffffffffffffffffffffffffff16611076610b80565b73ffffffffffffffffffffffffffffffffffffffff16146110d55761109961133e565b6040517f118cdaa70000000000000000000000000000000000000000000000000000000081526004016110cc9190612708565b60405180910390fd5b565b60006110e1611556565b6bffffffffffffffffffffffff16905080826bffffffffffffffffffffffff1611156111465781816040517f6f483d0900000000000000000000000000000000000000000000000000000000815260040161113d929190612feb565b60405180910390fd5b600073ffffffffffffffffffffffffffffffffffffffff168373ffffffffffffffffffffffffffffffffffffffff16036111b85760006040517fb6d9900a0000000000000000000000000000000000000000000000000000000081526004016111af9190612708565b60405180910390fd5b60405180604001604052808473ffffffffffffffffffffffffffffffffffffffff168152602001836bffffffffffffffffffffffff16815250600760008201518160000160006101000a81548173ffffffffffffffffffffffffffffffffffffffff021916908373ffffffffffffffffffffffffffffffffffffffff16021790555060208201518160000160146101000a8154816bffffffffffffffffffffffff02191690836bffffffffffffffffffffffff160217905550905050505050565b60008061128583611358565b9050600073ffffffffffffffffffffffffffffffffffffffff168173ffffffffffffffffffffffffffffffffffffffff16036112f857826040517f7e2732890000000000000000000000000000000000000000000000000000000081526004016112ef9190612772565b60405180910390fd5b80915050919050565b60006004600083815260200190815260200160002060009054906101000a900473ffffffffffffffffffffffffffffffffffffffff169050919050565b600033905090565b6113538383836001611a45565b505050565b60006002600083815260200190815260200160002060009054906101000a900473ffffffffffffffffffffffffffffffffffffffff169050919050565b806006600084815260200190815260200160002090816113b591906131b6565b507ff8e1a15aba9398e019f0b49df1a4fde98ee17ae345cb5f6b5e2c27f5033e8ce7826040516113e59190612772565b60405180910390a15050565b600080600073ffffffffffffffffffffffffffffffffffffffff1661141585611358565b73ffffffffffffffffffffffffffffffffffffffff1614905060008073ffffffffffffffffffffffffffffffffffffffff168673ffffffffffffffffffffffffffffffffffffffff161490508115801561146d575080155b1561154057600c60009054906101000a900473ffffffffffffffffffffffffffffffffffffffff1673ffffffffffffffffffffffffffffffffffffffff163373ffffffffffffffffffffffffffffffffffffffff16148061150057506114d1610b80565b73ffffffffffffffffffffffffffffffffffffffff163373ffffffffffffffffffffffffffffffffffffffff16145b61153f576040517f08c379a0000000000000000000000000000000000000000000000000000000008152600401611536906132d4565b60405180910390fd5b5b61154b868686611c0a565b925050509392505050565b6000612710905090565b6000600960009054906101000a900473ffffffffffffffffffffffffffffffffffffffff16905081600960006101000a81548173ffffffffffffffffffffffffffffffffffffffff021916908373ffffffffffffffffffffffffffffffffffffffff1602179055508173ffffffffffffffffffffffffffffffffffffffff168173ffffffffffffffffffffffffffffffffffffffff167f8be0079c531659141344cd1fd0a4f28419497f9722a3daafe3b4186f6b6457e060405160405180910390a35050565b600073ffffffffffffffffffffffffffffffffffffffff168273ffffffffffffffffffffffffffffffffffffffff160361169757816040517f5b08ba1800000000000000000000000000000000000000000000000000000000815260040161168e9190612708565b60405180910390fd5b80600560008573ffffffffffffffffffffffffffffffffffffffff1673ffffffffffffffffffffffffffffffffffffffff16815260200190815260200160002060008473ffffffffffffffffffffffffffffffffffffffff1673ffffffffffffffffffffffffffffffffffffffff16815260200190815260200160002060006101000a81548160ff0219169083151502179055508173ffffffffffffffffffffffffffffffffffffffff168373ffffffffffffffffffffffffffffffffffffffff167f17307eab39ab6107e8899845ad3d59bd9653f200f220920489ca2b5937696c318360405161178891906124e7565b60405180910390a3505050565b60008373ffffffffffffffffffffffffffffffffffffffff163b111561193f578273ffffffffffffffffffffffffffffffffffffffff1663150b7a02868685856040518563ffffffff1660e01b81526004016117f49493929190613349565b6020604051808303816000875af192505050801561183057506040513d601f19601f8201168201806040525081019061182d91906133aa565b60015b6118b4573d8060008114611860576040519150601f19603f3d011682016040523d82523d6000602084013e611865565b606091505b5060008151036118ac57836040517f64a0ae920000000000000000000000000000000000000000000000000000000081526004016118a39190612708565b60405180910390fd5b805160208201fd5b63150b7a0260e01b7bffffffffffffffffffffffffffffffffffffffffffffffffffffffff1916817bffffffffffffffffffffffffffffffffffffffffffffffffffffffff19161461193d57836040517f64a0ae920000000000000000000000000000000000000000000000000000000081526004016119349190612708565b60405180910390fd5b505b5050505050565b606060405180602001604052806000815250905090565b606061196882611279565b506000611973611946565b9050600081511161199357604051806020016040528060008152506119be565b8061199d84611e24565b6040516020016119ae929190612e43565b6040516020818303038152906040525b915050919050565b6119e0828260405180602001604052806000815250611ef2565b5050565b6000634906490660e01b7bffffffffffffffffffffffffffffffffffffffffffffffffffffffff1916827bffffffffffffffffffffffffffffffffffffffffffffffffffffffff19161480611a3e5750611a3d82611f16565b5b9050919050565b8080611a7e5750600073ffffffffffffffffffffffffffffffffffffffff168273ffffffffffffffffffffffffffffffffffffffff1614155b15611bb2576000611a8e84611279565b9050600073ffffffffffffffffffffffffffffffffffffffff168373ffffffffffffffffffffffffffffffffffffffff1614158015611af957508273ffffffffffffffffffffffffffffffffffffffff168173ffffffffffffffffffffffffffffffffffffffff1614155b8015611b0c5750611b0a8184610e38565b155b15611b4e57826040517fa9fbf51f000000000000000000000000000000000000000000000000000000008152600401611b459190612708565b60405180910390fd5b8115611bb057838573ffffffffffffffffffffffffffffffffffffffff168273ffffffffffffffffffffffffffffffffffffffff167f8c5be1e5ebec7d5bd14f71427d1e84f3dd0314c0f7b2291e5b200ac8c7c3b92560405160405180910390a45b505b836004600085815260200190815260200160002060006101000a81548173ffffffffffffffffffffffffffffffffffffffff021916908373ffffffffffffffffffffffffffffffffffffffff16021790555050505050565b600080611c1684611358565b9050600073ffffffffffffffffffffffffffffffffffffffff168373ffffffffffffffffffffffffffffffffffffffff1614611c5857611c57818486611ff8565b5b600073ffffffffffffffffffffffffffffffffffffffff168173ffffffffffffffffffffffffffffffffffffffff1614611ce957611c9a600085600080611a45565b6001600360008373ffffffffffffffffffffffffffffffffffffffff1673ffffffffffffffffffffffffffffffffffffffff168152602001908152602001600020600082825403925050819055505b600073ffffffffffffffffffffffffffffffffffffffff168573ffffffffffffffffffffffffffffffffffffffff1614611d6c576001600360008773ffffffffffffffffffffffffffffffffffffffff1673ffffffffffffffffffffffffffffffffffffffff168152602001908152602001600020600082825401925050819055505b846002600086815260200190815260200160002060006101000a81548173ffffffffffffffffffffffffffffffffffffffff021916908373ffffffffffffffffffffffffffffffffffffffff160217905550838573ffffffffffffffffffffffffffffffffffffffff168273ffffffffffffffffffffffffffffffffffffffff167fddf252ad1be2c89b69c2b068fc378daa952ba7f163c4a11628f55a4df523b3ef60405160405180910390a4809150509392505050565b606060006001611e33846120bc565b01905060008167ffffffffffffffff811115611e5257611e51612797565b5b6040519080825280601f01601f191660200182016040528015611e845781602001600182028036833780820191505090505b509050600082602083010190505b600115611ee7578080600190039150507f3031323334353637383961626364656600000000000000000000000000000000600a86061a8153600a8581611edb57611eda612da7565b5b04945060008503611e92575b819350505050919050565b611efc838361220f565b611f11611f0761133e565b6000858585611795565b505050565b60007f80ac58cd000000000000000000000000000000000000000000000000000000007bffffffffffffffffffffffffffffffffffffffffffffffffffffffff1916827bffffffffffffffffffffffffffffffffffffffffffffffffffffffff19161480611fe157507f5b5e139f000000000000000000000000000000000000000000000000000000007bffffffffffffffffffffffffffffffffffffffffffffffffffffffff1916827bffffffffffffffffffffffffffffffffffffffffffffffffffffffff1916145b80611ff15750611ff082612308565b5b9050919050565b612003838383612372565b6120b757600073ffffffffffffffffffffffffffffffffffffffff168373ffffffffffffffffffffffffffffffffffffffff160361207857806040517f7e27328900000000000000000000000000000000000000000000000000000000815260040161206f9190612772565b60405180910390fd5b81816040517f177e802f0000000000000000000000000000000000000000000000000000000081526004016120ae9291906129b1565b60405180910390fd5b505050565b600080600090507a184f03e93ff9f4daa797ed6e38ed64bf6a1f010000000000000000831061211a577a184f03e93ff9f4daa797ed6e38ed64bf6a1f01000000000000000083816121105761210f612da7565b5b0492506040810190505b6d04ee2d6d415b85acef81000000008310612157576d04ee2d6d415b85acef8100000000838161214d5761214c612da7565b5b0492506020810190505b662386f26fc10000831061218657662386f26fc10000838161217c5761217b612da7565b5b0492506010810190505b6305f5e10083106121af576305f5e10083816121a5576121a4612da7565b5b0492506008810190505b61271083106121d45761271083816121ca576121c9612da7565b5b0492506004810190505b606483106121f757606483816121ed576121ec612da7565b5b0492506002810190505b600a8310612206576001810190505b80915050919050565b600073ffffffffffffffffffffffffffffffffffffffff168273ffffffffffffffffffffffffffffffffffffffff16036122815760006040517f64a0ae920000000000000000000000000000000000000000000000000000000081526004016122789190612708565b60405180910390fd5b600061228f838360006113f1565b9050600073ffffffffffffffffffffffffffffffffffffffff168173ffffffffffffffffffffffffffffffffffffffff16146123035760006040517f73c6ac6e0000000000000000000000000000000000000000000000000000000081526004016122fa9190612708565b60405180910390fd5b505050565b60007f01ffc9a7000000000000000000000000000000000000000000000000000000007bffffffffffffffffffffffffffffffffffffffffffffffffffffffff1916827bffffffffffffffffffffffffffffffffffffffffffffffffffffffff1916149050919050565b60008073ffffffffffffffffffffffffffffffffffffffff168373ffffffffffffffffffffffffffffffffffffffff161415801561242a57508273ffffffffffffffffffffffffffffffffffffffff168473ffffffffffffffffffffffffffffffffffffffff1614806123eb57506123ea8484610e38565b5b8061242957508273ffffffffffffffffffffffffffffffffffffffff1661241183611301565b73ffffffffffffffffffffffffffffffffffffffff16145b5b90509392505050565b6000604051905090565b600080fd5b600080fd5b60007fffffffff0000000000000000000000000000000000000000000000000000000082169050919050565b61247c81612447565b811461248757600080fd5b50565b60008135905061249981612473565b92915050565b6000602082840312156124b5576124b461243d565b5b60006124c38482850161248a565b91505092915050565b60008115159050919050565b6124e1816124cc565b82525050565b60006020820190506124fc60008301846124d8565b92915050565b600073ffffffffffffffffffffffffffffffffffffffff82169050919050565b600061252d82612502565b9050919050565b61253d81612522565b811461254857600080fd5b50565b60008135905061255a81612534565b92915050565b60006bffffffffffffffffffffffff82169050919050565b61258181612560565b811461258c57600080fd5b50565b60008135905061259e81612578565b92915050565b600080604083850312156125bb576125ba61243d565b5b60006125c98582860161254b565b92505060206125da8582860161258f565b9150509250929050565b600081519050919050565b600082825260208201905092915050565b60005b8381101561261e578082015181840152602081019050612603565b60008484015250505050565b6000601f19601f8301169050919050565b6000612646826125e4565b61265081856125ef565b9350612660818560208601612600565b6126698161262a565b840191505092915050565b6000602082019050818103600083015261268e818461263b565b905092915050565b6000819050919050565b6126a981612696565b81146126b457600080fd5b50565b6000813590506126c6816126a0565b92915050565b6000602082840312156126e2576126e161243d565b5b60006126f0848285016126b7565b91505092915050565b61270281612522565b82525050565b600060208201905061271d60008301846126f9565b92915050565b6000806040838503121561273a5761273961243d565b5b60006127488582860161254b565b9250506020612759858286016126b7565b9150509250929050565b61276c81612696565b82525050565b60006020820190506127876000830184612763565b92915050565b600080fd5b600080fd5b7f4e487b7100000000000000000000000000000000000000000000000000000000600052604160045260246000fd5b6127cf8261262a565b810181811067ffffffffffffffff821117156127ee576127ed612797565b5b80604052505050565b6000612801612433565b905061280d82826127c6565b919050565b600067ffffffffffffffff82111561282d5761282c612797565b5b6128368261262a565b9050602081019050919050565b82818337600083830152505050565b600061286561286084612812565b6127f7565b90508281526020810184848401111561288157612880612792565b5b61288c848285612843565b509392505050565b600082601f8301126128a9576128a861278d565b5b81356128b9848260208601612852565b91505092915050565b600080604083850312156128d9576128d861243d565b5b60006128e7858286016126b7565b925050602083013567ffffffffffffffff81111561290857612907612442565b5b61291485828601612894565b9150509250929050565b6000806000606084860312156129375761293661243d565b5b60006129458682870161254b565b93505060206129568682870161254b565b9250506040612967868287016126b7565b9150509250925092565b600080604083850312156129885761298761243d565b5b6000612996858286016126b7565b92505060206129a7858286016126b7565b9150509250929050565b60006040820190506129c660008301856126f9565b6129d36020830184612763565b9392505050565b6000602082840312156129f0576129ef61243d565b5b60006129fe8482850161254b565b91505092915050565b612a10816124cc565b8114612a1b57600080fd5b50565b600081359050612a2d81612a07565b92915050565b60008060408385031215612a4a57612a4961243d565b5b6000612a588582860161254b565b9250506020612a6985828601612a1e565b9150509250929050565b600067ffffffffffffffff821115612a8e57612a8d612797565b5b612a978261262a565b9050602081019050919050565b6000612ab7612ab284612a73565b6127f7565b905082815260208101848484011115612ad357612ad2612792565b5b612ade848285612843565b509392505050565b600082601f830112612afb57612afa61278d565b5b8135612b0b848260208601612aa4565b91505092915050565b60008060008060808587031215612b2e57612b2d61243d565b5b6000612b3c8782880161254b565b9450506020612b4d8782880161254b565b9350506040612b5e878288016126b7565b925050606085013567ffffffffffffffff811115612b7f57612b7e612442565b5b612b8b87828801612ae6565b91505092959194509250565b60008060408385031215612bae57612bad61243d565b5b6000612bbc8582860161254b565b9250506020612bcd8582860161254b565b9150509250929050565b60008060408385031215612bee57612bed61243d565b5b6000612bfc8582860161254b565b925050602083013567ffffffffffffffff811115612c1d57612c1c612442565b5b612c2985828601612894565b9150509250929050565b7f4e487b7100000000000000000000000000000000000000000000000000000000600052602260045260246000fd5b60006002820490506001821680612c7a57607f821691505b602082108103612c8d57612c8c612c33565b5b50919050565b7f546f6b656e20646f6573206e6f74206578697374000000000000000000000000600082015250565b6000612cc96014836125ef565b9150612cd482612c93565b602082019050919050565b60006020820190508181036000830152612cf881612cbc565b9050919050565b6000606082019050612d1460008301866126f9565b612d216020830185612763565b612d2e60408301846126f9565b949350505050565b7f4e487b7100000000000000000000000000000000000000000000000000000000600052601160045260246000fd5b6000612d7082612696565b9150612d7b83612696565b9250828202612d8981612696565b91508282048414831517612da057612d9f612d36565b5b5092915050565b7f4e487b7100000000000000000000000000000000000000000000000000000000600052601260045260246000fd5b6000612de182612696565b9150612dec83612696565b925082612dfc57612dfb612da7565b5b828204905092915050565b600081905092915050565b6000612e1d826125e4565b612e278185612e07565b9350612e37818560208601612600565b80840191505092915050565b6000612e4f8285612e12565b9150612e5b8284612e12565b91508190509392505050565b7f496e76616c69642072616e676500000000000000000000000000000000000000600082015250565b6000612e9d600d836125ef565b9150612ea882612e67565b602082019050919050565b60006020820190508181036000830152612ecc81612e90565b9050919050565b6000604082019050612ee86000830185612763565b612ef56020830184612763565b9392505050565b7f496e73756666696369656e74207061796d656e74000000000000000000000000600082015250565b6000612f326014836125ef565b9150612f3d82612efc565b602082019050919050565b60006020820190508181036000830152612f6181612f25565b9050919050565b6000612f7382612696565b91507fffffffffffffffffffffffffffffffffffffffffffffffffffffffffffffffff8203612fa557612fa4612d36565b5b600182019050919050565b6000819050919050565b6000612fd5612fd0612fcb84612560565b612fb0565b612696565b9050919050565b612fe581612fba565b82525050565b60006040820190506130006000830185612fdc565b61300d6020830184612763565b9392505050565b60008190508160005260206000209050919050565b60006020601f8301049050919050565b600082821b905092915050565b6000600883026130767fffffffffffffffffffffffffffffffffffffffffffffffffffffffffffffffff82613039565b6130808683613039565b95508019841693508086168417925050509392505050565b60006130b36130ae6130a984612696565b612fb0565b612696565b9050919050565b6000819050919050565b6130cd83613098565b6130e16130d9826130ba565b848454613046565b825550505050565b600090565b6130f66130e9565b6131018184846130c4565b505050565b5b818110156131255761311a6000826130ee565b600181019050613107565b5050565b601f82111561316a5761313b81613014565b61314484613029565b81016020851015613153578190505b61316761315f85613029565b830182613106565b50505b505050565b600082821c905092915050565b600061318d6000198460080261316f565b1980831691505092915050565b60006131a6838361317c565b9150826002028217905092915050565b6131bf826125e4565b67ffffffffffffffff8111156131d8576131d7612797565b5b6131e28254612c62565b6131ed828285613129565b600060209050601f831160018114613220576000841561320e578287015190505b613218858261319a565b865550613280565b601f19841661322e86613014565b60005b8281101561325657848901518255600182019150602085019450602081019050613231565b86831015613273578489015161326f601f89168261317c565b8355505b6001600288020188555050505b505050505050565b7f5472616e736665727320766961206d61726b6574706c616365206f6e6c790000600082015250565b60006132be601e836125ef565b91506132c982613288565b602082019050919050565b600060208201905081810360008301526132ed816132b1565b9050919050565b600081519050919050565b600082825260208201905092915050565b600061331b826132f4565b61332581856132ff565b9350613335818560208601612600565b61333e8161262a565b840191505092915050565b600060808201905061335e60008301876126f9565b61336b60208301866126f9565b6133786040830185612763565b818103606083015261338a8184613310565b905095945050505050565b6000815190506133a481612473565b92915050565b6000602082840312156133c0576133bf61243d565b5b60006133ce84828501613395565b9150509291505056fea2646970667358221220a6956529cb4f98d501b0646cb8638dc8b166fafb9f947ed06965c00e42abac8864736f6c634300081c0033",
  "linkReferences": {},
  "deployedLinkReferences": {}
}