{
  "_format": "hh-sol-artifact-1",
  "contractName": "MysteryBoxV2",
  "sourceName": "contracts/MysteryBoxV2.sol",
  "abi": [
    {
      "inputs": [
        {
          "internalType": "address",
          "name": "_myNFTAddress",
          "type": "address"
        },
        {
          "internalType": "address",
          "name": "_vrfCoordinator",
          "type": "address"
        },
        {
          "internalType": "uint256",
          "name": "_vrfSubscriptionId",
          "type": "uint256"
        },
        {
          "internalType": "bytes32",
          "name": "_vrfKeyHash",
          "type": "bytes32"
        },
        {
          "internalType": "uint32",
          "name": "_vrfCallbackGasLimit",
          "type": "uint32"
        },
        {
          "internalType": "uint16",
          "name": "_vrfRequestConfirmations",
          "type": "uint16"
        }
      ],
      "stateMutability": "nonpayable",
      "type": "constructor"
    },
    {
      "inputs": [],
      "name": "EnforcedPause",
      "type": "error"
    },
    {
      "inputs": [
        {
          "internalType": "uint256",
          "name": "sent",
          "type": "uint256"
        },
        {
          "internalType": "uint256",
          "name": "required",
          "type": "uint256"
        }
      ],
      "name": "ExactPaymentRequired",
      "type": "error"
    },
    {
      "inputs": [],
      "name": "ExpectedPause",
      "type": "error"
    },
    {
      "inputs": [
        {
          "internalType": "uint256",
          "name": "requested",
          "type": "uint256"
        },
        {
          "internalType": "uint256",
          "name": "available",
          "type": "uint256"
        }
      ],
      "name": "InsufficientPrizes",
      "type": "error"
    },
    {
      "inputs": [],
      "name": "InvalidAddress",
      "type": "error"
    },
    {
      "inputs": [
        {
          "internalType": "uint256",
          "name": "cooldown",
          "type": "uint256"
        }
      ],
      "name": "InvalidCooldown",
      "type": "error"
    },
    {
      "inputs": [
        {
          "internalType": "uint256",
          "name": "index",
          "type": "uint256"
        }
      ],
      "name": "InvalidPrizeIndex",
      "type": "error"
    },
    {
      "inputs": [
        {
          "internalType": "uint256",
          "name": "quantity",
          "type": "uint256"
        }
      ],
      "name": "InvalidQuantity",
      "type": "error"
    },
    {
      "inputs": [],
      "name": "InvalidRequestId",
      "type": "error"
    },
    {
      "inputs": [],
      "name": "NoBalance",
      "type": "error"
    },
    {
      "inputs": [],
      "name": "NoPrizesLeft",
      "type": "error"
    },
    {
      "inputs": [],
      "name": "NotAContract",
      "type": "error"
    },
    {
      "inputs": [
        {
          "internalType": "address",
          "name": "have",
          "type": "address"
        },
        {
          "internalType": "address",
          "name": "want",
          "type": "address"
        }
      ],
      "name": "OnlyCoordinatorCanFulfill",
      "type": "error"
    },
    {
      "inputs": [
        {
          "internalType": "address",
          "name": "have",
          "type": "address"
        },
        {
          "internalType": "address",
          "name": "owner",
          "type": "address"
        },
        {
          "internalType": "address",
          "name": "coordinator",
          "type": "address"
        }
      ],
      "name": "OnlyOwnerOrCoordinator",
      "type": "error"
    },
    {
      "inputs": [
        {
          "internalType": "uint256",
          "name": "index",
          "type": "uint256"
        }
      ],
      "name": "PrizeAlreadyRemoved",
      "type": "error"
    },
    {
      "inputs": [
        {
          "internalType": "uint256",
          "name": "timeRemaining",
          "type": "uint256"
        }
      ],
      "name": "PurchaseTooSoon",
      "type": "error"
    },
    {
      "inputs": [],
      "name": "ReentrancyGuardReentrantCall",
      "type": "error"
    },
    {
      "inputs": [
        {
          "internalType": "string",
          "name": "interfaceName",
          "type": "string"
        }
      ],
      "name": "UnsupportedInterface",
      "type": "error"
    },
    {
      "inputs": [],
      "name": "ZeroAddress",
      "type": "error"
    },
    {
      "anonymous": false,
      "inputs": [
        {
          "indexed": true,
          "internalType": "address",
          "name": "user",
          "type": "address"
        },
        {
          "indexed": false,
          "internalType": "uint256",
          "name": "boxId",
          "type": "uint256"
        },
        {
          "indexed": false,
          "internalType": "uint256",
          "name": "prizeTokenId",
          "type": "uint256"
        },
        {
          "indexed": false,
          "internalType": "string",
          "name": "prizeURI",
          "type": "string"
        }
      ],
      "name": "BoxOpened",
      "type": "event"
    },
    {
      "anonymous": false,
      "inputs": [
        {
          "indexed": false,
          "internalType": "uint256",
          "name": "newPrice",
          "type": "uint256"
        }
      ],
      "name": "BoxPriceUpdated",
      "type": "event"
    },
    {
      "anonymous": false,
      "inputs": [
        {
          "indexed": true,
          "internalType": "address",
          "name": "user",
          "type": "address"
        },
        {
          "indexed": false,
          "internalType": "uint256",
          "name": "boxId",
          "type": "uint256"
        }
      ],
      "name": "BoxPurchased",
      "type": "event"
    },
    {
      "anonymous": false,
      "inputs": [
        {
          "indexed": false,
          "internalType": "address",
          "name": "vrfCoordinator",
          "type": "address"
        }
      ],
      "name": "CoordinatorSet",
      "type": "event"
    },
    {
      "anonymous": false,
      "inputs": [
        {
          "indexed": true,
          "internalType": "address",
          "name": "from",
          "type": "address"
        },
        {
          "indexed": true,
          "internalType": "address",
          "name": "to",
          "type": "address"
        }
      ],
      "name": "OwnershipTransferRequested",
      "type": "event"
    },
    {
      "anonymous": false,
      "inputs": [
        {
          "indexed": true,
          "internalType": "address",
          "name": "from",
          "type": "address"
        },
        {
          "indexed": true,
          "internalType": "address",
          "name": "to",
          "type": "address"
        }
      ],
      "name": "OwnershipTransferred",
      "type": "event"
    },
    {
      "anonymous": false,
      "inputs": [
        {
          "indexed": false,
          "internalType": "address",
          "name": "account",
          "type": "address"
        }
      ],
      "name": "Paused",
      "type": "event"
    },
    {
      "anonymous": false,
      "inputs": [
        {
          "indexed": false,
          "internalType": "string",
          "name": "prizeURI",
          "type": "string"
        }
      ],
      "name": "PrizeAdded",
      "type": "event"
    },
    {
      "anonymous": false,
      "inputs": [
        {
          "indexed": false,
          "internalType": "string",
          "name": "prizeURI",
          "type": "string"
        }
      ],
      "name": "PrizeRemoved",
      "type": "event"
    },
    {
      "anonymous": false,
      "inputs": [
        {
          "indexed": false,
          "internalType": "uint256",
          "name": "requestId",
          "type": "uint256"
        }
      ],
      "name": "RandomnessRequest",
      "type": "event"
    },
    {
      "anonymous": false,
      "inputs": [
        {
          "indexed": false,
          "internalType": "address",
          "name": "account",
          "type": "address"
        }
      ],
      "name": "Unpaused",
      "type": "event"
    },
    {
      "anonymous": false,
      "inputs": [
        {
          "indexed": true,
          "internalType": "address",
          "name": "to",
          "type": "address"
        },
        {
          "indexed": false,
          "internalType": "uint256",
          "name": "amount",
          "type": "uint256"
        }
      ],
      "name": "Withdraw",
      "type": "event"
    },
    {
      "inputs": [],
      "name": "acceptOwnership",
      "outputs": [],
      "stateMutability": "nonpayable",
      "type": "function"
    },
    {
      "inputs": [
        {
          "internalType": "string",
          "name": "uri",
          "type": "string"
        }
      ],
      "name": "addPrizeURI",
      "outputs": [],
      "stateMutability": "nonpayable",
      "type": "function"
    },
    {
      "inputs": [],
      "name": "boxPrice",
      "outputs": [
        {
          "internalType": "uint256",
          "name": "",
          "type": "uint256"
        }
      ],
      "stateMutability": "view",
      "type": "function"
    },
    {
      "inputs": [],
      "name": "getKeyHash",
      "outputs": [
        {
          "internalType": "bytes32",
          "name": "",
          "type": "bytes32"
        }
      ],
      "stateMutability": "view",
      "type": "function"
    },
    {
      "inputs": [],
      "name": "getPrizeURIs",
      "outputs": [
        {
          "internalType": "string[]",
          "name": "",
          "type": "string[]"
        }
      ],
      "stateMutability": "view",
      "type": "function"
    },
    {
      "inputs": [],
      "name": "getSubscriptionId",
      "outputs": [
        {
          "internalType": "uint256",
          "name": "",
          "type": "uint256"
        }
      ],
      "stateMutability": "view",
      "type": "function"
    },
    {
      "inputs": [],
      "name": "getVRFCoordinator",
      "outputs": [
        {
          "internalType": "address",
          "name": "",
          "type": "address"
        }
      ],
      "stateMutability": "view",
      "type": "function"
    },
    {
      "inputs": [
        {
          "internalType": "address",
          "name": "",
          "type": "address"
        }
      ],
      "name": "lastPurchaseTime",
      "outputs": [
        {
          "internalType": "uint256",
          "name": "",
          "type": "uint256"
        }
      ],
      "stateMutability": "view",
      "type": "function"
    },
    {
      "inputs": [],
      "name": "myNFT",
      "outputs": [
        {
          "internalType": "contract IMyNFT",
          "name": "",
          "type": "address"
        }
      ],
      "stateMutability": "view",
      "type": "function"
    },
    {
      "inputs": [],
      "name": "myNFTAddress",
      "outputs": [
        {
          "internalType": "address",
          "name": "",
          "type": "address"
        }
      ],
      "stateMutability": "view",
      "type": "function"
    },
    {
      "inputs": [
        {
          "internalType": "uint256",
          "name": "",
          "type": "uint256"
        }
      ],
      "name": "openRequests",
      "outputs": [
        {
          "internalType": "address",
          "name": "user",
          "type": "address"
        },
        {
          "internalType": "uint256",
          "name": "boxId",
          "type": "uint256"
        }
      ],
      "stateMutability": "view",
      "type": "function"
    },
    {
      "inputs": [],
      "name": "owner",
      "outputs": [
        {
          "internalType": "address",
          "name": "",
          "type": "address"
        }
      ],
      "stateMutability": "view",
      "type": "function"
    },
    {
      "inputs": [],
      "name": "pause",
      "outputs": [],
      "stateMutability": "nonpayable",
      "type": "function"
    },
    {
      "inputs": [],
      "name": "paused",
      "outputs": [
        {
          "internalType": "bool",
          "name": "",
          "type": "bool"
        }
      ],
      "stateMutability": "view",
      "type": "function"
    },
    {
      "inputs": [],
      "name": "prizesRemaining",
      "outputs": [
        {
          "internalType": "uint256",
          "name": "",
          "type": "uint256"
        }
      ],
      "stateMutability": "view",
      "type": "function"
    },
    {
      "inputs": [],
      "name": "purchaseAndOpenBox",
      "outputs": [
        {
          "internalType": "uint256",
          "name": "",
          "type": "uint256"
        }
      ],
      "stateMutability": "payable",
      "type": "function"
    },
    {
      "inputs": [
        {
          "internalType": "uint256",
          "name": "quantity",
          "type": "uint256"
        }
      ],
      "name": "purchaseAndOpenBoxes",
      "outputs": [
        {
          "internalType": "uint256[]",
          "name": "boxIds",
          "type": "uint256[]"
        }
      ],
      "stateMutability": "payable",
      "type": "function"
    },
    {
      "inputs": [],
      "name": "purchaseCooldown",
      "outputs": [
        {
          "internalType": "uint256",
          "name": "",
          "type": "uint256"
        }
      ],
      "stateMutability": "view",
      "type": "function"
    },
    {
      "inputs": [
        {
          "internalType": "uint256",
          "name": "requestId",
          "type": "uint256"
        },
        {
          "internalType": "uint256[]",
          "name": "randomWords",
          "type": "uint256[]"
        }
      ],
      "name": "rawFulfillRandomWords",
      "outputs": [],
      "stateMutability": "nonpayable",
      "type": "function"
    },
    {
      "inputs": [
        {
          "internalType": "uint256",
          "name": "index",
          "type": "uint256"
        }
      ],
      "name": "removePrize",
      "outputs": [],
      "stateMutability": "nonpayable",
      "type": "function"
    },
    {
      "inputs": [],
      "name": "s_vrfCoordinator",
      "outputs": [
        {
          "internalType": "contract IVRFCoordinatorV2Plus",
          "name": "",
          "type": "address"
        }
      ],
      "stateMutability": "view",
      "type": "function"
    },
    {
      "inputs": [
        {
          "internalType": "uint256",
          "name": "newPrice",
          "type": "uint256"
        }
      ],
      "name": "setBoxPrice",
      "outputs": [],
      "stateMutability": "nonpayable",
      "type": "function"
    },
    {
      "inputs": [
        {
          "internalType": "address",
          "name": "_vrfCoordinator",
          "type": "address"
        }
      ],
      "name": "setCoordinator",
      "outputs": [],
      "stateMutability": "nonpayable",
      "type": "function"
    },
    {
      "inputs": [
        {
          "internalType": "address",
          "name": "_myNFTAddress",
          "type": "address"
        }
      ],
      "name": "setMyNFTAddress",
      "outputs": [],
      "stateMutability": "nonpayable",
      "type": "function"
    },
    {
      "inputs": [
        {
          "internalType": "uint256",
          "name": "newCooldown",
          "type": "uint256"
        }
      ],
      "name": "setPurchaseCooldown",
      "outputs": [],
      "stateMutability": "nonpayable",
      "type": "function"
    },
    {
      "inputs": [
        {
          "internalType": "address",
          "name": "to",
          "type": "address"
        }
      ],
      "name": "transferOwnership",
      "outputs": [],
      "stateMutability": "nonpayable",
      "type": "function"
    },
    {
      "inputs": [],
      "name": "unpause",
      "outputs": [],
      "stateMutability": "nonpayable",
      "type": "function"
    },
    {
      "inputs": [],
      "name": "vrfCallbackGasLimit",
      "outputs": [
        {
          "internalType": "uint32",
          "name": "",
          "type": "uint32"
        }
      ],
      "stateMutability": "view",
      "type": "function"
    },
    {
      "inputs": [],
      "name": "vrfKeyHash",
      "outputs": [
        {
          "internalType": "bytes32",
          "name": "",
          "type": "bytes32"
        }
      ],
      "stateMutability": "view",
      "type": "function"
    },
    {
      "inputs": [],
      "name": "vrfNumWords",
      "outputs": [
        {
          "internalType": "uint32",
          "name": "",
          "type": "uint32"
        }
      ],
      "stateMutability": "view",
      "type": "function"
    },
    {
      "inputs": [],
      "name": "vrfRequestConfirmations",
      "outputs": [
        {
          "internalType": "uint16",
          "name": "",
          "type": "uint16"
        }
      ],
      "stateMutability": "view",
      "type": "function"
    },
    {
      "inputs": [],
      "name": "vrfSubscriptionId",
      "outputs": [
        {
          "internalType": "uint256",
          "name": "",
          "type": "uint256"
        }
      ],
      "stateMutability": "view",
      "type": "function"
    },
    {
      "inputs": [
        {
          "internalType": "address payable",
          "name": "to",
          "type": "address"
        }
      ],
      "name": "withdraw",
      "outputs": [],
      "stateMutability": "nonpayable",
      "type": "function"
    },
    {
      "stateMutability": "payable",
      "type": "receive"
    }
  ],
  "bytecode": "0x608060405234801561001057600080fd5b5060405161407e38038061407e833981810160405281019061003291906107c8565b84338060008073ffffffffffffffffffffffffffffffffffffffff168273ffffffffffffffffffffffffffffffffffffffff16036100a5576040517f08c379a000000000000000000000000000000000000000000000000000000000815260040161009c906108b2565b60405180910390fd5b816000806101000a81548173ffffffffffffffffffffffffffffffffffffffff021916908373ffffffffffffffffffffffffffffffffffffffff160217905550600073ffffffffffffffffffffffffffffffffffffffff168173ffffffffffffffffffffffffffffffffffffffff161461012957610128816102fb60201b60201c565b5b505050600073ffffffffffffffffffffffffffffffffffffffff168173ffffffffffffffffffffffffffffffffffffffff1603610192576040517fd92e233d00000000000000000000000000000000000000000000000000000000815260040160405180910390fd5b80600260006101000a81548173ffffffffffffffffffffffffffffffffffffffff021916908373ffffffffffffffffffffffffffffffffffffffff160217905550506001600381905550836004819055508260058190555081600660006101000a81548163ffffffff021916908363ffffffff16021790555080600660046101000a81548161ffff021916908361ffff16021790555060016006806101000a81548163ffffffff021916908363ffffffff1602179055506102588661042760201b60201c565b85600b60006101000a81548173ffffffffffffffffffffffffffffffffffffffff021916908373ffffffffffffffffffffffffffffffffffffffff16021790555085600c60006101000a81548173ffffffffffffffffffffffffffffffffffffffff021916908373ffffffffffffffffffffffffffffffffffffffff160217905550662386f26fc10000600a81905550601e601081905550505050505050610ad1565b3373ffffffffffffffffffffffffffffffffffffffff168173ffffffffffffffffffffffffffffffffffffffff1603610369576040517f08c379a00000000000000000000000000000000000000000000000000000000081526004016103609061091e565b60405180910390fd5b80600160006101000a81548173ffffffffffffffffffffffffffffffffffffffff021916908373ffffffffffffffffffffffffffffffffffffffff1602179055508073ffffffffffffffffffffffffffffffffffffffff1660008054906101000a900473ffffffffffffffffffffffffffffffffffffffff1673ffffffffffffffffffffffffffffffffffffffff167fed8889f560326eb138920d842192f0eb3dd22b4f139c87a2c57538e05bae127860405160405180910390a350565b600073ffffffffffffffffffffffffffffffffffffffff168173ffffffffffffffffffffffffffffffffffffffff160361048d576040517fe6c4247b00000000000000000000000000000000000000000000000000000000815260040160405180910390fd5b6000813b9050600081036104cd576040517f09ee12d500000000000000000000000000000000000000000000000000000000815260040160405180910390fd5b8173ffffffffffffffffffffffffffffffffffffffff166301ffc9a77f01ffc9a7000000000000000000000000000000000000000000000000000000006040518263ffffffff1660e01b81526004016105269190610979565b602060405180830381865afa158015610543573d6000803e3d6000fd5b505050506040513d601f19601f8201168201806040525081019061056791906109cc565b6105a6576040517f1a1fdbb000000000000000000000000000000000000000000000000000000000815260040161059d90610a45565b60405180910390fd5b8173ffffffffffffffffffffffffffffffffffffffff166301ffc9a77f80ac58cd000000000000000000000000000000000000000000000000000000006040518263ffffffff1660e01b81526004016105ff9190610979565b602060405180830381865afa15801561061c573d6000803e3d6000fd5b505050506040513d601f19601f8201168201806040525081019061064091906109cc565b61067f576040517f1a1fdbb000000000000000000000000000000000000000000000000000000000815260040161067690610ab1565b60405180910390fd5b5050565b600080fd5b600073ffffffffffffffffffffffffffffffffffffffff82169050919050565b60006106b382610688565b9050919050565b6106c3816106a8565b81146106ce57600080fd5b50565b6000815190506106e0816106ba565b92915050565b6000819050919050565b6106f9816106e6565b811461070457600080fd5b50565b600081519050610716816106f0565b92915050565b6000819050919050565b61072f8161071c565b811461073a57600080fd5b50565b60008151905061074c81610726565b92915050565b600063ffffffff82169050919050565b61076b81610752565b811461077657600080fd5b50565b60008151905061078881610762565b92915050565b600061ffff82169050919050565b6107a58161078e565b81146107b057600080fd5b50565b6000815190506107c28161079c565b92915050565b60008060008060008060c087890312156107e5576107e4610683565b5b60006107f389828a016106d1565b965050602061080489828a016106d1565b955050604061081589828a01610707565b945050606061082689828a0161073d565b935050608061083789828a01610779565b92505060a061084889828a016107b3565b9150509295509295509295565b600082825260208201905092915050565b7f43616e6e6f7420736574206f776e657220746f207a65726f0000000000000000600082015250565b600061089c601883610855565b91506108a782610866565b602082019050919050565b600060208201905081810360008301526108cb8161088f565b9050919050565b7f43616e6e6f74207472616e7366657220746f2073656c66000000000000000000600082015250565b6000610908601783610855565b9150610913826108d2565b602082019050919050565b60006020820190508181036000830152610937816108fb565b9050919050565b60007fffffffff0000000000000000000000000000000000000000000000000000000082169050919050565b6109738161093e565b82525050565b600060208201905061098e600083018461096a565b92915050565b60008115159050919050565b6109a981610994565b81146109b457600080fd5b50565b6000815190506109c6816109a0565b92915050565b6000602082840312156109e2576109e1610683565b5b60006109f0848285016109b7565b91505092915050565b7f4552433136350000000000000000000000000000000000000000000000000000600082015250565b6000610a2f600683610855565b9150610a3a826109f9565b602082019050919050565b60006020820190508181036000830152610a5e81610a22565b9050919050565b7f4552433732310000000000000000000000000000000000000000000000000000600082015250565b6000610a9b600683610855565b9150610aa682610a65565b602082019050919050565b60006020820190508181036000830152610aca81610a8e565b9050919050565b61359e80610ae06000396000f3fe6080604052600436106101f25760003560e01c806379ba50971161010d578063a6482858116100a0578063e894fe161161006f578063e894fe1614610680578063ed647d21146106ab578063f2fde38b146106d6578063f7dbea3e146106ff578063f97d927b14610728576101f9565b8063a6482858146105ce578063a6bdcd5c146105f9578063cd1a44db14610617578063de3d9fb714610655576101f9565b80638da5cb5b116100dc5780638da5cb5b146105245780638ea981171461054f5780639eccacf614610578578063a378f371146105a3576101f9565b806379ba5097146104a05780637dbcccfb146104b75780638456cb59146104e25780638bbbbc43146104f9576101f9565b80633f4ba83a11610185578063598bc48611610154578063598bc486146103f85780635c975abb146104235780636bd24cb41461044e57806374baa13114610477576101f9565b80633f4ba83a146103625780634535a3a6146103795780635151804a146103a457806351cff8d9146103cf576101f9565b8063227a14c1116101c1578063227a14c1146102a65780632d509d97146102e3578063331bf1251461030c5780633b7ed73414610337576101f9565b8063041d443e146101fe57806309a31d50146102295780631fe543e3146102545780632164618d1461027d576101f9565b366101f957005b600080fd5b34801561020a57600080fd5b50610213610758565b604051610220919061223d565b60405180910390f35b34801561023557600080fd5b5061023e61075e565b60405161024b91906122d7565b60405180910390f35b34801561026057600080fd5b5061027b600480360381019061027691906123a1565b610784565b005b34801561028957600080fd5b506102a4600480360381019061029f919061243f565b61084a565b005b3480156102b257600080fd5b506102cd60048036038101906102c8919061243f565b6108e0565b6040516102da919061247b565b60405180910390f35b3480156102ef57600080fd5b5061030a600480360381019061030591906125d7565b6108f8565b005b34801561031857600080fd5b506103216109c4565b60405161032e919061223d565b60405180910390f35b34801561034357600080fd5b5061034c6109ce565b604051610359919061263f565b60405180910390f35b34801561036e57600080fd5b506103776109e4565b005b34801561038557600080fd5b5061038e6109f6565b60405161039b919061279b565b60405180910390f35b3480156103b057600080fd5b506103b9610acf565b6040516103c6919061263f565b60405180910390f35b3480156103db57600080fd5b506103f660048036038101906103f191906127fb565b610ae3565b005b34801561040457600080fd5b5061040d610bc3565b60405161041a9190612845565b60405180910390f35b34801561042f57600080fd5b50610438610bd7565b604051610445919061287b565b60405180910390f35b34801561045a57600080fd5b5061047560048036038101906104709190612896565b610bee565b005b34801561048357600080fd5b5061049e60048036038101906104999190612896565b610d3c565b005b3480156104ac57600080fd5b506104b5610d95565b005b3480156104c357600080fd5b506104cc610f2a565b6040516104d9919061247b565b60405180910390f35b3480156104ee57600080fd5b506104f7610f30565b005b34801561050557600080fd5b5061050e610f42565b60405161051b91906128d2565b60405180910390f35b34801561053057600080fd5b50610539610f68565b60405161054691906128d2565b60405180910390f35b34801561055b57600080fd5b506105766004803603810190610571919061243f565b610f91565b005b34801561058457600080fd5b5061058d611172565b60405161059a919061290e565b60405180910390f35b3480156105af57600080fd5b506105b8611198565b6040516105c591906128d2565b60405180910390f35b3480156105da57600080fd5b506105e36111c2565b6040516105f0919061247b565b60405180910390f35b6106016111c8565b60405161060e919061247b565b60405180910390f35b34801561062357600080fd5b5061063e60048036038101906106399190612896565b6111f9565b60405161064c929190612929565b60405180910390f35b34801561066157600080fd5b5061066a61123d565b604051610677919061247b565b60405180910390f35b34801561068c57600080fd5b50610695611247565b6040516106a2919061247b565b60405180910390f35b3480156106b757600080fd5b506106c061124d565b6040516106cd919061247b565b60405180910390f35b3480156106e257600080fd5b506106fd60048036038101906106f8919061243f565b611253565b005b34801561070b57600080fd5b5061072660048036038101906107219190612896565b611267565b005b610742600480360381019061073d9190612896565b6112b0565b60405161074f9190612a10565b60405180910390f35b60055481565b600c60009054906101000a900473ffffffffffffffffffffffffffffffffffffffff1681565b600260009054906101000a900473ffffffffffffffffffffffffffffffffffffffff1673ffffffffffffffffffffffffffffffffffffffff163373ffffffffffffffffffffffffffffffffffffffff161461083a5733600260009054906101000a900473ffffffffffffffffffffffffffffffffffffffff166040517f1cf993f4000000000000000000000000000000000000000000000000000000008152600401610831929190612a32565b60405180910390fd5b6108458383836117d5565b505050565b610852611bd5565b61085b81611c65565b80600b60006101000a81548173ffffffffffffffffffffffffffffffffffffffff021916908373ffffffffffffffffffffffffffffffffffffffff16021790555080600c60006101000a81548173ffffffffffffffffffffffffffffffffffffffff021916908373ffffffffffffffffffffffffffffffffffffffff16021790555050565b600f6020528060005260406000206000915090505481565b610900611bd5565b6007819080600181540180825580915050600190039060005260206000200160009091909190915090816109349190612c5d565b50600160086000600160078054905061094d9190612d5e565b815260200190815260200160002060006101000a81548160ff0219169083151502179055506009600081548092919061098590612d92565b91905055507f1b18c9b19949634ccf90e1a4eb1f0a92bbeab73a5061384d2f97b67c1e9c3de5816040516109b99190612e24565b60405180910390a150565b6000600554905090565b600660009054906101000a900463ffffffff1681565b6109ec611bd5565b6109f4611ec1565b565b60606007805480602002602001604051908101604052809291908181526020016000905b82821015610ac6578382906000526020600020018054610a3990612a8a565b80601f0160208091040260200160405190810160405280929190818152602001828054610a6590612a8a565b8015610ab25780601f10610a8757610100808354040283529160200191610ab2565b820191906000526020600020905b815481529060010190602001808311610a9557829003601f168201915b505050505081526020019060010190610a1a565b50505050905090565b60068054906101000a900463ffffffff1681565b610aeb611bd5565b600047905060008103610b2a576040517fc2caa2a600000000000000000000000000000000000000000000000000000000815260040160405180910390fd5b8173ffffffffffffffffffffffffffffffffffffffff166108fc829081150290604051600060405180830381858888f19350505050158015610b70573d6000803e3d6000fd5b508173ffffffffffffffffffffffffffffffffffffffff167f884edad9ce6fa2440d8a54cc123490eb96d2768479d49ff9c7366125a942436482604051610bb7919061247b565b60405180910390a25050565b600660049054906101000a900461ffff1681565b6000600260149054906101000a900460ff16905090565b610bf6611bd5565b6007805490508110610c3f57806040517fefcd488b000000000000000000000000000000000000000000000000000000008152600401610c36919061247b565b60405180910390fd5b6008600082815260200190815260200160002060009054906101000a900460ff16610ca157806040517f19293108000000000000000000000000000000000000000000000000000000008152600401610c98919061247b565b60405180910390fd5b60006008600083815260200190815260200160002060006101000a81548160ff02191690831515021790555060096000815480929190610ce090612e46565b91905055507f5a751d990ffcd3ece2954f3c3f4fd3f819831d1d9c535bf4a8ce010af1b340a060078281548110610d1a57610d19612e6f565b5b90600052602060002001604051610d319190612f22565b60405180910390a150565b610d44611bd5565b610e10811115610d8b57806040517fc3034e82000000000000000000000000000000000000000000000000000000008152600401610d82919061247b565b60405180910390fd5b8060108190555050565b600160009054906101000a900473ffffffffffffffffffffffffffffffffffffffff1673ffffffffffffffffffffffffffffffffffffffff163373ffffffffffffffffffffffffffffffffffffffff1614610e25576040517f08c379a0000000000000000000000000000000000000000000000000000000008152600401610e1c90612f90565b60405180910390fd5b60008060009054906101000a900473ffffffffffffffffffffffffffffffffffffffff169050336000806101000a81548173ffffffffffffffffffffffffffffffffffffffff021916908373ffffffffffffffffffffffffffffffffffffffff1602179055506000600160006101000a81548173ffffffffffffffffffffffffffffffffffffffff021916908373ffffffffffffffffffffffffffffffffffffffff1602179055503373ffffffffffffffffffffffffffffffffffffffff168173ffffffffffffffffffffffffffffffffffffffff167f8be0079c531659141344cd1fd0a4f28419497f9722a3daafe3b4186f6b6457e060405160405180910390a350565b60105481565b610f38611bd5565b610f40611f24565b565b600b60009054906101000a900473ffffffffffffffffffffffffffffffffffffffff1681565b60008060009054906101000a900473ffffffffffffffffffffffffffffffffffffffff16905090565b610f99610f68565b73ffffffffffffffffffffffffffffffffffffffff163373ffffffffffffffffffffffffffffffffffffffff16141580156110225750600260009054906101000a900473ffffffffffffffffffffffffffffffffffffffff1673ffffffffffffffffffffffffffffffffffffffff163373ffffffffffffffffffffffffffffffffffffffff1614155b156110915733611030610f68565b600260009054906101000a900473ffffffffffffffffffffffffffffffffffffffff166040517f061db9c100000000000000000000000000000000000000000000000000000000815260040161108893929190612fb0565b60405180910390fd5b600073ffffffffffffffffffffffffffffffffffffffff168173ffffffffffffffffffffffffffffffffffffffff16036110f7576040517fd92e233d00000000000000000000000000000000000000000000000000000000815260040160405180910390fd5b80600260006101000a81548173ffffffffffffffffffffffffffffffffffffffff021916908373ffffffffffffffffffffffffffffffffffffffff1602179055507fd1a6a14209a385a964d036e404cb5cfb71f4000cdb03c9366292430787261be68160405161116791906128d2565b60405180910390a150565b600260009054906101000a900473ffffffffffffffffffffffffffffffffffffffff1681565b6000600260009054906101000a900473ffffffffffffffffffffffffffffffffffffffff16905090565b600a5481565b6000806111d560016112b0565b9050806000815181106111eb576111ea612e6f565b5b602002602001015191505090565b600e6020528060005260406000206000915090508060000160009054906101000a900473ffffffffffffffffffffffffffffffffffffffff16908060010154905082565b6000600454905090565b60095481565b60045481565b61125b611bd5565b61126481611f87565b50565b61126f611bd5565b80600a819055507fb7067ae98a5e0e5f401384494b84792febeff300d8c2dcd70c8791864b660d31816040516112a5919061247b565b60405180910390a150565b60606112ba6120b3565b6112c26120f4565b60008214806112d15750600a82115b1561131357816040517fad525a9600000000000000000000000000000000000000000000000000000000815260040161130a919061247b565b60405180910390fd5b600082600a546113239190612fe7565b905080341461136b5734816040517fa292b96d000000000000000000000000000000000000000000000000000000008152600401611362929190613029565b60405180910390fd5b8260095410156113b657826009546040517fba0a76520000000000000000000000000000000000000000000000000000000081526004016113ad929190613029565b60405180910390fd5b601054600f60003373ffffffffffffffffffffffffffffffffffffffff1673ffffffffffffffffffffffffffffffffffffffff168152602001908152602001600020546114039190613052565b42101561149e5742601054600f60003373ffffffffffffffffffffffffffffffffffffffff1673ffffffffffffffffffffffffffffffffffffffff168152602001908152602001600020546114589190613052565b6114629190612d5e565b6040517fb0d5910f000000000000000000000000000000000000000000000000000000008152600401611495919061247b565b60405180910390fd5b42600f60003373ffffffffffffffffffffffffffffffffffffffff1673ffffffffffffffffffffffffffffffffffffffff168152602001908152602001600020819055508267ffffffffffffffff8111156114fc576114fb6124ac565b5b60405190808252806020026020018201604052801561152a5781602001602082028036833780820191505090505b50915060005b838110156117c6576000600d600081548092919061154d90612d92565b9190505590508084838151811061156757611566612e6f565b5b6020026020010181815250503373ffffffffffffffffffffffffffffffffffffffff167f829b852df67cbb2db43aef2060c62af61832e9d4265448bf45e21999445b38f8826040516115b9919061247b565b60405180910390a26000600260009054906101000a900473ffffffffffffffffffffffffffffffffffffffff1673ffffffffffffffffffffffffffffffffffffffff16639b1c385e6040518060c0016040528060055481526020016004548152602001600660049054906101000a900461ffff1661ffff168152602001600660009054906101000a900463ffffffff1663ffffffff16815260200160068054906101000a900463ffffffff1663ffffffff16815260200161168a60405180602001604052806000151581525061213a565b8152506040518263ffffffff1660e01b81526004016116a99190613191565b6020604051808303816000875af11580156116c8573d6000803e3d6000fd5b505050506040513d601f19601f820116820180604052508101906116ec91906131c8565b905060405180604001604052803373ffffffffffffffffffffffffffffffffffffffff16815260200183815250600e600083815260200190815260200160002060008201518160000160006101000a81548173ffffffffffffffffffffffffffffffffffffffff021916908373ffffffffffffffffffffffffffffffffffffffff160217905550602082015181600101559050507f76421cb080d40e8a03ba462b500012451ba59bdebc46694dc458807c1d754b62816040516117af919061247b565b60405180910390a150508080600101915050611530565b50506117d06121d2565b919050565b6000600e60008581526020019081526020016000206040518060400160405290816000820160009054906101000a900473ffffffffffffffffffffffffffffffffffffffff1673ffffffffffffffffffffffffffffffffffffffff1673ffffffffffffffffffffffffffffffffffffffff1681526020016001820154815250509050600073ffffffffffffffffffffffffffffffffffffffff16816000015173ffffffffffffffffffffffffffffffffffffffff16036118c1576040517fba0514c000000000000000000000000000000000000000000000000000000000815260040160405180910390fd5b6000600954036118fd576040517f38c9b2bd00000000000000000000000000000000000000000000000000000000815260040160405180910390fd5b600060095490506000818585600081811061191b5761191a612e6f565b5b9050602002013561192c9190613224565b905060008060005b600780549050811015611992576008600082815260200190815260200160002060009054906101000a900460ff16156119855783820361197657809250611992565b818061198190612d92565b9250505b8080600101915050611934565b5060006008600084815260200190815260200160002060006101000a81548160ff021916908315150217905550600960008154809291906119d290612e46565b91905055506000600783815481106119ed576119ec612e6f565b5b906000526020600020018054611a0290612a8a565b80601f0160208091040260200160405190810160405280929190818152602001828054611a2e90612a8a565b8015611a7b5780601f10611a5057610100808354040283529160200191611a7b565b820191906000526020600020905b815481529060010190602001808311611a5e57829003601f168201915b505050505090506000600c60009054906101000a900473ffffffffffffffffffffffffffffffffffffffff1673ffffffffffffffffffffffffffffffffffffffff1663eacabe148860000151846040518363ffffffff1660e01b8152600401611ae5929190613255565b6020604051808303816000875af1158015611b04573d6000803e3d6000fd5b505050506040513d601f19601f82011682018060405250810190611b2891906131c8565b9050866000015173ffffffffffffffffffffffffffffffffffffffff167fb290f201fc2098d3aff8ca13aac2fb82d00a763eb74476518accd6e663fce99588602001518385604051611b7c93929190613285565b60405180910390a2600e60008b8152602001908152602001600020600080820160006101000a81549073ffffffffffffffffffffffffffffffffffffffff02191690556001820160009055505050505050505050505050565b60008054906101000a900473ffffffffffffffffffffffffffffffffffffffff1673ffffffffffffffffffffffffffffffffffffffff163373ffffffffffffffffffffffffffffffffffffffff1614611c63576040517f08c379a0000000000000000000000000000000000000000000000000000000008152600401611c5a9061330f565b60405180910390fd5b565b600073ffffffffffffffffffffffffffffffffffffffff168173ffffffffffffffffffffffffffffffffffffffff1603611ccb576040517fe6c4247b00000000000000000000000000000000000000000000000000000000815260040160405180910390fd5b6000813b905060008103611d0b576040517f09ee12d500000000000000000000000000000000000000000000000000000000815260040160405180910390fd5b8173ffffffffffffffffffffffffffffffffffffffff166301ffc9a77f01ffc9a7000000000000000000000000000000000000000000000000000000006040518263ffffffff1660e01b8152600401611d64919061336a565b602060405180830381865afa158015611d81573d6000803e3d6000fd5b505050506040513d601f19601f82011682018060405250810190611da591906133b1565b611de4576040517f1a1fdbb0000000000000000000000000000000000000000000000000000000008152600401611ddb9061342a565b60405180910390fd5b8173ffffffffffffffffffffffffffffffffffffffff166301ffc9a77f80ac58cd000000000000000000000000000000000000000000000000000000006040518263ffffffff1660e01b8152600401611e3d919061336a565b602060405180830381865afa158015611e5a573d6000803e3d6000fd5b505050506040513d601f19601f82011682018060405250810190611e7e91906133b1565b611ebd576040517f1a1fdbb0000000000000000000000000000000000000000000000000000000008152600401611eb490613496565b60405180910390fd5b5050565b611ec96121dc565b6000600260146101000a81548160ff0219169083151502179055507f5db9ee0a495bf2e6ff9c91a7834c1ba4fdd244a5e8aa4e537bd38aeae4b073aa611f0d61221c565b604051611f1a91906128d2565b60405180910390a1565b611f2c6120b3565b6001600260146101000a81548160ff0219169083151502179055507f62e78cea01bee320cd4e420270b5ea74000d11b0c9f74754ebdbfc544b05a258611f7061221c565b604051611f7d91906128d2565b60405180910390a1565b3373ffffffffffffffffffffffffffffffffffffffff168173ffffffffffffffffffffffffffffffffffffffff1603611ff5576040517f08c379a0000000000000000000000000000000000000000000000000000000008152600401611fec90613502565b60405180910390fd5b80600160006101000a81548173ffffffffffffffffffffffffffffffffffffffff021916908373ffffffffffffffffffffffffffffffffffffffff1602179055508073ffffffffffffffffffffffffffffffffffffffff1660008054906101000a900473ffffffffffffffffffffffffffffffffffffffff1673ffffffffffffffffffffffffffffffffffffffff167fed8889f560326eb138920d842192f0eb3dd22b4f139c87a2c57538e05bae127860405160405180910390a350565b6120bb610bd7565b156120f2576040517fd93c066500000000000000000000000000000000000000000000000000000000815260040160405180910390fd5b565b600260035403612130576040517f3ee5aeb500000000000000000000000000000000000000000000000000000000815260040160405180910390fd5b6002600381905550565b60607f92fd13387c7fe7befbc38d303d6468778fb9731bc4583f17d92989c6fcfdeaaa8260405160240161216e919061354d565b604051602081830303815290604052907bffffffffffffffffffffffffffffffffffffffffffffffffffffffff19166020820180517bffffffffffffffffffffffffffffffffffffffffffffffffffffffff83818316178352505050509050919050565b6001600381905550565b6121e4610bd7565b61221a576040517f8dfc202b00000000000000000000000000000000000000000000000000000000815260040160405180910390fd5b565b600033905090565b6000819050919050565b61223781612224565b82525050565b6000602082019050612252600083018461222e565b92915050565b600073ffffffffffffffffffffffffffffffffffffffff82169050919050565b6000819050919050565b600061229d61229861229384612258565b612278565b612258565b9050919050565b60006122af82612282565b9050919050565b60006122c1826122a4565b9050919050565b6122d1816122b6565b82525050565b60006020820190506122ec60008301846122c8565b92915050565b6000604051905090565b600080fd5b600080fd5b6000819050919050565b61231981612306565b811461232457600080fd5b50565b60008135905061233681612310565b92915050565b600080fd5b600080fd5b600080fd5b60008083601f8401126123615761236061233c565b5b8235905067ffffffffffffffff81111561237e5761237d612341565b5b60208301915083602082028301111561239a57612399612346565b5b9250929050565b6000806000604084860312156123ba576123b96122fc565b5b60006123c886828701612327565b935050602084013567ffffffffffffffff8111156123e9576123e8612301565b5b6123f58682870161234b565b92509250509250925092565b600061240c82612258565b9050919050565b61241c81612401565b811461242757600080fd5b50565b60008135905061243981612413565b92915050565b600060208284031215612455576124546122fc565b5b60006124638482850161242a565b91505092915050565b61247581612306565b82525050565b6000602082019050612490600083018461246c565b92915050565b600080fd5b6000601f19601f8301169050919050565b7f4e487b7100000000000000000000000000000000000000000000000000000000600052604160045260246000fd5b6124e48261249b565b810181811067ffffffffffffffff82111715612503576125026124ac565b5b80604052505050565b60006125166122f2565b905061252282826124db565b919050565b600067ffffffffffffffff821115612542576125416124ac565b5b61254b8261249b565b9050602081019050919050565b82818337600083830152505050565b600061257a61257584612527565b61250c565b90508281526020810184848401111561259657612595612496565b5b6125a1848285612558565b509392505050565b600082601f8301126125be576125bd61233c565b5b81356125ce848260208601612567565b91505092915050565b6000602082840312156125ed576125ec6122fc565b5b600082013567ffffffffffffffff81111561260b5761260a612301565b5b612617848285016125a9565b91505092915050565b600063ffffffff82169050919050565b61263981612620565b82525050565b60006020820190506126546000830184612630565b92915050565b600081519050919050565b600082825260208201905092915050565b6000819050602082019050919050565b600081519050919050565b600082825260208201905092915050565b60005b838110156126c05780820151818401526020810190506126a5565b60008484015250505050565b60006126d782612686565b6126e18185612691565b93506126f18185602086016126a2565b6126fa8161249b565b840191505092915050565b600061271183836126cc565b905092915050565b6000602082019050919050565b60006127318261265a565b61273b8185612665565b93508360208202850161274d85612676565b8060005b85811015612789578484038952815161276a8582612705565b945061277583612719565b925060208a01995050600181019050612751565b50829750879550505050505092915050565b600060208201905081810360008301526127b58184612726565b905092915050565b60006127c882612258565b9050919050565b6127d8816127bd565b81146127e357600080fd5b50565b6000813590506127f5816127cf565b92915050565b600060208284031215612811576128106122fc565b5b600061281f848285016127e6565b91505092915050565b600061ffff82169050919050565b61283f81612828565b82525050565b600060208201905061285a6000830184612836565b92915050565b60008115159050919050565b61287581612860565b82525050565b6000602082019050612890600083018461286c565b92915050565b6000602082840312156128ac576128ab6122fc565b5b60006128ba84828501612327565b91505092915050565b6128cc81612401565b82525050565b60006020820190506128e760008301846128c3565b92915050565b60006128f8826122a4565b9050919050565b612908816128ed565b82525050565b600060208201905061292360008301846128ff565b92915050565b600060408201905061293e60008301856128c3565b61294b602083018461246c565b9392505050565b600081519050919050565b600082825260208201905092915050565b6000819050602082019050919050565b61298781612306565b82525050565b6000612999838361297e565b60208301905092915050565b6000602082019050919050565b60006129bd82612952565b6129c7818561295d565b93506129d28361296e565b8060005b83811015612a035781516129ea888261298d565b97506129f5836129a5565b9250506001810190506129d6565b5085935050505092915050565b60006020820190508181036000830152612a2a81846129b2565b905092915050565b6000604082019050612a4760008301856128c3565b612a5460208301846128c3565b9392505050565b7f4e487b7100000000000000000000000000000000000000000000000000000000600052602260045260246000fd5b60006002820490506001821680612aa257607f821691505b602082108103612ab557612ab4612a5b565b5b50919050565b60008190508160005260206000209050919050565b60006020601f8301049050919050565b600082821b905092915050565b600060088302612b1d7fffffffffffffffffffffffffffffffffffffffffffffffffffffffffffffffff82612ae0565b612b278683612ae0565b95508019841693508086168417925050509392505050565b6000612b5a612b55612b5084612306565b612278565b612306565b9050919050565b6000819050919050565b612b7483612b3f565b612b88612b8082612b61565b848454612aed565b825550505050565b600090565b612b9d612b90565b612ba8818484612b6b565b505050565b5b81811015612bcc57612bc1600082612b95565b600181019050612bae565b5050565b601f821115612c1157612be281612abb565b612beb84612ad0565b81016020851015612bfa578190505b612c0e612c0685612ad0565b830182612bad565b50505b505050565b600082821c905092915050565b6000612c3460001984600802612c16565b1980831691505092915050565b6000612c4d8383612c23565b9150826002028217905092915050565b612c6682612686565b67ffffffffffffffff811115612c7f57612c7e6124ac565b5b612c898254612a8a565b612c94828285612bd0565b600060209050601f831160018114612cc75760008415612cb5578287015190505b612cbf8582612c41565b865550612d27565b601f198416612cd586612abb565b60005b82811015612cfd57848901518255600182019150602085019450602081019050612cd8565b86831015612d1a5784890151612d16601f891682612c23565b8355505b6001600288020188555050505b505050505050565b7f4e487b7100000000000000000000000000000000000000000000000000000000600052601160045260246000fd5b6000612d6982612306565b9150612d7483612306565b9250828203905081811115612d8c57612d8b612d2f565b5b92915050565b6000612d9d82612306565b91507fffffffffffffffffffffffffffffffffffffffffffffffffffffffffffffffff8203612dcf57612dce612d2f565b5b600182019050919050565b600082825260208201905092915050565b6000612df682612686565b612e008185612dda565b9350612e108185602086016126a2565b612e198161249b565b840191505092915050565b60006020820190508181036000830152612e3e8184612deb565b905092915050565b6000612e5182612306565b915060008203612e6457612e63612d2f565b5b600182039050919050565b7f4e487b7100000000000000000000000000000000000000000000000000000000600052603260045260246000fd5b60008154612eab81612a8a565b612eb58186612dda565b94506001821660008114612ed05760018114612ee657612f19565b60ff198316865281151560200286019350612f19565b612eef85612abb565b60005b83811015612f1157815481890152600182019150602081019050612ef2565b808801955050505b50505092915050565b60006020820190508181036000830152612f3c8184612e9e565b905092915050565b7f4d7573742062652070726f706f736564206f776e657200000000000000000000600082015250565b6000612f7a601683612dda565b9150612f8582612f44565b602082019050919050565b60006020820190508181036000830152612fa981612f6d565b9050919050565b6000606082019050612fc560008301866128c3565b612fd260208301856128c3565b612fdf60408301846128c3565b949350505050565b6000612ff282612306565b9150612ffd83612306565b925082820261300b81612306565b9150828204841483151761302257613021612d2f565b5b5092915050565b600060408201905061303e600083018561246c565b61304b602083018461246c565b9392505050565b600061305d82612306565b915061306883612306565b92508282019050808211156130805761307f612d2f565b5b92915050565b61308f81612224565b82525050565b61309e81612828565b82525050565b6130ad81612620565b82525050565b600081519050919050565b600082825260208201905092915050565b60006130da826130b3565b6130e481856130be565b93506130f48185602086016126a2565b6130fd8161249b565b840191505092915050565b600060c0830160008301516131206000860182613086565b506020830151613133602086018261297e565b5060408301516131466040860182613095565b50606083015161315960608601826130a4565b50608083015161316c60808601826130a4565b5060a083015184820360a086015261318482826130cf565b9150508091505092915050565b600060208201905081810360008301526131ab8184613108565b905092915050565b6000815190506131c281612310565b92915050565b6000602082840312156131de576131dd6122fc565b5b60006131ec848285016131b3565b91505092915050565b7f4e487b7100000000000000000000000000000000000000000000000000000000600052601260045260246000fd5b600061322f82612306565b915061323a83612306565b92508261324a576132496131f5565b5b828206905092915050565b600060408201905061326a60008301856128c3565b818103602083015261327c8184612deb565b90509392505050565b600060608201905061329a600083018661246c565b6132a7602083018561246c565b81810360408301526132b98184612deb565b9050949350505050565b7f4f6e6c792063616c6c61626c65206279206f776e657200000000000000000000600082015250565b60006132f9601683612dda565b9150613304826132c3565b602082019050919050565b60006020820190508181036000830152613328816132ec565b9050919050565b60007fffffffff0000000000000000000000000000000000000000000000000000000082169050919050565b6133648161332f565b82525050565b600060208201905061337f600083018461335b565b92915050565b61338e81612860565b811461339957600080fd5b50565b6000815190506133ab81613385565b92915050565b6000602082840312156133c7576133c66122fc565b5b60006133d58482850161339c565b91505092915050565b7f4552433136350000000000000000000000000000000000000000000000000000600082015250565b6000613414600683612dda565b915061341f826133de565b602082019050919050565b6000602082019050818103600083015261344381613407565b9050919050565b7f4552433732310000000000000000000000000000000000000000000000000000600082015250565b6000613480600683612dda565b915061348b8261344a565b602082019050919050565b600060208201905081810360008301526134af81613473565b9050919050565b7f43616e6e6f74207472616e7366657220746f2073656c66000000000000000000600082015250565b60006134ec601783612dda565b91506134f7826134b6565b602082019050919050565b6000602082019050818103600083015261351b816134df565b9050919050565b61352b81612860565b82525050565b6020820160008201516135476000850182613522565b50505050565b60006020820190506135626000830184613531565b9291505056fea26469706673582212205fb541a345260e542bcafc36486d6e5ddacb59f9e85193acfa33bec83337ddbe64736f6c634300081c0033",
  "linkReferences": {},
  "deployedLinkReferences": {}
}