{
  "_format": "hh-sol-artifact-1",
  "contractName": "SimpleRoyaltyMarketplace",
  "sourceName": "contracts/Marketplace.sol",
  "abi": [
    {
      "inputs": [],
      "stateMutability": "nonpayable",
      "type": "constructor"
    },
    {
      "inputs": [],
      "name": "FailedCall",
      "type": "error"
    },
    {
      "inputs": [
        {
          "internalType": "uint256",
          "name": "balance",
          "type": "uint256"
        },
        {
          "internalType": "uint256",
          "name": "needed",
          "type": "uint256"
        }
      ],
      "name": "InsufficientBalance",
      "type": "error"
    },
    {
      "inputs": [
        {
          "internalType": "address",
          "name": "owner",
          "type": "address"
        }
      ],
      "name": "OwnableInvalidOwner",
      "type": "error"
    },
    {
      "inputs": [
        {
          "internalType": "address",
          "name": "account",
          "type": "address"
        }
      ],
      "name": "OwnableUnauthorizedAccount",
      "type": "error"
    },
    {
      "inputs": [],
      "name": "ReentrancyGuardReentrantCall",
      "type": "error"
    },
    {
      "anonymous": false,
      "inputs": [
        {
          "indexed": true,
          "internalType": "address",
          "name": "nft",
          "type": "address"
        },
        {
          "indexed": true,
          "internalType": "uint256",
          "name": "tokenId",
          "type": "uint256"
        }
      ],
      "name": "Cancelled",
      "type": "event"
    },
    {
      "anonymous": false,
      "inputs": [
        {
          "indexed": true,
          "internalType": "address",
          "name": "nft",
          "type": "address"
        },
        {
          "indexed": true,
          "internalType": "uint256",
          "name": "tokenId",
          "type": "uint256"
        },
        {
          "indexed": true,
          "internalType": "address",
          "name": "seller",
          "type": "address"
        },
        {
          "indexed": false,
          "internalType": "uint256",
          "name": "price",
          "type": "uint256"
        }
      ],
      "name": "Listed",
      "type": "event"
    },
    {
      "anonymous": false,
      "inputs": [
        {
          "indexed": true,
          "internalType": "address",
          "name": "previousOwner",
          "type": "address"
        },
        {
          "indexed": true,
          "internalType": "address",
          "name": "newOwner",
          "type": "address"
        }
      ],
      "name": "OwnershipTransferred",
      "type": "event"
    },
    {
      "anonymous": false,
      "inputs": [
        {
          "indexed": true,
          "internalType": "address",
          "name": "nft",
          "type": "address"
        },
        {
          "indexed": true,
          "internalType": "uint256",
          "name": "tokenId",
          "type": "uint256"
        },
        {
          "indexed": false,
          "internalType": "uint256",
          "name": "price",
          "type": "uint256"
        }
      ],
      "name": "PriceUpdated",
      "type": "event"
    },
    {
      "anonymous": false,
      "inputs": [
        {
          "indexed": true,
          "internalType": "address",
          "name": "nft",
          "type": "address"
        },
        {
          "indexed": true,
          "internalType": "uint256",
          "name": "tokenId",
          "type": "uint256"
        },
        {
          "indexed": true,
          "internalType": "address",
          "name": "buyer",
          "type": "address"
        },
        {
          "indexed": false,
          "internalType": "address",
          "name": "seller",
          "type": "address"
        },
        {
          "indexed": false,
          "internalType": "uint256",
          "name": "price",
          "type": "uint256"
        },
        {
          "indexed": false,
          "internalType": "uint256",
          "name": "organizerAmount",
          "type": "uint256"
        },
        {
          "indexed": false,
          "internalType": "uint256",
          "name": "platformAmount",
          "type": "uint256"
        },
        {
          "indexed": false,
          "internalType": "uint256",
          "name": "sellerProceeds",
          "type": "uint256"
        }
      ],
      "name": "Purchased",
      "type": "event"
    },
    {
      "inputs": [],
      "name": "ORGANIZER_PROFIT_BPS",
      "outputs": [
        {
          "internalType": "uint96",
          "name": "",
          "type": "uint96"
        }
      ],
      "stateMutability": "view",
      "type": "function"
    },
    {
      "inputs": [],
      "name": "PLATFORM_PROFIT_BPS",
      "outputs": [
        {
          "internalType": "uint96",
          "name": "",
          "type": "uint96"
        }
      ],
      "stateMutability": "view",
      "type": "function"
    },
    {
      "inputs": [],
      "name": "PRICE_CAP_MULTIPLE",
      "outputs": [
        {
          "internalType": "uint256",
          "name": "",
          "type": "uint256"
        }
      ],
      "stateMutability": "view",
      "type": "function"
    },
    {
      "inputs": [
        {
          "internalType": "address",
          "name": "nft",
          "type": "address"
        },
        {
          "internalType": "uint256",
          "name": "tokenId",
          "type": "uint256"
        }
      ],
      "name": "buy",
      "outputs": [],
      "stateMutability": "payable",
      "type": "function"
    },
    {
      "inputs": [
        {
          "internalType": "address",
          "name": "nft",
          "type": "address"
        },
        {
          "internalType": "uint256",
          "name": "tokenId",
          "type": "uint256"
        }
      ],
      "name": "cancel",
      "outputs": [],
      "stateMutability": "nonpayable",
      "type": "function"
    },
    {
      "inputs": [
        {
          "internalType": "address",
          "name": "",
          "type": "address"
        },
        {
          "internalType": "uint256",
          "name": "",
          "type": "uint256"
        }
      ],
      "name": "lastPricePaidWei",
      "outputs": [
        {
          "internalType": "uint256",
          "name": "",
          "type": "uint256"
        }
      ],
      "stateMutability": "view",
      "type": "function"
    },
    {
      "inputs": [
        {
          "internalType": "address",
          "name": "nft",
          "type": "address"
        },
        {
          "internalType": "uint256",
          "name": "tokenId",
          "type": "uint256"
        },
        {
          "internalType": "uint256",
          "name": "price",
          "type": "uint256"
        }
      ],
      "name": "list",
      "outputs": [],
      "stateMutability": "nonpayable",
      "type": "function"
    },
    {
      "inputs": [
        {
          "internalType": "address",
          "name": "",
          "type": "address"
        },
        {
          "internalType": "uint256",
          "name": "",
          "type": "uint256"
        }
      ],
      "name": "listings",
      "outputs": [
        {
          "internalType": "address",
          "name": "seller",
          "type": "address"
        },
        {
          "internalType": "uint256",
          "name": "price",
          "type": "uint256"
        }
      ],
      "stateMutability": "view",
      "type": "function"
    },
    {
      "inputs": [
        {
          "internalType": "address",
          "name": "",
          "type": "address"
        }
      ],
      "name": "organizerOf",
      "outputs": [
        {
          "internalType": "address",
          "name": "",
          "type": "address"
        }
      ],
      "stateMutability": "view",
      "type": "function"
    },
    {
      "inputs": [],
      "name": "owner",
      "outputs": [
        {
          "internalType": "address",
          "name": "",
          "type": "address"
        }
      ],
      "stateMutability": "view",
      "type": "function"
    },
    {
      "inputs": [],
      "name": "platformTreasury",
      "outputs": [
        {
          "internalType": "address",
          "name": "",
          "type": "address"
        }
      ],
      "stateMutability": "view",
      "type": "function"
    },
    {
      "inputs": [],
      "name": "renounceOwnership",
      "outputs": [],
      "stateMutability": "nonpayable",
      "type": "function"
    },
    {
      "inputs": [
        {
          "internalType": "address payable",
          "name": "to",
          "type": "address"
        },
        {
          "internalType": "uint256",
          "name": "amount",
          "type": "uint256"
        }
      ],
      "name": "rescueETH",
      "outputs": [],
      "stateMutability": "nonpayable",
      "type": "function"
    },
    {
      "inputs": [
        {
          "internalType": "address",
          "name": "nft",
          "type": "address"
        },
        {
          "internalType": "uint256",
          "name": "tokenId",
          "type": "uint256"
        },
        {
          "internalType": "uint256",
          "name": "priceWei",
          "type": "uint256"
        }
      ],
      "name": "setInitialPrice",
      "outputs": [],
      "stateMutability": "nonpayable",
      "type": "function"
    },
    {
      "inputs": [
        {
          "internalType": "address",
          "name": "nft",
          "type": "address"
        },
        {
          "internalType": "address",
          "name": "organizer",
          "type": "address"
        }
      ],
      "name": "setOrganizer",
      "outputs": [],
      "stateMutability": "nonpayable",
      "type": "function"
    },
    {
      "inputs": [
        {
          "internalType": "address",
          "name": "treasury",
          "type": "address"
        }
      ],
      "name": "setPlatformTreasury",
      "outputs": [],
      "stateMutability": "nonpayable",
      "type": "function"
    },
    {
      "inputs": [
        {
          "internalType": "address",
          "name": "newOwner",
          "type": "address"
        }
      ],
      "name": "transferOwnership",
      "outputs": [],
      "stateMutability": "nonpayable",
      "type": "function"
    },
    {
      "inputs": [
        {
          "internalType": "address",
          "name": "nft",
          "type": "address"
        },
        {
          "internalType": "uint256",
          "name": "tokenId",
          "type": "uint256"
        },
        {
          "internalType": "uint256",
          "name": "newPrice",
          "type": "uint256"
        }
      ],
      "name": "updatePrice",
      "outputs": [],
      "stateMutability": "nonpayable",
      "type": "function"
    }
  ],
  "bytecode": "0x608060405234801561001057600080fd5b50336001600081905550600073ffffffffffffffffffffffffffffffffffffffff168173ffffffffffffffffffffffffffffffffffffffff160361008c5760006040517f1e4fbdf700000000000000000000000000000000000000000000000000000000815260040161008391906101e9565b60405180910390fd5b61009b816100e260201b60201c565b5033600560006101000a81548173ffffffffffffffffffffffffffffffffffffffff021916908373ffffffffffffffffffffffffffffffffffffffff160217905550610204565b6000600160009054906101000a900473ffffffffffffffffffffffffffffffffffffffff16905081600160006101000a81548173ffffffffffffffffffffffffffffffffffffffff021916908373ffffffffffffffffffffffffffffffffffffffff1602179055508173ffffffffffffffffffffffffffffffffffffffff168173ffffffffffffffffffffffffffffffffffffffff167f8be0079c531659141344cd1fd0a4f28419497f9722a3daafe3b4186f6b6457e060405160405180910390a35050565b600073ffffffffffffffffffffffffffffffffffffffff82169050919050565b60006101d3826101a8565b9050919050565b6101e3816101c8565b82525050565b60006020820190506101fe60008301846101da565b92915050565b612c07806102136000396000f3fe6080604052600436106101085760003560e01c80638da5cb5b11610095578063cce7ec1311610064578063cce7ec1314610355578063dda342bb14610371578063e138818c1461039a578063e57d6fb7146103c5578063f2fde38b146103ee57610108565b80638da5cb5b146102ad57806398590ef9146102d8578063be9b603014610301578063cabdc8211461032c57610108565b80633935a71c116100dc5780633935a71c146101dc5780634ce2456814610205578063532a3bb914610230578063715018a61461026d5780637cd86d601461028457610108565b806207df301461010d578063099a04e51461014b5780630c3f2dc21461017457806323826ce61461019f575b600080fd5b34801561011957600080fd5b50610134600480360381019061012f9190612061565b610417565b6040516101429291906120bf565b60405180910390f35b34801561015757600080fd5b50610172600480360381019061016d9190612126565b610468565b005b34801561018057600080fd5b5061018961049d565b604051610196919061218d565b60405180910390f35b3480156101ab57600080fd5b506101c660048036038101906101c191906121a8565b6104a3565b6040516101d391906121d5565b60405180910390f35b3480156101e857600080fd5b5061020360048036038101906101fe91906121f0565b6104d6565b005b34801561021157600080fd5b5061021a61060e565b604051610227919061218d565b60405180910390f35b34801561023c57600080fd5b5061025760048036038101906102529190612061565b610614565b6040516102649190612243565b60405180910390f35b34801561027957600080fd5b50610282610639565b005b34801561029057600080fd5b506102ab60048036038101906102a691906121a8565b61064d565b005b3480156102b957600080fd5b506102c2610699565b6040516102cf91906121d5565b60405180910390f35b3480156102e457600080fd5b506102ff60048036038101906102fa9190612061565b6106c3565b005b34801561030d57600080fd5b50610316610942565b6040516103239190612243565b60405180910390f35b34801561033857600080fd5b50610353600480360381019061034e919061225e565b610947565b005b61036f600480360381019061036a9190612061565b6109d1565b005b34801561037d57600080fd5b50610398600480360381019061039391906121f0565b611485565b005b3480156103a657600080fd5b506103af611957565b6040516103bc91906121d5565b60405180910390f35b3480156103d157600080fd5b506103ec60048036038101906103e791906121f0565b61197d565b005b3480156103fa57600080fd5b50610415600480360381019061041091906121a8565b611c8f565b005b6002602052816000526040600020602052806000526040600020600091509150508060000160009054906101000a900473ffffffffffffffffffffffffffffffffffffffff16908060010154905082565b610470611d15565b610499818373ffffffffffffffffffffffffffffffffffffffff16611d9c90919063ffffffff16565b5050565b6103e881565b60046020528060005260406000206000915054906101000a900473ffffffffffffffffffffffffffffffffffffffff1681565b6104de611d15565b60008111610521576040517f08c379a0000000000000000000000000000000000000000000000000000000008152600401610518906122fb565b60405180910390fd5b6000600360008573ffffffffffffffffffffffffffffffffffffffff1673ffffffffffffffffffffffffffffffffffffffff168152602001908152602001600020600084815260200190815260200160002054146105b4576040517f08c379a00000000000000000000000000000000000000000000000000000000081526004016105ab90612367565b60405180910390fd5b80600360008573ffffffffffffffffffffffffffffffffffffffff1673ffffffffffffffffffffffffffffffffffffffff168152602001908152602001600020600084815260200190815260200160002081905550505050565b610fa081565b6003602052816000526040600020602052806000526040600020600091509150505481565b610641611d15565b61064b6000611e66565b565b610655611d15565b80600560006101000a81548173ffffffffffffffffffffffffffffffffffffffff021916908373ffffffffffffffffffffffffffffffffffffffff16021790555050565b6000600160009054906101000a900473ffffffffffffffffffffffffffffffffffffffff16905090565b6106cb611f2c565b6000600260008473ffffffffffffffffffffffffffffffffffffffff1673ffffffffffffffffffffffffffffffffffffffff16815260200190815260200160002060008381526020019081526020016000206040518060400160405290816000820160009054906101000a900473ffffffffffffffffffffffffffffffffffffffff1673ffffffffffffffffffffffffffffffffffffffff1673ffffffffffffffffffffffffffffffffffffffff1681526020016001820154815250509050600073ffffffffffffffffffffffffffffffffffffffff16816000015173ffffffffffffffffffffffffffffffffffffffff16036107fd576040517f08c379a00000000000000000000000000000000000000000000000000000000081526004016107f4906123d3565b60405180910390fd5b806000015173ffffffffffffffffffffffffffffffffffffffff163373ffffffffffffffffffffffffffffffffffffffff161461086f576040517f08c379a00000000000000000000000000000000000000000000000000000000081526004016108669061243f565b60405180910390fd5b600260008473ffffffffffffffffffffffffffffffffffffffff1673ffffffffffffffffffffffffffffffffffffffff1681526020019081526020016000206000838152602001908152602001600020600080820160006101000a81549073ffffffffffffffffffffffffffffffffffffffff021916905560018201600090555050818373ffffffffffffffffffffffffffffffffffffffff167f36ea5cd5608625e789af0282eecdb4eae1cb7c1cf6d0ec3f9a84f35be850260b60405160405180910390a35061093e611f72565b5050565b600281565b61094f611d15565b80600460008473ffffffffffffffffffffffffffffffffffffffff1673ffffffffffffffffffffffffffffffffffffffff16815260200190815260200160002060006101000a81548173ffffffffffffffffffffffffffffffffffffffff021916908373ffffffffffffffffffffffffffffffffffffffff1602179055505050565b6109d9611f2c565b6000600260008473ffffffffffffffffffffffffffffffffffffffff1673ffffffffffffffffffffffffffffffffffffffff16815260200190815260200160002060008381526020019081526020016000206040518060400160405290816000820160009054906101000a900473ffffffffffffffffffffffffffffffffffffffff1673ffffffffffffffffffffffffffffffffffffffff1673ffffffffffffffffffffffffffffffffffffffff1681526020016001820154815250509050600073ffffffffffffffffffffffffffffffffffffffff16816000015173ffffffffffffffffffffffffffffffffffffffff1603610b0b576040517f08c379a0000000000000000000000000000000000000000000000000000000008152600401610b02906123d3565b60405180910390fd5b80602001513414610b51576040517f08c379a0000000000000000000000000000000000000000000000000000000008152600401610b48906124ab565b60405180910390fd5b600083905060008173ffffffffffffffffffffffffffffffffffffffff16636352211e856040518263ffffffff1660e01b8152600401610b919190612243565b602060405180830381865afa158015610bae573d6000803e3d6000fd5b505050506040513d601f19601f82011682018060405250810190610bd291906124e0565b9050826000015173ffffffffffffffffffffffffffffffffffffffff168173ffffffffffffffffffffffffffffffffffffffff1614610c46576040517f08c379a0000000000000000000000000000000000000000000000000000000008152600401610c3d90612559565b60405180910390fd5b3073ffffffffffffffffffffffffffffffffffffffff168273ffffffffffffffffffffffffffffffffffffffff1663081812fc866040518263ffffffff1660e01b8152600401610c969190612243565b602060405180830381865afa158015610cb3573d6000803e3d6000fd5b505050506040513d601f19601f82011682018060405250810190610cd791906124e0565b73ffffffffffffffffffffffffffffffffffffffff161480610d7157508173ffffffffffffffffffffffffffffffffffffffff1663e985e9c582306040518363ffffffff1660e01b8152600401610d2f929190612579565b602060405180830381865afa158015610d4c573d6000803e3d6000fd5b505050506040513d601f19601f82011682018060405250810190610d7091906125da565b5b610db0576040517f08c379a0000000000000000000000000000000000000000000000000000000008152600401610da790612653565b60405180910390fd5b6000600460008773ffffffffffffffffffffffffffffffffffffffff1673ffffffffffffffffffffffffffffffffffffffff16815260200190815260200160002060009054906101000a900473ffffffffffffffffffffffffffffffffffffffff169050600073ffffffffffffffffffffffffffffffffffffffff168173ffffffffffffffffffffffffffffffffffffffff1603610e83576040517f08c379a0000000000000000000000000000000000000000000000000000000008152600401610e7a906126bf565b60405180910390fd5b600260008773ffffffffffffffffffffffffffffffffffffffff1673ffffffffffffffffffffffffffffffffffffffff1681526020019081526020016000206000868152602001908152602001600020600080820160006101000a81549073ffffffffffffffffffffffffffffffffffffffff0219169055600182016000905550506000600360008873ffffffffffffffffffffffffffffffffffffffff1673ffffffffffffffffffffffffffffffffffffffff168152602001908152602001600020600087815260200190815260200160002054905060008111610f9d576040517f08c379a0000000000000000000000000000000000000000000000000000000008152600401610f949061272b565b60405180910390fd5b600281610faa919061277a565b85602001511115610ff0576040517f08c379a0000000000000000000000000000000000000000000000000000000008152600401610fe790612808565b60405180910390fd5b600081866020015111611004576000611015565b8186602001516110149190612828565b5b90506000612710610fa06bffffffffffffffffffffffff1683611038919061277a565b611042919061288b565b905060006127106103e86bffffffffffffffffffffffff1684611065919061277a565b61106f919061288b565b9050600081838a602001516110849190612828565b61108e9190612828565b90508773ffffffffffffffffffffffffffffffffffffffff166342842e0e88338d6040518463ffffffff1660e01b81526004016110cd939291906128bc565b600060405180830381600087803b1580156110e757600080fd5b505af11580156110fb573d6000803e3d6000fd5b5050505060008311156111b65760008673ffffffffffffffffffffffffffffffffffffffff168460405161112e90612924565b60006040518083038185875af1925050503d806000811461116b576040519150601f19603f3d011682016040523d82523d6000602084013e611170565b606091505b50509050806111b4576040517f08c379a00000000000000000000000000000000000000000000000000000000081526004016111ab90612985565b60405180910390fd5b505b60008211156112f85760008073ffffffffffffffffffffffffffffffffffffffff16600560009054906101000a900473ffffffffffffffffffffffffffffffffffffffff1673ffffffffffffffffffffffffffffffffffffffff161461123e57600560009054906101000a900473ffffffffffffffffffffffffffffffffffffffff16611247565b611246610699565b5b905060008173ffffffffffffffffffffffffffffffffffffffff168460405161126f90612924565b60006040518083038185875af1925050503d80600081146112ac576040519150601f19603f3d011682016040523d82523d6000602084013e6112b1565b606091505b50509050806112f5576040517f08c379a00000000000000000000000000000000000000000000000000000000081526004016112ec906129f1565b60405180910390fd5b50505b60008773ffffffffffffffffffffffffffffffffffffffff168260405161131e90612924565b60006040518083038185875af1925050503d806000811461135b576040519150601f19603f3d011682016040523d82523d6000602084013e611360565b606091505b50509050806113a4576040517f08c379a000000000000000000000000000000000000000000000000000000000815260040161139b90612a5d565b60405180910390fd5b8960200151600360008e73ffffffffffffffffffffffffffffffffffffffff1673ffffffffffffffffffffffffffffffffffffffff16815260200190815260200160002060008d8152602001908152602001600020819055503373ffffffffffffffffffffffffffffffffffffffff168b8d73ffffffffffffffffffffffffffffffffffffffff167f3071d9b67c525b18f1a0765674c497ef6a0de88a40af04f4eeb69bc1582300dd8b8e60200151898989604051611467959493929190612a7d565b60405180910390a450505050505050505050611481611f72565b5050565b61148d611f2c565b600081116114d0576040517f08c379a00000000000000000000000000000000000000000000000000000000081526004016114c790612b1c565b60405180910390fd5b600083905060008173ffffffffffffffffffffffffffffffffffffffff16636352211e856040518263ffffffff1660e01b81526004016115109190612243565b602060405180830381865afa15801561152d573d6000803e3d6000fd5b505050506040513d601f19601f8201168201806040525081019061155191906124e0565b90508073ffffffffffffffffffffffffffffffffffffffff163373ffffffffffffffffffffffffffffffffffffffff16146115c1576040517f08c379a00000000000000000000000000000000000000000000000000000000081526004016115b890612b88565b60405180910390fd5b3073ffffffffffffffffffffffffffffffffffffffff168273ffffffffffffffffffffffffffffffffffffffff1663081812fc866040518263ffffffff1660e01b81526004016116119190612243565b602060405180830381865afa15801561162e573d6000803e3d6000fd5b505050506040513d601f19601f8201168201806040525081019061165291906124e0565b73ffffffffffffffffffffffffffffffffffffffff1614806116ec57508173ffffffffffffffffffffffffffffffffffffffff1663e985e9c582306040518363ffffffff1660e01b81526004016116aa929190612579565b602060405180830381865afa1580156116c7573d6000803e3d6000fd5b505050506040513d601f19601f820116820180604052508101906116eb91906125da565b5b61172b576040517f08c379a000000000000000000000000000000000000000000000000000000000815260040161172290612653565b60405180910390fd5b6000600360008773ffffffffffffffffffffffffffffffffffffffff1673ffffffffffffffffffffffffffffffffffffffff1681526020019081526020016000206000868152602001908152602001600020549050600081116117c3576040517f08c379a00000000000000000000000000000000000000000000000000000000081526004016117ba9061272b565b60405180910390fd5b6002816117d0919061277a565b841115611812576040517f08c379a000000000000000000000000000000000000000000000000000000000815260040161180990612808565b60405180910390fd5b60405180604001604052808373ffffffffffffffffffffffffffffffffffffffff16815260200185815250600260008873ffffffffffffffffffffffffffffffffffffffff1673ffffffffffffffffffffffffffffffffffffffff168152602001908152602001600020600087815260200190815260200160002060008201518160000160006101000a81548173ffffffffffffffffffffffffffffffffffffffff021916908373ffffffffffffffffffffffffffffffffffffffff160217905550602082015181600101559050508173ffffffffffffffffffffffffffffffffffffffff16858773ffffffffffffffffffffffffffffffffffffffff167f8b06cda60618abf2b2d07227f9dd63ec6349ca3269ce0eb18d49122a48362ad88760405161193f9190612243565b60405180910390a4505050611952611f72565b505050565b600560009054906101000a900473ffffffffffffffffffffffffffffffffffffffff1681565b611985611f2c565b600081116119c8576040517f08c379a00000000000000000000000000000000000000000000000000000000081526004016119bf90612b1c565b60405180910390fd5b6000600260008573ffffffffffffffffffffffffffffffffffffffff1673ffffffffffffffffffffffffffffffffffffffff16815260200190815260200160002060008481526020019081526020016000209050600073ffffffffffffffffffffffffffffffffffffffff168160000160009054906101000a900473ffffffffffffffffffffffffffffffffffffffff1673ffffffffffffffffffffffffffffffffffffffff1603611aaf576040517f08c379a0000000000000000000000000000000000000000000000000000000008152600401611aa6906123d3565b60405180910390fd5b8060000160009054906101000a900473ffffffffffffffffffffffffffffffffffffffff1673ffffffffffffffffffffffffffffffffffffffff163373ffffffffffffffffffffffffffffffffffffffff1614611b41576040517f08c379a0000000000000000000000000000000000000000000000000000000008152600401611b389061243f565b60405180910390fd5b6000600360008673ffffffffffffffffffffffffffffffffffffffff1673ffffffffffffffffffffffffffffffffffffffff168152602001908152602001600020600085815260200190815260200160002054905060008111611bd9576040517f08c379a0000000000000000000000000000000000000000000000000000000008152600401611bd09061272b565b60405180910390fd5b600281611be6919061277a565b831115611c28576040517f08c379a0000000000000000000000000000000000000000000000000000000008152600401611c1f90612808565b60405180910390fd5b828260010181905550838573ffffffffffffffffffffffffffffffffffffffff167fb556fac599c3c70efb9ab1fa725ecace6c81cc48d1455f886607def065f3e0c085604051611c789190612243565b60405180910390a35050611c8a611f72565b505050565b611c97611d15565b600073ffffffffffffffffffffffffffffffffffffffff168173ffffffffffffffffffffffffffffffffffffffff1603611d095760006040517f1e4fbdf7000000000000000000000000000000000000000000000000000000008152600401611d0091906121d5565b60405180910390fd5b611d1281611e66565b50565b611d1d611f7c565b73ffffffffffffffffffffffffffffffffffffffff16611d3b610699565b73ffffffffffffffffffffffffffffffffffffffff1614611d9a57611d5e611f7c565b6040517f118cdaa7000000000000000000000000000000000000000000000000000000008152600401611d9191906121d5565b60405180910390fd5b565b80471015611de35747816040517fcf479181000000000000000000000000000000000000000000000000000000008152600401611dda929190612ba8565b60405180910390fd5b6000808373ffffffffffffffffffffffffffffffffffffffff1683604051611e0a90612924565b60006040518083038185875af1925050503d8060008114611e47576040519150601f19603f3d011682016040523d82523d6000602084013e611e4c565b606091505b509150915081611e6057611e5f81611f84565b5b50505050565b6000600160009054906101000a900473ffffffffffffffffffffffffffffffffffffffff16905081600160006101000a81548173ffffffffffffffffffffffffffffffffffffffff021916908373ffffffffffffffffffffffffffffffffffffffff1602179055508173ffffffffffffffffffffffffffffffffffffffff168173ffffffffffffffffffffffffffffffffffffffff167f8be0079c531659141344cd1fd0a4f28419497f9722a3daafe3b4186f6b6457e060405160405180910390a35050565b600260005403611f68576040517f3ee5aeb500000000000000000000000000000000000000000000000000000000815260040160405180910390fd5b6002600081905550565b6001600081905550565b600033905090565b600081511115611f9657805160208201fd5b6040517fd6bda27500000000000000000000000000000000000000000000000000000000815260040160405180910390fd5b600080fd5b600073ffffffffffffffffffffffffffffffffffffffff82169050919050565b6000611ff882611fcd565b9050919050565b61200881611fed565b811461201357600080fd5b50565b60008135905061202581611fff565b92915050565b6000819050919050565b61203e8161202b565b811461204957600080fd5b50565b60008135905061205b81612035565b92915050565b6000806040838503121561207857612077611fc8565b5b600061208685828601612016565b92505060206120978582860161204c565b9150509250929050565b6120aa81611fed565b82525050565b6120b98161202b565b82525050565b60006040820190506120d460008301856120a1565b6120e160208301846120b0565b9392505050565b60006120f382611fcd565b9050919050565b612103816120e8565b811461210e57600080fd5b50565b600081359050612120816120fa565b92915050565b6000806040838503121561213d5761213c611fc8565b5b600061214b85828601612111565b925050602061215c8582860161204c565b9150509250929050565b60006bffffffffffffffffffffffff82169050919050565b61218781612166565b82525050565b60006020820190506121a2600083018461217e565b92915050565b6000602082840312156121be576121bd611fc8565b5b60006121cc84828501612016565b91505092915050565b60006020820190506121ea60008301846120a1565b92915050565b60008060006060848603121561220957612208611fc8565b5b600061221786828701612016565b93505060206122288682870161204c565b92505060406122398682870161204c565b9150509250925092565b600060208201905061225860008301846120b0565b92915050565b6000806040838503121561227557612274611fc8565b5b600061228385828601612016565b925050602061229485828601612016565b9150509250929050565b600082825260208201905092915050565b7f70726963653d3000000000000000000000000000000000000000000000000000600082015250565b60006122e560078361229e565b91506122f0826122af565b602082019050919050565b60006020820190508181036000830152612314816122d8565b9050919050565b7f416c726561647920736574000000000000000000000000000000000000000000600082015250565b6000612351600b8361229e565b915061235c8261231b565b602082019050919050565b6000602082019050818103600083015261238081612344565b9050919050565b7f4e6f74206c697374656400000000000000000000000000000000000000000000600082015250565b60006123bd600a8361229e565b91506123c882612387565b602082019050919050565b600060208201905081810360008301526123ec816123b0565b9050919050565b7f4f6e6c792073656c6c6572000000000000000000000000000000000000000000600082015250565b6000612429600b8361229e565b9150612434826123f3565b602082019050919050565b600060208201905081810360008301526124588161241c565b9050919050565b7f496e636f7272656374204554482073656e740000000000000000000000000000600082015250565b600061249560128361229e565b91506124a08261245f565b602082019050919050565b600060208201905081810360008301526124c481612488565b9050919050565b6000815190506124da81611fff565b92915050565b6000602082840312156124f6576124f5611fc8565b5b6000612504848285016124cb565b91505092915050565b7f53656c6c6572206e6f206c6f6e676572206f776e657200000000000000000000600082015250565b600061254360168361229e565b915061254e8261250d565b602082019050919050565b6000602082019050818103600083015261257281612536565b9050919050565b600060408201905061258e60008301856120a1565b61259b60208301846120a1565b9392505050565b60008115159050919050565b6125b7816125a2565b81146125c257600080fd5b50565b6000815190506125d4816125ae565b92915050565b6000602082840312156125f0576125ef611fc8565b5b60006125fe848285016125c5565b91505092915050565b7f4d61726b6574706c616365206e6f7420617070726f7665640000000000000000600082015250565b600061263d60188361229e565b915061264882612607565b602082019050919050565b6000602082019050818103600083015261266c81612630565b9050919050565b7f4f7267616e697a6572206e6f7420736574000000000000000000000000000000600082015250565b60006126a960118361229e565b91506126b482612673565b602082019050919050565b600060208201905081810360008301526126d88161269c565b9050919050565b7f42617365207072696365206e6f74207365740000000000000000000000000000600082015250565b600061271560128361229e565b9150612720826126df565b602082019050919050565b6000602082019050818103600083015261274481612708565b9050919050565b7f4e487b7100000000000000000000000000000000000000000000000000000000600052601160045260246000fd5b60006127858261202b565b91506127908361202b565b925082820261279e8161202b565b915082820484148315176127b5576127b461274b565b5b5092915050565b7f4f76657220327820636170000000000000000000000000000000000000000000600082015250565b60006127f2600b8361229e565b91506127fd826127bc565b602082019050919050565b60006020820190508181036000830152612821816127e5565b9050919050565b60006128338261202b565b915061283e8361202b565b92508282039050818111156128565761285561274b565b5b92915050565b7f4e487b7100000000000000000000000000000000000000000000000000000000600052601260045260246000fd5b60006128968261202b565b91506128a18361202b565b9250826128b1576128b061285c565b5b828204905092915050565b60006060820190506128d160008301866120a1565b6128de60208301856120a1565b6128eb60408301846120b0565b949350505050565b600081905092915050565b50565b600061290e6000836128f3565b9150612919826128fe565b600082019050919050565b600061292f82612901565b9150819050919050565b7f4f7267616e697a6572207061796f7574206661696c6564000000000000000000600082015250565b600061296f60178361229e565b915061297a82612939565b602082019050919050565b6000602082019050818103600083015261299e81612962565b9050919050565b7f506c6174666f726d207061796f7574206661696c656400000000000000000000600082015250565b60006129db60168361229e565b91506129e6826129a5565b602082019050919050565b60006020820190508181036000830152612a0a816129ce565b9050919050565b7f53656c6c6572207061796f7574206661696c6564000000000000000000000000600082015250565b6000612a4760148361229e565b9150612a5282612a11565b602082019050919050565b60006020820190508181036000830152612a7681612a3a565b9050919050565b600060a082019050612a9260008301886120a1565b612a9f60208301876120b0565b612aac60408301866120b0565b612ab960608301856120b0565b612ac660808301846120b0565b9695505050505050565b7f5072696365206d757374206265203e2030000000000000000000000000000000600082015250565b6000612b0660118361229e565b9150612b1182612ad0565b602082019050919050565b60006020820190508181036000830152612b3581612af9565b9050919050565b7f4f6e6c79206f776e657200000000000000000000000000000000000000000000600082015250565b6000612b72600a8361229e565b9150612b7d82612b3c565b602082019050919050565b60006020820190508181036000830152612ba181612b65565b9050919050565b6000604082019050612bbd60008301856120b0565b612bca60208301846120b0565b939250505056fea26469706673582212204290a68174b5290e0325a2782a07fdacc185bb0f26d3924f40c22d87dd5aba4864736f6c634300081c0033",
  "linkReferences": {},
  "deployedLinkReferences": {}
}