{
  "_format": "hh-sol-artifact-1",
  "contractName": "MysteryBox",
  "sourceName": "contracts/MysteryBox.sol",
  "abi": [
    {
      "inputs": [
        {
          "internalType": "address",
          "name": "target",
          "type": "address"
        }
      ],
      "name": "AddressEmptyCode",
      "type": "error"
    },
    {
      "inputs": [
        {
          "internalType": "address",
          "name": "implementation",
          "type": "address"
        }
      ],
      "name": "ERC1967InvalidImplementation",
      "type": "error"
    },
    {
      "inputs": [],
      "name": "ERC1967NonPayable",
      "type": "error"
    },
    {
      "inputs": [],
      "name": "FailedCall",
      "type": "error"
    },
    {
      "inputs": [],
      "name": "InvalidInitialization",
      "type": "error"
    },
    {
      "inputs": [],
      "name": "NotInitializing",
      "type": "error"
    },
    {
      "inputs": [
        {
          "internalType": "address",
          "name": "owner",
          "type": "address"
        }
      ],
      "name": "OwnableInvalidOwner",
      "type": "error"
    },
    {
      "inputs": [
        {
          "internalType": "address",
          "name": "account",
          "type": "address"
        }
      ],
      "name": "OwnableUnauthorizedAccount",
      "type": "error"
    },
    {
      "inputs": [],
      "name": "UUPSUnauthorizedCallContext",
      "type": "error"
    },
    {
      "inputs": [
        {
          "internalType": "bytes32",
          "name": "slot",
          "type": "bytes32"
        }
      ],
      "name": "UUPSUnsupportedProxiableUUID",
      "type": "error"
    },
    {
      "anonymous": false,
      "inputs": [
        {
          "indexed": true,
          "internalType": "address",
          "name": "user",
          "type": "address"
        },
        {
          "indexed": false,
          "internalType": "uint256",
          "name": "boxId",
          "type": "uint256"
        },
        {
          "indexed": false,
          "internalType": "uint256",
          "name": "prizeTokenId",
          "type": "uint256"
        },
        {
          "indexed": false,
          "internalType": "string",
          "name": "prizeURI",
          "type": "string"
        }
      ],
      "name": "BoxOpened",
      "type": "event"
    },
    {
      "anonymous": false,
      "inputs": [
        {
          "indexed": false,
          "internalType": "uint256",
          "name": "newPrice",
          "type": "uint256"
        }
      ],
      "name": "BoxPriceUpdated",
      "type": "event"
    },
    {
      "anonymous": false,
      "inputs": [
        {
          "indexed": true,
          "internalType": "address",
          "name": "user",
          "type": "address"
        },
        {
          "indexed": false,
          "internalType": "uint256",
          "name": "boxId",
          "type": "uint256"
        }
      ],
      "name": "BoxPurchased",
      "type": "event"
    },
    {
      "anonymous": false,
      "inputs": [
        {
          "indexed": false,
          "internalType": "uint64",
          "name": "version",
          "type": "uint64"
        }
      ],
      "name": "Initialized",
      "type": "event"
    },
    {
      "anonymous": false,
      "inputs": [
        {
          "indexed": true,
          "internalType": "address",
          "name": "previousOwner",
          "type": "address"
        },
        {
          "indexed": true,
          "internalType": "address",
          "name": "newOwner",
          "type": "address"
        }
      ],
      "name": "OwnershipTransferred",
      "type": "event"
    },
    {
      "anonymous": false,
      "inputs": [
        {
          "indexed": false,
          "internalType": "string",
          "name": "prizeURI",
          "type": "string"
        }
      ],
      "name": "PrizeAdded",
      "type": "event"
    },
    {
      "anonymous": false,
      "inputs": [
        {
          "indexed": false,
          "internalType": "string",
          "name": "prizeURI",
          "type": "string"
        }
      ],
      "name": "PrizeRemoved",
      "type": "event"
    },
    {
      "anonymous": false,
      "inputs": [
        {
          "indexed": false,
          "internalType": "uint256",
          "name": "oldSubId",
          "type": "uint256"
        },
        {
          "indexed": false,
          "internalType": "uint256",
          "name": "newSubId",
          "type": "uint256"
        }
      ],
      "name": "SubscriptionIdUpdated",
      "type": "event"
    },
    {
      "anonymous": false,
      "inputs": [
        {
          "indexed": true,
          "internalType": "address",
          "name": "implementation",
          "type": "address"
        }
      ],
      "name": "Upgraded",
      "type": "event"
    },
    {
      "anonymous": false,
      "inputs": [
        {
          "indexed": false,
          "internalType": "bytes32",
          "name": "keyHash",
          "type": "bytes32"
        },
        {
          "indexed": false,
          "internalType": "uint32",
          "name": "callbackGasLimit",
          "type": "uint32"
        },
        {
          "indexed": false,
          "internalType": "uint16",
          "name": "requestConfirmations",
          "type": "uint16"
        }
      ],
      "name": "VRFConfigUpdated",
      "type": "event"
    },
    {
      "anonymous": false,
      "inputs": [
        {
          "indexed": true,
          "internalType": "address",
          "name": "to",
          "type": "address"
        },
        {
          "indexed": false,
          "internalType": "uint256",
          "name": "amount",
          "type": "uint256"
        }
      ],
      "name": "Withdraw",
      "type": "event"
    },
    {
      "stateMutability": "payable",
      "type": "fallback"
    },
    {
      "inputs": [],
      "name": "COORDINATOR",
      "outputs": [
        {
          "internalType": "contract VRFCoordinatorV2Interface",
          "name": "",
          "type": "address"
        }
      ],
      "stateMutability": "view",
      "type": "function"
    },
    {
      "inputs": [],
      "name": "UPGRADE_INTERFACE_VERSION",
      "outputs": [
        {
          "internalType": "string",
          "name": "",
          "type": "string"
        }
      ],
      "stateMutability": "view",
      "type": "function"
    },
    {
      "inputs": [
        {
          "internalType": "string",
          "name": "uri",
          "type": "string"
        }
      ],
      "name": "addPrizeURI",
      "outputs": [],
      "stateMutability": "nonpayable",
      "type": "function"
    },
    {
      "inputs": [],
      "name": "boxPrice",
      "outputs": [
        {
          "internalType": "uint256",
          "name": "",
          "type": "uint256"
        }
      ],
      "stateMutability": "view",
      "type": "function"
    },
    {
      "inputs": [
        {
          "internalType": "uint256",
          "name": "requestId",
          "type": "uint256"
        },
        {
          "internalType": "uint256[]",
          "name": "randomWords",
          "type": "uint256[]"
        }
      ],
      "name": "fulfillRandomWords",
      "outputs": [],
      "stateMutability": "nonpayable",
      "type": "function"
    },
    {
      "inputs": [],
      "name": "getPrizeURIs",
      "outputs": [
        {
          "internalType": "string[]",
          "name": "",
          "type": "string[]"
        }
      ],
      "stateMutability": "view",
      "type": "function"
    },
    {
      "inputs": [],
      "name": "getSubscriptionInfo",
      "outputs": [
        {
          "internalType": "uint96",
          "name": "balance",
          "type": "uint96"
        },
        {
          "internalType": "uint64",
          "name": "reqCount",
          "type": "uint64"
        },
        {
          "internalType": "address",
          "name": "owner",
          "type": "address"
        },
        {
          "internalType": "address[]",
          "name": "consumers",
          "type": "address[]"
        }
      ],
      "stateMutability": "view",
      "type": "function"
    },
    {
      "inputs": [
        {
          "internalType": "address",
          "name": "_myNFTAddress",
          "type": "address"
        },
        {
          "internalType": "address",
          "name": "_vrfCoordinator",
          "type": "address"
        },
        {
          "internalType": "uint256",
          "name": "_vrfSubscriptionId",
          "type": "uint256"
        },
        {
          "internalType": "bytes32",
          "name": "_vrfKeyHash",
          "type": "bytes32"
        },
        {
          "internalType": "uint32",
          "name": "_vrfCallbackGasLimit",
          "type": "uint32"
        },
        {
          "internalType": "uint16",
          "name": "_vrfRequestConfirmations",
          "type": "uint16"
        }
      ],
      "name": "initialize",
      "outputs": [],
      "stateMutability": "nonpayable",
      "type": "function"
    },
    {
      "inputs": [],
      "name": "isConsumerRegistered",
      "outputs": [
        {
          "internalType": "bool",
          "name": "",
          "type": "bool"
        }
      ],
      "stateMutability": "view",
      "type": "function"
    },
    {
      "inputs": [],
      "name": "myNFT",
      "outputs": [
        {
          "internalType": "contract IMyNFT",
          "name": "",
          "type": "address"
        }
      ],
      "stateMutability": "view",
      "type": "function"
    },
    {
      "inputs": [],
      "name": "myNFTAddress",
      "outputs": [
        {
          "internalType": "address",
          "name": "",
          "type": "address"
        }
      ],
      "stateMutability": "view",
      "type": "function"
    },
    {
      "inputs": [
        {
          "internalType": "uint256",
          "name": "",
          "type": "uint256"
        }
      ],
      "name": "openRequests",
      "outputs": [
        {
          "internalType": "address",
          "name": "user",
          "type": "address"
        },
        {
          "internalType": "uint256",
          "name": "boxId",
          "type": "uint256"
        }
      ],
      "stateMutability": "view",
      "type": "function"
    },
    {
      "inputs": [],
      "name": "owner",
      "outputs": [
        {
          "internalType": "address",
          "name": "",
          "type": "address"
        }
      ],
      "stateMutability": "view",
      "type": "function"
    },
    {
      "inputs": [],
      "name": "prizesRemaining",
      "outputs": [
        {
          "internalType": "uint256",
          "name": "",
          "type": "uint256"
        }
      ],
      "stateMutability": "view",
      "type": "function"
    },
    {
      "inputs": [],
      "name": "proxiableUUID",
      "outputs": [
        {
          "internalType": "bytes32",
          "name": "",
          "type": "bytes32"
        }
      ],
      "stateMutability": "view",
      "type": "function"
    },
    {
      "inputs": [],
      "name": "purchaseAndOpenBox",
      "outputs": [
        {
          "internalType": "uint256",
          "name": "",
          "type": "uint256"
        }
      ],
      "stateMutability": "payable",
      "type": "function"
    },
    {
      "inputs": [
        {
          "internalType": "uint256",
          "name": "index",
          "type": "uint256"
        }
      ],
      "name": "removePrize",
      "outputs": [],
      "stateMutability": "nonpayable",
      "type": "function"
    },
    {
      "inputs": [],
      "name": "renounceOwnership",
      "outputs": [],
      "stateMutability": "nonpayable",
      "type": "function"
    },
    {
      "inputs": [
        {
          "internalType": "uint256",
          "name": "newPrice",
          "type": "uint256"
        }
      ],
      "name": "setBoxPrice",
      "outputs": [],
      "stateMutability": "nonpayable",
      "type": "function"
    },
    {
      "inputs": [
        {
          "internalType": "address",
          "name": "_myNFTAddress",
          "type": "address"
        }
      ],
      "name": "setMyNFTAddress",
      "outputs": [],
      "stateMutability": "nonpayable",
      "type": "function"
    },
    {
      "inputs": [
        {
          "internalType": "uint256",
          "name": "newSubId",
          "type": "uint256"
        }
      ],
      "name": "setSubscriptionId",
      "outputs": [],
      "stateMutability": "nonpayable",
      "type": "function"
    },
    {
      "inputs": [
        {
          "internalType": "address",
          "name": "newOwner",
          "type": "address"
        }
      ],
      "name": "transferOwnership",
      "outputs": [],
      "stateMutability": "nonpayable",
      "type": "function"
    },
    {
      "inputs": [
        {
          "internalType": "bytes32",
          "name": "_keyHash",
          "type": "bytes32"
        },
        {
          "internalType": "uint32",
          "name": "_callbackGasLimit",
          "type": "uint32"
        },
        {
          "internalType": "uint16",
          "name": "_requestConfirmations",
          "type": "uint16"
        }
      ],
      "name": "updateVRFConfig",
      "outputs": [],
      "stateMutability": "nonpayable",
      "type": "function"
    },
    {
      "inputs": [
        {
          "internalType": "address",
          "name": "newImplementation",
          "type": "address"
        },
        {
          "internalType": "bytes",
          "name": "data",
          "type": "bytes"
        }
      ],
      "name": "upgradeToAndCall",
      "outputs": [],
      "stateMutability": "payable",
      "type": "function"
    },
    {
      "inputs": [],
      "name": "vrfCallbackGasLimit",
      "outputs": [
        {
          "internalType": "uint32",
          "name": "",
          "type": "uint32"
        }
      ],
      "stateMutability": "view",
      "type": "function"
    },
    {
      "inputs": [],
      "name": "vrfKeyHash",
      "outputs": [
        {
          "internalType": "bytes32",
          "name": "",
          "type": "bytes32"
        }
      ],
      "stateMutability": "view",
      "type": "function"
    },
    {
      "inputs": [],
      "name": "vrfNumWords",
      "outputs": [
        {
          "internalType": "uint32",
          "name": "",
          "type": "uint32"
        }
      ],
      "stateMutability": "view",
      "type": "function"
    },
    {
      "inputs": [],
      "name": "vrfRequestConfirmations",
      "outputs": [
        {
          "internalType": "uint16",
          "name": "",
          "type": "uint16"
        }
      ],
      "stateMutability": "view",
      "type": "function"
    },
    {
      "inputs": [],
      "name": "vrfSubscriptionId",
      "outputs": [
        {
          "internalType": "uint256",
          "name": "",
          "type": "uint256"
        }
      ],
      "stateMutability": "view",
      "type": "function"
    },
    {
      "inputs": [
        {
          "internalType": "address payable",
          "name": "to",
          "type": "address"
        }
      ],
      "name": "withdraw",
      "outputs": [],
      "stateMutability": "nonpayable",
      "type": "function"
    },
    {
      "stateMutability": "payable",
      "type": "receive"
    }
  ],
  "bytecode": "0x60a06040523073ffffffffffffffffffffffffffffffffffffffff1660809073ffffffffffffffffffffffffffffffffffffffff16815250348015604257600080fd5b5060805161493861006c600039600081816124c50152818161251a01526126d501526149386000f3fe6080604052600436106101d15760003560e01c8063715018a6116100f7578063c1e0d23611610095578063ed647d2111610064578063ed647d211461060a578063f2fde38b14610635578063f7dbea3e1461065e578063f8b64cf314610687576101d2565b8063c1e0d2361461054a578063cd1a44db14610573578063cdd2efd0146105b1578063e894fe16146105df576101d2565b806394281932116100d157806394281932146104ab578063a6482858146104d6578063a6bdcd5c14610501578063ad3cb1cc1461051f576101d2565b8063715018a61461043e5780638bbbbc43146104555780638da5cb5b14610480576101d2565b80634535a3a61161016f57806352d1902d1161013e57806352d1902d14610396578063598bc486146103c15780635a3a30c3146103ec5780636bd24cb414610415576101d2565b80634535a3a6146102fb5780634f1ef286146103265780635151804a1461034257806351cff8d91461036d576101d2565b80632d509d97116101ab5780632d509d971461025357806338ba46141461027c5780633b2bcbf1146102a55780633b7ed734146102d0576101d2565b8063041d443e146101d457806309a31d50146101ff5780632164618d1461022a576101d2565b5b005b3480156101e057600080fd5b506101e96106b0565b6040516101f69190612cf2565b60405180910390f35b34801561020b57600080fd5b506102146106b6565b6040516102219190612d8c565b60405180910390f35b34801561023657600080fd5b50610251600480360381019061024c9190612df9565b6106dc565b005b34801561025f57600080fd5b5061027a60048036038101906102759190612f6c565b610769565b005b34801561028857600080fd5b506102a3600480360381019061029e91906130b3565b610835565b005b3480156102b157600080fd5b506102ba610cd5565b6040516102c79190613130565b60405180910390f35b3480156102dc57600080fd5b506102e5610cf9565b6040516102f2919061316a565b60405180910390f35b34801561030757600080fd5b50610310610d0f565b60405161031d91906132c6565b60405180910390f35b610340600480360381019061033b9190613389565b610de8565b005b34801561034e57600080fd5b50610357610e07565b604051610364919061316a565b60405180910390f35b34801561037957600080fd5b50610394600480360381019061038f9190613423565b610e1d565b005b3480156103a257600080fd5b506103ab610f06565b6040516103b89190612cf2565b60405180910390f35b3480156103cd57600080fd5b506103d6610f39565b6040516103e3919061346d565b60405180910390f35b3480156103f857600080fd5b50610413600480360381019061040e919061350c565b610f4d565b005b34801561042157600080fd5b5061043c60048036038101906104379190613599565b611417565b005b34801561044a57600080fd5b50610453611561565b005b34801561046157600080fd5b5061046a611575565b60405161047791906135d5565b60405180910390f35b34801561048c57600080fd5b5061049561159b565b6040516104a291906135d5565b60405180910390f35b3480156104b757600080fd5b506104c06115d3565b6040516104cd919061360b565b60405180910390f35b3480156104e257600080fd5b506104eb61179c565b6040516104f89190613635565b60405180910390f35b6105096117a2565b6040516105169190613635565b60405180910390f35b34801561052b57600080fd5b50610534611dda565b604051610541919061369a565b60405180910390f35b34801561055657600080fd5b50610571600480360381019061056c9190613599565b611e13565b005b34801561057f57600080fd5b5061059a60048036038101906105959190613599565b612050565b6040516105a89291906136bc565b60405180910390f35b3480156105bd57600080fd5b506105c6612094565b6040516105d694939291906137ed565b60405180910390f35b3480156105eb57600080fd5b506105f461221b565b6040516106019190613635565b60405180910390f35b34801561061657600080fd5b5061061f612221565b60405161062c9190613635565b60405180910390f35b34801561064157600080fd5b5061065c60048036038101906106579190612df9565b612227565b005b34801561066a57600080fd5b5061068560048036038101906106809190613599565b6122ad565b005b34801561069357600080fd5b506106ae60048036038101906106a99190613839565b6122f6565b005b60025481565b600960009054906101000a900473ffffffffffffffffffffffffffffffffffffffff1681565b6106e461243c565b80600860006101000a81548173ffffffffffffffffffffffffffffffffffffffff021916908373ffffffffffffffffffffffffffffffffffffffff16021790555080600960006101000a81548173ffffffffffffffffffffffffffffffffffffffff021916908373ffffffffffffffffffffffffffffffffffffffff16021790555050565b61077161243c565b6004819080600181540180825580915050600190039060005260206000200160009091909190915090816107a59190613a8e565b5060016005600060016004805490506107be9190613b8f565b815260200190815260200160002060006101000a81548160ff021916908315150217905550600660008154809291906107f690613bc3565b91905055507f1b18c9b19949634ccf90e1a4eb1f0a92bbeab73a5061384d2f97b67c1e9c3de58160405161082a919061369a565b60405180910390a150565b60008054906101000a900473ffffffffffffffffffffffffffffffffffffffff1673ffffffffffffffffffffffffffffffffffffffff163373ffffffffffffffffffffffffffffffffffffffff16146108c3576040517f08c379a00000000000000000000000000000000000000000000000000000000081526004016108ba90613c57565b60405180910390fd5b6000600b60008481526020019081526020016000206040518060400160405290816000820160009054906101000a900473ffffffffffffffffffffffffffffffffffffffff1673ffffffffffffffffffffffffffffffffffffffff1673ffffffffffffffffffffffffffffffffffffffff1681526020016001820154815250509050600073ffffffffffffffffffffffffffffffffffffffff16816000015173ffffffffffffffffffffffffffffffffffffffff16036109b8576040517f08c379a00000000000000000000000000000000000000000000000000000000081526004016109af90613cc3565b60405180910390fd5b6000600654116109fd576040517f08c379a00000000000000000000000000000000000000000000000000000000081526004016109f490613d2f565b60405180910390fd5b6000600654905060008184600081518110610a1b57610a1a613d4f565b5b6020026020010151610a2d9190613dad565b905060008060005b600480549050811015610a93576005600082815260200190815260200160002060009054906101000a900460ff1615610a8657838203610a7757809250610a93565b8180610a8290613bc3565b9250505b8080600101915050610a35565b5060006005600084815260200190815260200160002060006101000a81548160ff02191690831515021790555060066000815480929190610ad390613dde565b9190505550600060048381548110610aee57610aed613d4f565b5b906000526020600020018054610b03906138bb565b80601f0160208091040260200160405190810160405280929190818152602001828054610b2f906138bb565b8015610b7c5780601f10610b5157610100808354040283529160200191610b7c565b820191906000526020600020905b815481529060010190602001808311610b5f57829003601f168201915b505050505090506000600960009054906101000a900473ffffffffffffffffffffffffffffffffffffffff1673ffffffffffffffffffffffffffffffffffffffff1663eacabe148860000151846040518363ffffffff1660e01b8152600401610be6929190613e07565b6020604051808303816000875af1158015610c05573d6000803e3d6000fd5b505050506040513d601f19601f82011682018060405250810190610c299190613e4c565b9050866000015173ffffffffffffffffffffffffffffffffffffffff167fb290f201fc2098d3aff8ca13aac2fb82d00a763eb74476518accd6e663fce99588602001518385604051610c7d93929190613e79565b60405180910390a2600b60008a8152602001908152602001600020600080820160006101000a81549073ffffffffffffffffffffffffffffffffffffffff021916905560018201600090555050505050505050505050565b60008054906101000a900473ffffffffffffffffffffffffffffffffffffffff1681565b600360009054906101000a900463ffffffff1681565b60606004805480602002602001604051908101604052809291908181526020016000905b82821015610ddf578382906000526020600020018054610d52906138bb565b80601f0160208091040260200160405190810160405280929190818152602001828054610d7e906138bb565b8015610dcb5780601f10610da057610100808354040283529160200191610dcb565b820191906000526020600020905b815481529060010190602001808311610dae57829003601f168201915b505050505081526020019060010190610d33565b50505050905090565b610df06124c3565b610df9826125a9565b610e0382826125b4565b5050565b600360069054906101000a900463ffffffff1681565b610e2561243c565b600047905060008111610e6d576040517f08c379a0000000000000000000000000000000000000000000000000000000008152600401610e6490613f03565b60405180910390fd5b8173ffffffffffffffffffffffffffffffffffffffff166108fc829081150290604051600060405180830381858888f19350505050158015610eb3573d6000803e3d6000fd5b508173ffffffffffffffffffffffffffffffffffffffff167f884edad9ce6fa2440d8a54cc123490eb96d2768479d49ff9c7366125a942436482604051610efa9190613635565b60405180910390a25050565b6000610f106126d3565b7f360894a13ba1a3210667c828492db98dca3e2076cc3735a920a3ca505d382bbc60001b905090565b600360049054906101000a900461ffff1681565b6000610f5761275a565b905060008160000160089054906101000a900460ff1615905060008260000160009054906101000a900467ffffffffffffffff1690506000808267ffffffffffffffff16148015610fa55750825b9050600060018367ffffffffffffffff16148015610fda575060003073ffffffffffffffffffffffffffffffffffffffff163b145b905081158015610fe8575080155b1561101f576040517ff92ee8a900000000000000000000000000000000000000000000000000000000815260040160405180910390fd5b60018560000160006101000a81548167ffffffffffffffff021916908367ffffffffffffffff160217905550831561106f5760018560000160086101000a81548160ff0219169083151502179055505b6110783361276e565b611080612782565b896000806101000a81548173ffffffffffffffffffffffffffffffffffffffff021916908373ffffffffffffffffffffffffffffffffffffffff160217905550886001819055508760028190555086600360006101000a81548163ffffffff021916908363ffffffff16021790555085600360046101000a81548161ffff021916908361ffff1602179055506001600360066101000a81548163ffffffff021916908363ffffffff1602179055508a600860006101000a81548173ffffffffffffffffffffffffffffffffffffffff021916908373ffffffffffffffffffffffffffffffffffffffff1602179055508a600960006101000a81548173ffffffffffffffffffffffffffffffffffffffff021916908373ffffffffffffffffffffffffffffffffffffffff160217905550662386f26fc1000060078190555060008060008054906101000a900473ffffffffffffffffffffffffffffffffffffffff1673ffffffffffffffffffffffffffffffffffffffff168b6040516024016112099190613635565b6040516020818303038152906040527fdc311dd3000000000000000000000000000000000000000000000000000000007bffffffffffffffffffffffffffffffffffffffffffffffffffffffff19166020820180517bffffffffffffffffffffffffffffffffffffffffffffffffffffffff83818316178352505050506040516112939190613f6a565b600060405180830381855afa9150503d80600081146112ce576040519150601f19603f3d011682016040523d82523d6000602084013e6112d3565b606091505b5091509150811561137157600080828060200190518101906112f591906140c6565b509250509150600073ffffffffffffffffffffffffffffffffffffffff168173ffffffffffffffffffffffffffffffffffffffff160361136a576040517f08c379a000000000000000000000000000000000000000000000000000000000815260040161136190614195565b60405180910390fd5b50506113ac565b6040517f08c379a00000000000000000000000000000000000000000000000000000000081526004016113a390614227565b60405180910390fd5b5050831561140a5760008560000160086101000a81548160ff0219169083151502179055507fc7f505b2f371ae2175ee4913f4499e1f2633a7b5936321eed1cdaeb6115181d260016040516114019190614282565b60405180910390a15b5050505050505050505050565b61141f61243c565b6004805490508110611466576040517f08c379a000000000000000000000000000000000000000000000000000000000815260040161145d906142e9565b60405180910390fd5b6005600082815260200190815260200160002060009054906101000a900460ff166114c6576040517f08c379a00000000000000000000000000000000000000000000000000000000081526004016114bd90614355565b60405180910390fd5b60006005600083815260200190815260200160002060006101000a81548160ff0219169083151502179055506006600081548092919061150590613dde565b91905055507f5a751d990ffcd3ece2954f3c3f4fd3f819831d1d9c535bf4a8ce010af1b340a06004828154811061153f5761153e613d4f565b5b9060005260206000200160405161155691906143f9565b60405180910390a150565b61156961243c565b611573600061278c565b565b600860009054906101000a900473ffffffffffffffffffffffffffffffffffffffff1681565b6000806115a6612863565b90508060000160009054906101000a900473ffffffffffffffffffffffffffffffffffffffff1691505090565b60008060008060009054906101000a900473ffffffffffffffffffffffffffffffffffffffff1673ffffffffffffffffffffffffffffffffffffffff166001546040516024016116239190613635565b6040516020818303038152906040527fdc311dd3000000000000000000000000000000000000000000000000000000007bffffffffffffffffffffffffffffffffffffffffffffffffffffffff19166020820180517bffffffffffffffffffffffffffffffffffffffffffffffffffffffff83818316178352505050506040516116ad9190613f6a565b600060405180830381855afa9150503d80600081146116e8576040519150601f19603f3d011682016040523d82523d6000602084013e6116ed565b606091505b50915091508161170257600092505050611799565b60008180602001905181019061171891906140c6565b935050505060005b8151811015611790573073ffffffffffffffffffffffffffffffffffffffff1682828151811061175357611752613d4f565b5b602002602001015173ffffffffffffffffffffffffffffffffffffffff1603611783576001945050505050611799565b8080600101915050611720565b50600093505050505b90565b60075481565b60006007543410156117e9576040517f08c379a00000000000000000000000000000000000000000000000000000000081526004016117e090614467565b60405180910390fd5b60006006541161182e576040517f08c379a000000000000000000000000000000000000000000000000000000000815260040161182590613d2f565b60405180910390fd5b60008060008054906101000a900473ffffffffffffffffffffffffffffffffffffffff1673ffffffffffffffffffffffffffffffffffffffff1660015460405160240161187b9190613635565b6040516020818303038152906040527fdc311dd3000000000000000000000000000000000000000000000000000000007bffffffffffffffffffffffffffffffffffffffffffffffffffffffff19166020820180517bffffffffffffffffffffffffffffffffffffffffffffffffffffffff83818316178352505050506040516119059190613f6a565b600060405180830381855afa9150503d8060008114611940576040519150601f19603f3d011682016040523d82523d6000602084013e611945565b606091505b50915091508161198a576040517f08c379a0000000000000000000000000000000000000000000000000000000008152600401611981906144d3565b60405180910390fd5b6000806000838060200190518101906119a391906140c6565b935093505092506000836bffffffffffffffffffffffff16116119fb576040517f08c379a00000000000000000000000000000000000000000000000000000000081526004016119f29061453f565b60405180910390fd5b600073ffffffffffffffffffffffffffffffffffffffff168273ffffffffffffffffffffffffffffffffffffffff1603611a6a576040517f08c379a0000000000000000000000000000000000000000000000000000000008152600401611a61906145ab565b60405180910390fd5b6000805b8251811015611ada573073ffffffffffffffffffffffffffffffffffffffff16838281518110611aa157611aa0613d4f565b5b602002602001015173ffffffffffffffffffffffffffffffffffffffff1603611acd5760019150611ada565b8080600101915050611a6e565b5080611b1b576040517f08c379a0000000000000000000000000000000000000000000000000000000008152600401611b129061463d565b60405180910390fd5b6000600a6000815480929190611b3090613bc3565b9190505590503373ffffffffffffffffffffffffffffffffffffffff167f829b852df67cbb2db43aef2060c62af61832e9d4265448bf45e21999445b38f882604051611b7c9190613635565b60405180910390a260008060008054906101000a900473ffffffffffffffffffffffffffffffffffffffff1673ffffffffffffffffffffffffffffffffffffffff16600254600154600360049054906101000a900461ffff16600360009054906101000a900463ffffffff16600360069054906101000a900463ffffffff16604051602401611c0f95949392919061465d565b6040516020818303038152906040527fd33d44c1000000000000000000000000000000000000000000000000000000007bffffffffffffffffffffffffffffffffffffffffffffffffffffffff19166020820180517bffffffffffffffffffffffffffffffffffffffffffffffffffffffff8381831617835250505050604051611c999190613f6a565b6000604051808303816000865af19150503d8060008114611cd6576040519150601f19603f3d011682016040523d82523d6000602084013e611cdb565b606091505b509150915081611d20576040517f08c379a0000000000000000000000000000000000000000000000000000000008152600401611d17906146fc565b60405180910390fd5b600081806020019051810190611d369190613e4c565b905060405180604001604052803373ffffffffffffffffffffffffffffffffffffffff16815260200185815250600b600083815260200190815260200160002060008201518160000160006101000a81548173ffffffffffffffffffffffffffffffffffffffff021916908373ffffffffffffffffffffffffffffffffffffffff16021790555060208201518160010155905050839a505050505050505050505090565b6040518060400160405280600581526020017f352e302e3000000000000000000000000000000000000000000000000000000081525081565b611e1b61243c565b60008060008054906101000a900473ffffffffffffffffffffffffffffffffffffffff1673ffffffffffffffffffffffffffffffffffffffff1683604051602401611e669190613635565b6040516020818303038152906040527fdc311dd3000000000000000000000000000000000000000000000000000000007bffffffffffffffffffffffffffffffffffffffffffffffffffffffff19166020820180517bffffffffffffffffffffffffffffffffffffffffffffffffffffffff8381831617835250505050604051611ef09190613f6a565b600060405180830381855afa9150503d8060008114611f2b576040519150601f19603f3d011682016040523d82523d6000602084013e611f30565b606091505b509150915081611f75576040517f08c379a0000000000000000000000000000000000000000000000000000000008152600401611f6c906144d3565b60405180910390fd5b60008082806020019051810190611f8c91906140c6565b509250509150600073ffffffffffffffffffffffffffffffffffffffff168173ffffffffffffffffffffffffffffffffffffffff1603612001576040517f08c379a0000000000000000000000000000000000000000000000000000000008152600401611ff890614768565b60405180910390fd5b60006001549050856001819055507f2cd548d8b607f4efea7db6457654fc9e023a566e207024c02ef70ce93f68b7218187604051612040929190614788565b60405180910390a1505050505050565b600b6020528060005260406000206000915090508060000160009054906101000a900473ffffffffffffffffffffffffffffffffffffffff16908060010154905082565b6000806000606060008060008054906101000a900473ffffffffffffffffffffffffffffffffffffffff1673ffffffffffffffffffffffffffffffffffffffff166001546040516024016120e89190613635565b6040516020818303038152906040527fdc311dd3000000000000000000000000000000000000000000000000000000007bffffffffffffffffffffffffffffffffffffffffffffffffffffffff19166020820180517bffffffffffffffffffffffffffffffffffffffffffffffffffffffff83818316178352505050506040516121729190613f6a565b600060405180830381855afa9150503d80600081146121ad576040519150601f19603f3d011682016040523d82523d6000602084013e6121b2565b606091505b5091509150816121f7576040517f08c379a00000000000000000000000000000000000000000000000000000000081526004016121ee906144d3565b60405180910390fd5b8080602001905181019061220b91906140c6565b9550955095509550505090919293565b60065481565b60015481565b61222f61243c565b600073ffffffffffffffffffffffffffffffffffffffff168173ffffffffffffffffffffffffffffffffffffffff16036122a15760006040517f1e4fbdf700000000000000000000000000000000000000000000000000000000815260040161229891906135d5565b60405180910390fd5b6122aa8161278c565b50565b6122b561243c565b806007819055507fb7067ae98a5e0e5f401384494b84792febeff300d8c2dcd70c8791864b660d31816040516122eb9190613635565b60405180910390a150565b6122fe61243c565b614e208263ffffffff161015801561231f5750622625a08263ffffffff1611155b61235e576040517f08c379a0000000000000000000000000000000000000000000000000000000008152600401612355906147fd565b60405180910390fd5b60038161ffff1610158015612378575060c88161ffff1611155b6123b7576040517f08c379a00000000000000000000000000000000000000000000000000000000081526004016123ae90614869565b60405180910390fd5b8260028190555081600360006101000a81548163ffffffff021916908363ffffffff16021790555080600360046101000a81548161ffff021916908361ffff1602179055507f398b58c1bb8e3bb43a7914065ba0911473e1307395bc4c12467fe7cf27d2976f83838360405161242f93929190614889565b60405180910390a1505050565b61244461288b565b73ffffffffffffffffffffffffffffffffffffffff1661246261159b565b73ffffffffffffffffffffffffffffffffffffffff16146124c15761248561288b565b6040517f118cdaa70000000000000000000000000000000000000000000000000000000081526004016124b891906135d5565b60405180910390fd5b565b7f000000000000000000000000000000000000000000000000000000000000000073ffffffffffffffffffffffffffffffffffffffff163073ffffffffffffffffffffffffffffffffffffffff16148061257057507f000000000000000000000000000000000000000000000000000000000000000073ffffffffffffffffffffffffffffffffffffffff16612557612893565b73ffffffffffffffffffffffffffffffffffffffff1614155b156125a7576040517fe07c8dba00000000000000000000000000000000000000000000000000000000815260040160405180910390fd5b565b6125b161243c565b50565b8173ffffffffffffffffffffffffffffffffffffffff166352d1902d6040518163ffffffff1660e01b8152600401602060405180830381865afa92505050801561261c57506040513d601f19601f8201168201806040525081019061261991906148d5565b60015b61265d57816040517f4c9c8ce300000000000000000000000000000000000000000000000000000000815260040161265491906135d5565b60405180910390fd5b7f360894a13ba1a3210667c828492db98dca3e2076cc3735a920a3ca505d382bbc60001b81146126c457806040517faa1d49a40000000000000000000000000000000000000000000000000000000081526004016126bb9190612cf2565b60405180910390fd5b6126ce83836128ea565b505050565b7f000000000000000000000000000000000000000000000000000000000000000073ffffffffffffffffffffffffffffffffffffffff163073ffffffffffffffffffffffffffffffffffffffff1614612758576040517fe07c8dba00000000000000000000000000000000000000000000000000000000815260040160405180910390fd5b565b60008061276561295d565b90508091505090565b612776612988565b61277f816129c8565b50565b61278a612988565b565b6000612796612863565b905060008160000160009054906101000a900473ffffffffffffffffffffffffffffffffffffffff169050828260000160006101000a81548173ffffffffffffffffffffffffffffffffffffffff021916908373ffffffffffffffffffffffffffffffffffffffff1602179055508273ffffffffffffffffffffffffffffffffffffffff168173ffffffffffffffffffffffffffffffffffffffff167f8be0079c531659141344cd1fd0a4f28419497f9722a3daafe3b4186f6b6457e060405160405180910390a3505050565b60007f9016d09d72d40fdae2fd8ceac6b6234c7706214fd39c1cd1e609a0528c199300905090565b600033905090565b60006128c17f360894a13ba1a3210667c828492db98dca3e2076cc3735a920a3ca505d382bbc60001b612a4e565b60000160009054906101000a900473ffffffffffffffffffffffffffffffffffffffff16905090565b6128f382612a58565b8173ffffffffffffffffffffffffffffffffffffffff167fbc7cd75a20ee27fd9adebab32041f755214dbc6bffa90cc0225b39da2e5c2d3b60405160405180910390a26000815111156129505761294a8282612b25565b50612959565b612958612ba9565b5b5050565b60007ff0c57e16840df040f15088dc2f81fe391c3923bec73e23a9662efc9c229c6a0060001b905090565b612990612be6565b6129c6576040517fd7e6bcf800000000000000000000000000000000000000000000000000000000815260040160405180910390fd5b565b6129d0612988565b600073ffffffffffffffffffffffffffffffffffffffff168173ffffffffffffffffffffffffffffffffffffffff1603612a425760006040517f1e4fbdf7000000000000000000000000000000000000000000000000000000008152600401612a3991906135d5565b60405180910390fd5b612a4b8161278c565b50565b6000819050919050565b60008173ffffffffffffffffffffffffffffffffffffffff163b03612ab457806040517f4c9c8ce3000000000000000000000000000000000000000000000000000000008152600401612aab91906135d5565b60405180910390fd5b80612ae17f360894a13ba1a3210667c828492db98dca3e2076cc3735a920a3ca505d382bbc60001b612a4e565b60000160006101000a81548173ffffffffffffffffffffffffffffffffffffffff021916908373ffffffffffffffffffffffffffffffffffffffff16021790555050565b60606000808473ffffffffffffffffffffffffffffffffffffffff1684604051612b4f9190613f6a565b600060405180830381855af49150503d8060008114612b8a576040519150601f19603f3d011682016040523d82523d6000602084013e612b8f565b606091505b5091509150612b9f858383612c06565b9250505092915050565b6000341115612be4576040517fb398979f00000000000000000000000000000000000000000000000000000000815260040160405180910390fd5b565b6000612bf061275a565b60000160089054906101000a900460ff16905090565b606082612c1b57612c1682612c95565b612c8d565b60008251148015612c43575060008473ffffffffffffffffffffffffffffffffffffffff163b145b15612c8557836040517f9996b315000000000000000000000000000000000000000000000000000000008152600401612c7c91906135d5565b60405180910390fd5b819050612c8e565b5b9392505050565b600081511115612ca757805160208201fd5b6040517fd6bda27500000000000000000000000000000000000000000000000000000000815260040160405180910390fd5b6000819050919050565b612cec81612cd9565b82525050565b6000602082019050612d076000830184612ce3565b92915050565b600073ffffffffffffffffffffffffffffffffffffffff82169050919050565b6000819050919050565b6000612d52612d4d612d4884612d0d565b612d2d565b612d0d565b9050919050565b6000612d6482612d37565b9050919050565b6000612d7682612d59565b9050919050565b612d8681612d6b565b82525050565b6000602082019050612da16000830184612d7d565b92915050565b6000604051905090565b600080fd5b600080fd5b6000612dc682612d0d565b9050919050565b612dd681612dbb565b8114612de157600080fd5b50565b600081359050612df381612dcd565b92915050565b600060208284031215612e0f57612e0e612db1565b5b6000612e1d84828501612de4565b91505092915050565b600080fd5b600080fd5b6000601f19601f8301169050919050565b7f4e487b7100000000000000000000000000000000000000000000000000000000600052604160045260246000fd5b612e7982612e30565b810181811067ffffffffffffffff82111715612e9857612e97612e41565b5b80604052505050565b6000612eab612da7565b9050612eb78282612e70565b919050565b600067ffffffffffffffff821115612ed757612ed6612e41565b5b612ee082612e30565b9050602081019050919050565b82818337600083830152505050565b6000612f0f612f0a84612ebc565b612ea1565b905082815260208101848484011115612f2b57612f2a612e2b565b5b612f36848285612eed565b509392505050565b600082601f830112612f5357612f52612e26565b5b8135612f63848260208601612efc565b91505092915050565b600060208284031215612f8257612f81612db1565b5b600082013567ffffffffffffffff811115612fa057612f9f612db6565b5b612fac84828501612f3e565b91505092915050565b6000819050919050565b612fc881612fb5565b8114612fd357600080fd5b50565b600081359050612fe581612fbf565b92915050565b600067ffffffffffffffff82111561300657613005612e41565b5b602082029050602081019050919050565b600080fd5b600061302f61302a84612feb565b612ea1565b9050808382526020820190506020840283018581111561305257613051613017565b5b835b8181101561307b57806130678882612fd6565b845260208401935050602081019050613054565b5050509392505050565b600082601f83011261309a57613099612e26565b5b81356130aa84826020860161301c565b91505092915050565b600080604083850312156130ca576130c9612db1565b5b60006130d885828601612fd6565b925050602083013567ffffffffffffffff8111156130f9576130f8612db6565b5b61310585828601613085565b9150509250929050565b600061311a82612d59565b9050919050565b61312a8161310f565b82525050565b60006020820190506131456000830184613121565b92915050565b600063ffffffff82169050919050565b6131648161314b565b82525050565b600060208201905061317f600083018461315b565b92915050565b600081519050919050565b600082825260208201905092915050565b6000819050602082019050919050565b600081519050919050565b600082825260208201905092915050565b60005b838110156131eb5780820151818401526020810190506131d0565b60008484015250505050565b6000613202826131b1565b61320c81856131bc565b935061321c8185602086016131cd565b61322581612e30565b840191505092915050565b600061323c83836131f7565b905092915050565b6000602082019050919050565b600061325c82613185565b6132668185613190565b935083602082028501613278856131a1565b8060005b858110156132b457848403895281516132958582613230565b94506132a083613244565b925060208a0199505060018101905061327c565b50829750879550505050505092915050565b600060208201905081810360008301526132e08184613251565b905092915050565b600067ffffffffffffffff82111561330357613302612e41565b5b61330c82612e30565b9050602081019050919050565b600061332c613327846132e8565b612ea1565b90508281526020810184848401111561334857613347612e2b565b5b613353848285612eed565b509392505050565b600082601f8301126133705761336f612e26565b5b8135613380848260208601613319565b91505092915050565b600080604083850312156133a05761339f612db1565b5b60006133ae85828601612de4565b925050602083013567ffffffffffffffff8111156133cf576133ce612db6565b5b6133db8582860161335b565b9150509250929050565b60006133f082612d0d565b9050919050565b613400816133e5565b811461340b57600080fd5b50565b60008135905061341d816133f7565b92915050565b60006020828403121561343957613438612db1565b5b60006134478482850161340e565b91505092915050565b600061ffff82169050919050565b61346781613450565b82525050565b6000602082019050613482600083018461345e565b92915050565b61349181612cd9565b811461349c57600080fd5b50565b6000813590506134ae81613488565b92915050565b6134bd8161314b565b81146134c857600080fd5b50565b6000813590506134da816134b4565b92915050565b6134e981613450565b81146134f457600080fd5b50565b600081359050613506816134e0565b92915050565b60008060008060008060c0878903121561352957613528612db1565b5b600061353789828a01612de4565b965050602061354889828a01612de4565b955050604061355989828a01612fd6565b945050606061356a89828a0161349f565b935050608061357b89828a016134cb565b92505060a061358c89828a016134f7565b9150509295509295509295565b6000602082840312156135af576135ae612db1565b5b60006135bd84828501612fd6565b91505092915050565b6135cf81612dbb565b82525050565b60006020820190506135ea60008301846135c6565b92915050565b60008115159050919050565b613605816135f0565b82525050565b600060208201905061362060008301846135fc565b92915050565b61362f81612fb5565b82525050565b600060208201905061364a6000830184613626565b92915050565b600082825260208201905092915050565b600061366c826131b1565b6136768185613650565b93506136868185602086016131cd565b61368f81612e30565b840191505092915050565b600060208201905081810360008301526136b48184613661565b905092915050565b60006040820190506136d160008301856135c6565b6136de6020830184613626565b9392505050565b60006bffffffffffffffffffffffff82169050919050565b613706816136e5565b82525050565b600067ffffffffffffffff82169050919050565b6137298161370c565b82525050565b600081519050919050565b600082825260208201905092915050565b6000819050602082019050919050565b61376481612dbb565b82525050565b6000613776838361375b565b60208301905092915050565b6000602082019050919050565b600061379a8261372f565b6137a4818561373a565b93506137af8361374b565b8060005b838110156137e05781516137c7888261376a565b97506137d283613782565b9250506001810190506137b3565b5085935050505092915050565b600060808201905061380260008301876136fd565b61380f6020830186613720565b61381c60408301856135c6565b818103606083015261382e818461378f565b905095945050505050565b60008060006060848603121561385257613851612db1565b5b60006138608682870161349f565b9350506020613871868287016134cb565b9250506040613882868287016134f7565b9150509250925092565b7f4e487b7100000000000000000000000000000000000000000000000000000000600052602260045260246000fd5b600060028204905060018216806138d357607f821691505b6020821081036138e6576138e561388c565b5b50919050565b60008190508160005260206000209050919050565b60006020601f8301049050919050565b600082821b905092915050565b60006008830261394e7fffffffffffffffffffffffffffffffffffffffffffffffffffffffffffffffff82613911565b6139588683613911565b95508019841693508086168417925050509392505050565b600061398b61398661398184612fb5565b612d2d565b612fb5565b9050919050565b6000819050919050565b6139a583613970565b6139b96139b182613992565b84845461391e565b825550505050565b600090565b6139ce6139c1565b6139d981848461399c565b505050565b5b818110156139fd576139f26000826139c6565b6001810190506139df565b5050565b601f821115613a4257613a13816138ec565b613a1c84613901565b81016020851015613a2b578190505b613a3f613a3785613901565b8301826139de565b50505b505050565b600082821c905092915050565b6000613a6560001984600802613a47565b1980831691505092915050565b6000613a7e8383613a54565b9150826002028217905092915050565b613a97826131b1565b67ffffffffffffffff811115613ab057613aaf612e41565b5b613aba82546138bb565b613ac5828285613a01565b600060209050601f831160018114613af85760008415613ae6578287015190505b613af08582613a72565b865550613b58565b601f198416613b06866138ec565b60005b82811015613b2e57848901518255600182019150602085019450602081019050613b09565b86831015613b4b5784890151613b47601f891682613a54565b8355505b6001600288020188555050505b505050505050565b7f4e487b7100000000000000000000000000000000000000000000000000000000600052601160045260246000fd5b6000613b9a82612fb5565b9150613ba583612fb5565b9250828203905081811115613bbd57613bbc613b60565b5b92915050565b6000613bce82612fb5565b91507fffffffffffffffffffffffffffffffffffffffffffffffffffffffffffffffff8203613c0057613bff613b60565b5b600182019050919050565b7f4f6e6c7920565246436f6f7264696e61746f722063616e2066756c66696c6c00600082015250565b6000613c41601f83613650565b9150613c4c82613c0b565b602082019050919050565b60006020820190508181036000830152613c7081613c34565b9050919050565b7f496e76616c696420726571756573740000000000000000000000000000000000600082015250565b6000613cad600f83613650565b9150613cb882613c77565b602082019050919050565b60006020820190508181036000830152613cdc81613ca0565b9050919050565b7f4e6f207072697a6573206c656674000000000000000000000000000000000000600082015250565b6000613d19600e83613650565b9150613d2482613ce3565b602082019050919050565b60006020820190508181036000830152613d4881613d0c565b9050919050565b7f4e487b7100000000000000000000000000000000000000000000000000000000600052603260045260246000fd5b7f4e487b7100000000000000000000000000000000000000000000000000000000600052601260045260246000fd5b6000613db882612fb5565b9150613dc383612fb5565b925082613dd357613dd2613d7e565b5b828206905092915050565b6000613de982612fb5565b915060008203613dfc57613dfb613b60565b5b600182039050919050565b6000604082019050613e1c60008301856135c6565b8181036020830152613e2e8184613661565b90509392505050565b600081519050613e4681612fbf565b92915050565b600060208284031215613e6257613e61612db1565b5b6000613e7084828501613e37565b91505092915050565b6000606082019050613e8e6000830186613626565b613e9b6020830185613626565b8181036040830152613ead8184613661565b9050949350505050565b7f4e6f2062616c616e636500000000000000000000000000000000000000000000600082015250565b6000613eed600a83613650565b9150613ef882613eb7565b602082019050919050565b60006020820190508181036000830152613f1c81613ee0565b9050919050565b600081519050919050565b600081905092915050565b6000613f4482613f23565b613f4e8185613f2e565b9350613f5e8185602086016131cd565b80840191505092915050565b6000613f768284613f39565b915081905092915050565b613f8a816136e5565b8114613f9557600080fd5b50565b600081519050613fa781613f81565b92915050565b613fb68161370c565b8114613fc157600080fd5b50565b600081519050613fd381613fad565b92915050565b600081519050613fe8816133f7565b92915050565b600067ffffffffffffffff82111561400957614008612e41565b5b602082029050602081019050919050565b60008151905061402981612dcd565b92915050565b600061404261403d84613fee565b612ea1565b9050808382526020820190506020840283018581111561406557614064613017565b5b835b8181101561408e578061407a888261401a565b845260208401935050602081019050614067565b5050509392505050565b600082601f8301126140ad576140ac612e26565b5b81516140bd84826020860161402f565b91505092915050565b600080600080608085870312156140e0576140df612db1565b5b60006140ee87828801613f98565b94505060206140ff87828801613fc4565b935050604061411087828801613fd9565b925050606085015167ffffffffffffffff81111561413157614130612db6565b5b61413d87828801614098565b91505092959194509250565b7f496e76616c69642056524620737562736372697074696f6e2049440000000000600082015250565b600061417f601b83613650565b915061418a82614149565b602082019050919050565b600060208201905081810360008301526141ae81614172565b9050919050565b7f56524620636f6f7264696e61746f7220646f65736e277420737570706f72742060008201527f6c6172676520737562736372697074696f6e2049447300000000000000000000602082015250565b6000614211603683613650565b915061421c826141b5565b604082019050919050565b6000602082019050818103600083015261424081614204565b9050919050565b6000819050919050565b600061426c61426761426284614247565b612d2d565b61370c565b9050919050565b61427c81614251565b82525050565b60006020820190506142976000830184614273565b92915050565b7f496e76616c696420696e64657800000000000000000000000000000000000000600082015250565b60006142d3600d83613650565b91506142de8261429d565b602082019050919050565b60006020820190508181036000830152614302816142c6565b9050919050565b7f416c72656164792072656d6f7665640000000000000000000000000000000000600082015250565b600061433f600f83613650565b915061434a82614309565b602082019050919050565b6000602082019050818103600083015261436e81614332565b9050919050565b60008154614382816138bb565b61438c8186613650565b945060018216600081146143a757600181146143bd576143f0565b60ff1983168652811515602002860193506143f0565b6143c6856138ec565b60005b838110156143e8578154818901526001820191506020810190506143c9565b808801955050505b50505092915050565b600060208201905081810360008301526144138184614375565b905092915050565b7f496e73756666696369656e74207061796d656e74000000000000000000000000600082015250565b6000614451601483613650565b915061445c8261441b565b602082019050919050565b6000602082019050818103600083015261448081614444565b9050919050565b7f4661696c656420746f2067657420737562736372697074696f6e20696e666f00600082015250565b60006144bd601f83613650565b91506144c882614487565b602082019050919050565b600060208201905081810360008301526144ec816144b0565b9050919050565b7f56524620737562736372697074696f6e206e6f742066756e6465640000000000600082015250565b6000614529601b83613650565b9150614534826144f3565b602082019050919050565b600060208201905081810360008301526145588161451c565b9050919050565b7f56524620737562736372697074696f6e20646f6573206e6f7420657869737400600082015250565b6000614595601f83613650565b91506145a08261455f565b602082019050919050565b600060208201905081810360008301526145c481614588565b9050919050565b7f436f6e7472616374206e6f74207265676973746572656420617320565246206360008201527f6f6e73756d657200000000000000000000000000000000000000000000000000602082015250565b6000614627602783613650565b9150614632826145cb565b604082019050919050565b600060208201905081810360008301526146568161461a565b9050919050565b600060a0820190506146726000830188612ce3565b61467f6020830187613626565b61468c604083018661345e565b614699606083018561315b565b6146a6608083018461315b565b9695505050505050565b7f5652462072657175657374206661696c65640000000000000000000000000000600082015250565b60006146e6601283613650565b91506146f1826146b0565b602082019050919050565b60006020820190508181036000830152614715816146d9565b9050919050565b7f537562736372697074696f6e20646f6573206e6f742065786973740000000000600082015250565b6000614752601b83613650565b915061475d8261471c565b602082019050919050565b6000602082019050818103600083015261478181614745565b9050919050565b600060408201905061479d6000830185613626565b6147aa6020830184613626565b9392505050565b7f496e76616c696420676173206c696d6974000000000000000000000000000000600082015250565b60006147e7601183613650565b91506147f2826147b1565b602082019050919050565b60006020820190508181036000830152614816816147da565b9050919050565b7f496e76616c696420636f6e6669726d6174696f6e730000000000000000000000600082015250565b6000614853601583613650565b915061485e8261481d565b602082019050919050565b6000602082019050818103600083015261488281614846565b9050919050565b600060608201905061489e6000830186612ce3565b6148ab602083018561315b565b6148b8604083018461345e565b949350505050565b6000815190506148cf81613488565b92915050565b6000602082840312156148eb576148ea612db1565b5b60006148f9848285016148c0565b9150509291505056fea2646970667358221220701f86bc8d0a839ae0508f2321a835346e93997a2d6db27f9b9624ed684d9c4664736f6c634300081c0033",
  "linkReferences": {},
  "deployedLinkReferences": {}
}