{
  "_format": "hh-sol-artifact-1",
  "contractName": "VRFCoordinatorV2Mock",
  "sourceName": "contracts/MockVRFCoordinator.sol",
  "abi": [
    {
      "anonymous": false,
      "inputs": [
        {
          "indexed": true,
          "internalType": "uint256",
          "name": "requestId",
          "type": "uint256"
        },
        {
          "indexed": false,
          "internalType": "uint256[]",
          "name": "randomWords",
          "type": "uint256[]"
        }
      ],
      "name": "RandomWordsFulfilled",
      "type": "event"
    },
    {
      "anonymous": false,
      "inputs": [
        {
          "indexed": true,
          "internalType": "bytes32",
          "name": "keyHash",
          "type": "bytes32"
        },
        {
          "indexed": false,
          "internalType": "uint256",
          "name": "requestId",
          "type": "uint256"
        },
        {
          "indexed": false,
          "internalType": "uint256",
          "name": "preSeed",
          "type": "uint256"
        },
        {
          "indexed": true,
          "internalType": "uint64",
          "name": "subId",
          "type": "uint64"
        },
        {
          "indexed": false,
          "internalType": "uint16",
          "name": "minimumRequestConfirmations",
          "type": "uint16"
        },
        {
          "indexed": false,
          "internalType": "uint32",
          "name": "callbackGasLimit",
          "type": "uint32"
        },
        {
          "indexed": false,
          "internalType": "uint32",
          "name": "numWords",
          "type": "uint32"
        },
        {
          "indexed": true,
          "internalType": "address",
          "name": "sender",
          "type": "address"
        }
      ],
      "name": "RandomWordsRequested",
      "type": "event"
    },
    {
      "inputs": [],
      "name": "BASE_FEE",
      "outputs": [
        {
          "internalType": "uint96",
          "name": "",
          "type": "uint96"
        }
      ],
      "stateMutability": "view",
      "type": "function"
    },
    {
      "inputs": [],
      "name": "GAS_PRICE_LINK",
      "outputs": [
        {
          "internalType": "uint96",
          "name": "",
          "type": "uint96"
        }
      ],
      "stateMutability": "view",
      "type": "function"
    },
    {
      "inputs": [
        {
          "internalType": "uint64",
          "name": "subId",
          "type": "uint64"
        }
      ],
      "name": "acceptSubscriptionOwnerTransfer",
      "outputs": [],
      "stateMutability": "nonpayable",
      "type": "function"
    },
    {
      "inputs": [
        {
          "internalType": "uint64",
          "name": "subId",
          "type": "uint64"
        },
        {
          "internalType": "address",
          "name": "consumer",
          "type": "address"
        }
      ],
      "name": "addConsumer",
      "outputs": [],
      "stateMutability": "nonpayable",
      "type": "function"
    },
    {
      "inputs": [
        {
          "internalType": "uint256",
          "name": "subId",
          "type": "uint256"
        },
        {
          "internalType": "address",
          "name": "consumer",
          "type": "address"
        }
      ],
      "name": "addConsumerToSubscription",
      "outputs": [],
      "stateMutability": "nonpayable",
      "type": "function"
    },
    {
      "inputs": [
        {
          "internalType": "uint64",
          "name": "subId",
          "type": "uint64"
        },
        {
          "internalType": "address",
          "name": "to",
          "type": "address"
        }
      ],
      "name": "cancelSubscription",
      "outputs": [],
      "stateMutability": "nonpayable",
      "type": "function"
    },
    {
      "inputs": [],
      "name": "createSubscription",
      "outputs": [
        {
          "internalType": "uint64",
          "name": "subId",
          "type": "uint64"
        }
      ],
      "stateMutability": "nonpayable",
      "type": "function"
    },
    {
      "inputs": [
        {
          "internalType": "uint256",
          "name": "subId",
          "type": "uint256"
        },
        {
          "internalType": "address",
          "name": "owner",
          "type": "address"
        },
        {
          "internalType": "uint96",
          "name": "balance",
          "type": "uint96"
        }
      ],
      "name": "createSubscriptionWithId",
      "outputs": [],
      "stateMutability": "nonpayable",
      "type": "function"
    },
    {
      "inputs": [
        {
          "internalType": "uint256",
          "name": "requestId",
          "type": "uint256"
        },
        {
          "internalType": "uint256[]",
          "name": "randomWords",
          "type": "uint256[]"
        }
      ],
      "name": "fulfillRandomWords",
      "outputs": [],
      "stateMutability": "nonpayable",
      "type": "function"
    },
    {
      "inputs": [
        {
          "internalType": "uint256",
          "name": "requestId",
          "type": "uint256"
        },
        {
          "internalType": "uint256",
          "name": "seed",
          "type": "uint256"
        }
      ],
      "name": "fulfillRandomWordsWithSeed",
      "outputs": [],
      "stateMutability": "nonpayable",
      "type": "function"
    },
    {
      "inputs": [],
      "name": "getRequestConfig",
      "outputs": [
        {
          "internalType": "uint16",
          "name": "",
          "type": "uint16"
        },
        {
          "internalType": "uint32",
          "name": "",
          "type": "uint32"
        },
        {
          "internalType": "bytes32[]",
          "name": "",
          "type": "bytes32[]"
        }
      ],
      "stateMutability": "pure",
      "type": "function"
    },
    {
      "inputs": [
        {
          "internalType": "uint64",
          "name": "subId",
          "type": "uint64"
        }
      ],
      "name": "getSubscription",
      "outputs": [
        {
          "internalType": "uint96",
          "name": "balance",
          "type": "uint96"
        },
        {
          "internalType": "uint64",
          "name": "reqCount",
          "type": "uint64"
        },
        {
          "internalType": "address",
          "name": "owner",
          "type": "address"
        },
        {
          "internalType": "address[]",
          "name": "consumers",
          "type": "address[]"
        }
      ],
      "stateMutability": "view",
      "type": "function"
    },
    {
      "inputs": [
        {
          "internalType": "uint256",
          "name": "subId",
          "type": "uint256"
        }
      ],
      "name": "getSubscription",
      "outputs": [
        {
          "internalType": "uint96",
          "name": "balance",
          "type": "uint96"
        },
        {
          "internalType": "uint64",
          "name": "reqCount",
          "type": "uint64"
        },
        {
          "internalType": "address",
          "name": "owner",
          "type": "address"
        },
        {
          "internalType": "address[]",
          "name": "consumers",
          "type": "address[]"
        }
      ],
      "stateMutability": "view",
      "type": "function"
    },
    {
      "inputs": [
        {
          "internalType": "uint64",
          "name": "subId",
          "type": "uint64"
        }
      ],
      "name": "pendingRequestExists",
      "outputs": [
        {
          "internalType": "bool",
          "name": "",
          "type": "bool"
        }
      ],
      "stateMutability": "view",
      "type": "function"
    },
    {
      "inputs": [
        {
          "internalType": "uint64",
          "name": "subId",
          "type": "uint64"
        },
        {
          "internalType": "address",
          "name": "consumer",
          "type": "address"
        }
      ],
      "name": "removeConsumer",
      "outputs": [],
      "stateMutability": "nonpayable",
      "type": "function"
    },
    {
      "inputs": [
        {
          "internalType": "uint256",
          "name": "requestId",
          "type": "uint256"
        }
      ],
      "name": "requestExists",
      "outputs": [
        {
          "internalType": "bool",
          "name": "",
          "type": "bool"
        }
      ],
      "stateMutability": "view",
      "type": "function"
    },
    {
      "inputs": [
        {
          "internalType": "uint256",
          "name": "",
          "type": "uint256"
        }
      ],
      "name": "requestIdToRequestCommitment",
      "outputs": [
        {
          "internalType": "uint256",
          "name": "",
          "type": "uint256"
        }
      ],
      "stateMutability": "view",
      "type": "function"
    },
    {
      "inputs": [
        {
          "internalType": "uint256",
          "name": "",
          "type": "uint256"
        }
      ],
      "name": "requestIdToSender",
      "outputs": [
        {
          "internalType": "address",
          "name": "",
          "type": "address"
        }
      ],
      "stateMutability": "view",
      "type": "function"
    },
    {
      "inputs": [
        {
          "internalType": "bytes32",
          "name": "keyHash",
          "type": "bytes32"
        },
        {
          "internalType": "uint64",
          "name": "subId",
          "type": "uint64"
        },
        {
          "internalType": "uint16",
          "name": "minimumRequestConfirmations",
          "type": "uint16"
        },
        {
          "internalType": "uint32",
          "name": "callbackGasLimit",
          "type": "uint32"
        },
        {
          "internalType": "uint32",
          "name": "numWords",
          "type": "uint32"
        }
      ],
      "name": "requestRandomWords",
      "outputs": [
        {
          "internalType": "uint256",
          "name": "requestId",
          "type": "uint256"
        }
      ],
      "stateMutability": "nonpayable",
      "type": "function"
    },
    {
      "inputs": [
        {
          "internalType": "bytes32",
          "name": "keyHash",
          "type": "bytes32"
        },
        {
          "internalType": "uint256",
          "name": "subId",
          "type": "uint256"
        },
        {
          "internalType": "uint16",
          "name": "minimumRequestConfirmations",
          "type": "uint16"
        },
        {
          "internalType": "uint32",
          "name": "callbackGasLimit",
          "type": "uint32"
        },
        {
          "internalType": "uint32",
          "name": "numWords",
          "type": "uint32"
        }
      ],
      "name": "requestRandomWords",
      "outputs": [
        {
          "internalType": "uint256",
          "name": "requestId",
          "type": "uint256"
        }
      ],
      "stateMutability": "nonpayable",
      "type": "function"
    },
    {
      "inputs": [
        {
          "internalType": "uint64",
          "name": "subId",
          "type": "uint64"
        },
        {
          "internalType": "address",
          "name": "newOwner",
          "type": "address"
        }
      ],
      "name": "requestSubscriptionOwnerTransfer",
      "outputs": [],
      "stateMutability": "nonpayable",
      "type": "function"
    },
    {
      "inputs": [
        {
          "internalType": "uint256",
          "name": "",
          "type": "uint256"
        }
      ],
      "name": "subscriptionBalances",
      "outputs": [
        {
          "internalType": "uint96",
          "name": "",
          "type": "uint96"
        }
      ],
      "stateMutability": "view",
      "type": "function"
    },
    {
      "inputs": [
        {
          "internalType": "uint256",
          "name": "",
          "type": "uint256"
        },
        {
          "internalType": "uint256",
          "name": "",
          "type": "uint256"
        }
      ],
      "name": "subscriptionConsumers",
      "outputs": [
        {
          "internalType": "address",
          "name": "",
          "type": "address"
        }
      ],
      "stateMutability": "view",
      "type": "function"
    },
    {
      "inputs": [
        {
          "internalType": "uint256",
          "name": "",
          "type": "uint256"
        }
      ],
      "name": "subscriptionOwners",
      "outputs": [
        {
          "internalType": "address",
          "name": "",
          "type": "address"
        }
      ],
      "stateMutability": "view",
      "type": "function"
    }
  ],
  "bytecode": "0x6080604052600160005560018055348015601857600080fd5b50612753806100286000396000f3fe608060405234801561001057600080fd5b50600436106101575760003560e01c80639f87fad7116100c3578063d7ae1d301161007c578063d7ae1d30146103ed578063da1297e514610409578063dc311dd314610439578063e82ad7d41461046c578063ea277eca1461049c578063f4a972ed146104cc57610157565b80639f87fad714610302578063a21a23e41461031e578063a410347f1461033c578063a47c76961461035a578063a54c43901461038d578063d33d44c1146103bd57610157565b806338ba46141161011557806338ba4614146102305780633d18651e1461024c5780635d3b1d301461026a5780637341c10c1461029a57806382359740146102b65780638e2de4d3146102d257610157565b80620122911461015c57806304c357cb1461017c57806311bcbfad1461019857806312261b49146101c8578063169811e9146101e45780632011eeb814610200575b600080fd5b6101646104e8565b60405161017393929190611911565b60405180910390f35b61019660048036038101906101919190611a01565b610592565b005b6101b260048036038101906101ad9190611a77565b61069d565b6040516101bf9190611acb565b60405180910390f35b6101e260048036038101906101dd9190611ae6565b6106c8565b005b6101fe60048036038101906101f99190611b52565b610740565b005b61021a60048036038101906102159190611a77565b6107d9565b6040516102279190611bb4565b60405180910390f35b61024a60048036038101906102459190611d28565b61080c565b005b610254610ad0565b6040516102619190611acb565b60405180910390f35b610284600480360381019061027f9190611e08565b610adc565b6040516102919190611e92565b60405180910390f35b6102b460048036038101906102af9190611a01565b610c09565b005b6102d060048036038101906102cb9190611ead565b610d36565b005b6102ec60048036038101906102e79190611a77565b610d95565b6040516102f99190611bb4565b60405180910390f35b61031c60048036038101906103179190611a01565b610dc8565b005b61032661101a565b6040516103339190611ee9565b60405180910390f35b610344611094565b6040516103519190611acb565b60405180910390f35b610374600480360381019061036f9190611ead565b61109c565b6040516103849493929190611fc2565b60405180910390f35b6103a760048036038101906103a2919061200e565b6111cd565b6040516103b49190611bb4565b60405180910390f35b6103d760048036038101906103d2919061204e565b61121b565b6040516103e49190611e92565b60405180910390f35b61040760048036038101906104029190611a01565b611348565b005b610423600480360381019061041e9190611a77565b611500565b6040516104309190611e92565b60405180910390f35b610453600480360381019061044e9190611a77565b611518565b6040516104639493929190611fc2565b60405180910390f35b61048660048036038101906104819190611ead565b61162b565b60405161049391906120e4565b60405180910390f35b6104b660048036038101906104b19190611a77565b6116a1565b6040516104c391906120e4565b60405180910390f35b6104e660048036038101906104e1919061200e565b6116c1565b005b60008060606000600167ffffffffffffffff81111561050a57610509611be5565b5b6040519080825280602002602001820160405280156105385781602001602082028036833780820191505090505b5090507f474e34a077df58807dbe9c96d3c009b23b3c6d0cce433e59bbf5b34f823bc56c60001b81600081518110610573576105726120ff565b5b60200260200101818152505060036207a1208293509350935050909192565b3373ffffffffffffffffffffffffffffffffffffffff16600460008467ffffffffffffffff16815260200190815260200160002060009054906101000a900473ffffffffffffffffffffffffffffffffffffffff1673ffffffffffffffffffffffffffffffffffffffff161461063d576040517f08c379a00000000000000000000000000000000000000000000000000000000081526004016106349061218b565b60405180910390fd5b80600460008467ffffffffffffffff16815260200190815260200160002060006101000a81548173ffffffffffffffffffffffffffffffffffffffff021916908373ffffffffffffffffffffffffffffffffffffffff1602179055505050565b60066020528060005260406000206000915054906101000a90046bffffffffffffffffffffffff1681565b60056000838152602001908152602001600020819080600181540180825580915050600190039060005260206000200160009091909190916101000a81548173ffffffffffffffffffffffffffffffffffffffff021916908373ffffffffffffffffffffffffffffffffffffffff1602179055505050565b816004600085815260200190815260200160002060006101000a81548173ffffffffffffffffffffffffffffffffffffffff021916908373ffffffffffffffffffffffffffffffffffffffff160217905550806006600085815260200190815260200160002060006101000a8154816bffffffffffffffffffffffff02191690836bffffffffffffffffffffffff160217905550505050565b60046020528060005260406000206000915054906101000a900473ffffffffffffffffffffffffffffffffffffffff1681565b60006002600084815260200190815260200160002060009054906101000a900473ffffffffffffffffffffffffffffffffffffffff169050600073ffffffffffffffffffffffffffffffffffffffff168173ffffffffffffffffffffffffffffffffffffffff16036108b3576040517f08c379a00000000000000000000000000000000000000000000000000000000081526004016108aa906121f7565b60405180910390fd5b6000600360008581526020019081526020016000205403610909576040517f08c379a000000000000000000000000000000000000000000000000000000000815260040161090090612263565b60405180910390fd5b60036000848152602001908152602001600020600090556002600084815260200190815260200160002060006101000a81549073ffffffffffffffffffffffffffffffffffffffff021916905560008173ffffffffffffffffffffffffffffffffffffffff168484604051602401610982929190612341565b6040516020818303038152906040527f38ba4614000000000000000000000000000000000000000000000000000000007bffffffffffffffffffffffffffffffffffffffffffffffffffffffff19166020820180517bffffffffffffffffffffffffffffffffffffffffffffffffffffffff8381831617835250505050604051610a0c91906123e2565b6000604051808303816000865af19150503d8060008114610a49576040519150601f19603f3d011682016040523d82523d6000602084013e610a4e565b606091505b5050905080610a92576040517f08c379a0000000000000000000000000000000000000000000000000000000008152600401610a8990612445565b60405180910390fd5b837ff45ee76115b0ed5f4ebe293254449fbe612bad36a53d52b87b6a40687adc48de84604051610ac29190612465565b60405180910390a250505050565b6703782dace9d9000081565b6000806000815480929190610af0906124b6565b919050559050336002600083815260200190815260200160002060006101000a81548173ffffffffffffffffffffffffffffffffffffffff021916908373ffffffffffffffffffffffffffffffffffffffff1602179055506000863387600054888888604051602001610b69979695949392919061250d565b6040516020818303038152906040528051906020012060001c90508060036000848152602001908152602001600020819055503373ffffffffffffffffffffffffffffffffffffffff168667ffffffffffffffff16887f63373d1c4696214b898952999c9aaec57dac1ee2723cec59bea6888f489a97728560008a8a8a604051610bf79594939291906125c1565b60405180910390a45095945050505050565b3373ffffffffffffffffffffffffffffffffffffffff16600460008467ffffffffffffffff16815260200190815260200160002060009054906101000a900473ffffffffffffffffffffffffffffffffffffffff1673ffffffffffffffffffffffffffffffffffffffff1614610cb4576040517f08c379a0000000000000000000000000000000000000000000000000000000008152600401610cab9061218b565b60405180910390fd5b600560008367ffffffffffffffff168152602001908152602001600020819080600181540180825580915050600190039060005260206000200160009091909190916101000a81548173ffffffffffffffffffffffffffffffffffffffff021916908373ffffffffffffffffffffffffffffffffffffffff1602179055505050565b33600460008367ffffffffffffffff16815260200190815260200160002060006101000a81548173ffffffffffffffffffffffffffffffffffffffff021916908373ffffffffffffffffffffffffffffffffffffffff16021790555050565b60026020528060005260406000206000915054906101000a900473ffffffffffffffffffffffffffffffffffffffff1681565b3373ffffffffffffffffffffffffffffffffffffffff16600460008467ffffffffffffffff16815260200190815260200160002060009054906101000a900473ffffffffffffffffffffffffffffffffffffffff1673ffffffffffffffffffffffffffffffffffffffff1614610e73576040517f08c379a0000000000000000000000000000000000000000000000000000000008152600401610e6a9061218b565b60405180910390fd5b6000600560008467ffffffffffffffff168152602001908152602001600020905060005b8180549050811015611014578273ffffffffffffffffffffffffffffffffffffffff16828281548110610ecd57610ecc6120ff565b5b9060005260206000200160009054906101000a900473ffffffffffffffffffffffffffffffffffffffff1673ffffffffffffffffffffffffffffffffffffffff1603611007578160018380549050610f259190612614565b81548110610f3657610f356120ff565b5b9060005260206000200160009054906101000a900473ffffffffffffffffffffffffffffffffffffffff16828281548110610f7457610f736120ff565b5b9060005260206000200160006101000a81548173ffffffffffffffffffffffffffffffffffffffff021916908373ffffffffffffffffffffffffffffffffffffffff16021790555081805480610fcd57610fcc612648565b5b6001900381819060005260206000200160006101000a81549073ffffffffffffffffffffffffffffffffffffffff02191690559055611014565b8080600101915050610e97565b50505050565b60006001600081548092919061102f906124b6565b91905055905033600460008367ffffffffffffffff16815260200190815260200160002060006101000a81548173ffffffffffffffffffffffffffffffffffffffff021916908373ffffffffffffffffffffffffffffffffffffffff16021790555090565b633b9aca0081565b60008060006060600660008667ffffffffffffffff16815260200190815260200160002060009054906101000a90046bffffffffffffffffffffffff166000600460008867ffffffffffffffff16815260200190815260200160002060009054906101000a900473ffffffffffffffffffffffffffffffffffffffff16600560008967ffffffffffffffff168152602001908152602001600020808054806020026020016040519081016040528092919081815260200182805480156111b757602002820191906000526020600020905b8160009054906101000a900473ffffffffffffffffffffffffffffffffffffffff1673ffffffffffffffffffffffffffffffffffffffff168152602001906001019080831161116d575b5050505050905093509350935093509193509193565b600560205281600052604060002081815481106111e957600080fd5b906000526020600020016000915091509054906101000a900473ffffffffffffffffffffffffffffffffffffffff1681565b600080600081548092919061122f906124b6565b919050559050336002600083815260200190815260200160002060006101000a81548173ffffffffffffffffffffffffffffffffffffffff021916908373ffffffffffffffffffffffffffffffffffffffff16021790555060008633876000548888886040516020016112a89796959493929190612677565b6040516020818303038152906040528051906020012060001c90508060036000848152602001908152602001600020819055503373ffffffffffffffffffffffffffffffffffffffff168667ffffffffffffffff16887f63373d1c4696214b898952999c9aaec57dac1ee2723cec59bea6888f489a97728560008a8a8a6040516113369594939291906125c1565b60405180910390a45095945050505050565b3373ffffffffffffffffffffffffffffffffffffffff16600460008467ffffffffffffffff16815260200190815260200160002060009054906101000a900473ffffffffffffffffffffffffffffffffffffffff1673ffffffffffffffffffffffffffffffffffffffff16146113f3576040517f08c379a00000000000000000000000000000000000000000000000000000000081526004016113ea9061218b565b60405180910390fd5b6000600660008467ffffffffffffffff16815260200190815260200160002060009054906101000a90046bffffffffffffffffffffffff1690506000816bffffffffffffffffffffffff161115611492576000600660008567ffffffffffffffff16815260200190815260200160002060006101000a8154816bffffffffffffffffffffffff02191690836bffffffffffffffffffffffff1602179055505b600460008467ffffffffffffffff16815260200190815260200160002060006101000a81549073ffffffffffffffffffffffffffffffffffffffff0219169055600560008467ffffffffffffffff16815260200190815260200160002060006114fb91906117cf565b505050565b60036020528060005260406000206000915090505481565b600080600060606006600086815260200190815260200160002060009054906101000a90046bffffffffffffffffffffffff1660006004600088815260200190815260200160002060009054906101000a900473ffffffffffffffffffffffffffffffffffffffff16600560008981526020019081526020016000208080548060200260200160405190810160405280929190818152602001828054801561161557602002820191906000526020600020905b8160009054906101000a900473ffffffffffffffffffffffffffffffffffffffff1673ffffffffffffffffffffffffffffffffffffffff16815260200190600101908083116115cb575b5050505050905093509350935093509193509193565b60008073ffffffffffffffffffffffffffffffffffffffff16600460008467ffffffffffffffff16815260200190815260200160002060009054906101000a900473ffffffffffffffffffffffffffffffffffffffff1673ffffffffffffffffffffffffffffffffffffffff1614159050919050565b600080600360008481526020019081526020016000205414159050919050565b6000600167ffffffffffffffff8111156116de576116dd611be5565b5b60405190808252806020026020018201604052801561170c5781602001602082028036833780820191505090505b509050818342604051602001611724939291906126e6565b6040516020818303038152906040528051906020012060001c81600081518110611751576117506120ff565b5b6020026020010181815250503073ffffffffffffffffffffffffffffffffffffffff166338ba461484836040518363ffffffff1660e01b8152600401611798929190612341565b600060405180830381600087803b1580156117b257600080fd5b505af11580156117c6573d6000803e3d6000fd5b50505050505050565b50805460008255906000526020600020908101906117ed91906117f0565b50565b5b808211156118095760008160009055506001016117f1565b5090565b600061ffff82169050919050565b6118248161180d565b82525050565b600063ffffffff82169050919050565b6118438161182a565b82525050565b600081519050919050565b600082825260208201905092915050565b6000819050602082019050919050565b6000819050919050565b61188881611875565b82525050565b600061189a838361187f565b60208301905092915050565b6000602082019050919050565b60006118be82611849565b6118c88185611854565b93506118d383611865565b8060005b838110156119045781516118eb888261188e565b97506118f6836118a6565b9250506001810190506118d7565b5085935050505092915050565b6000606082019050611926600083018661181b565b611933602083018561183a565b818103604083015261194581846118b3565b9050949350505050565b6000604051905090565b600080fd5b600080fd5b600067ffffffffffffffff82169050919050565b61198081611963565b811461198b57600080fd5b50565b60008135905061199d81611977565b92915050565b600073ffffffffffffffffffffffffffffffffffffffff82169050919050565b60006119ce826119a3565b9050919050565b6119de816119c3565b81146119e957600080fd5b50565b6000813590506119fb816119d5565b92915050565b60008060408385031215611a1857611a17611959565b5b6000611a268582860161198e565b9250506020611a37858286016119ec565b9150509250929050565b6000819050919050565b611a5481611a41565b8114611a5f57600080fd5b50565b600081359050611a7181611a4b565b92915050565b600060208284031215611a8d57611a8c611959565b5b6000611a9b84828501611a62565b91505092915050565b60006bffffffffffffffffffffffff82169050919050565b611ac581611aa4565b82525050565b6000602082019050611ae06000830184611abc565b92915050565b60008060408385031215611afd57611afc611959565b5b6000611b0b85828601611a62565b9250506020611b1c858286016119ec565b9150509250929050565b611b2f81611aa4565b8114611b3a57600080fd5b50565b600081359050611b4c81611b26565b92915050565b600080600060608486031215611b6b57611b6a611959565b5b6000611b7986828701611a62565b9350506020611b8a868287016119ec565b9250506040611b9b86828701611b3d565b9150509250925092565b611bae816119c3565b82525050565b6000602082019050611bc96000830184611ba5565b92915050565b600080fd5b6000601f19601f8301169050919050565b7f4e487b7100000000000000000000000000000000000000000000000000000000600052604160045260246000fd5b611c1d82611bd4565b810181811067ffffffffffffffff82111715611c3c57611c3b611be5565b5b80604052505050565b6000611c4f61194f565b9050611c5b8282611c14565b919050565b600067ffffffffffffffff821115611c7b57611c7a611be5565b5b602082029050602081019050919050565b600080fd5b6000611ca4611c9f84611c60565b611c45565b90508083825260208201905060208402830185811115611cc757611cc6611c8c565b5b835b81811015611cf05780611cdc8882611a62565b845260208401935050602081019050611cc9565b5050509392505050565b600082601f830112611d0f57611d0e611bcf565b5b8135611d1f848260208601611c91565b91505092915050565b60008060408385031215611d3f57611d3e611959565b5b6000611d4d85828601611a62565b925050602083013567ffffffffffffffff811115611d6e57611d6d61195e565b5b611d7a85828601611cfa565b9150509250929050565b611d8d81611875565b8114611d9857600080fd5b50565b600081359050611daa81611d84565b92915050565b611db98161180d565b8114611dc457600080fd5b50565b600081359050611dd681611db0565b92915050565b611de58161182a565b8114611df057600080fd5b50565b600081359050611e0281611ddc565b92915050565b600080600080600060a08688031215611e2457611e23611959565b5b6000611e3288828901611d9b565b9550506020611e438882890161198e565b9450506040611e5488828901611dc7565b9350506060611e6588828901611df3565b9250506080611e7688828901611df3565b9150509295509295909350565b611e8c81611a41565b82525050565b6000602082019050611ea76000830184611e83565b92915050565b600060208284031215611ec357611ec2611959565b5b6000611ed18482850161198e565b91505092915050565b611ee381611963565b82525050565b6000602082019050611efe6000830184611eda565b92915050565b600081519050919050565b600082825260208201905092915050565b6000819050602082019050919050565b611f39816119c3565b82525050565b6000611f4b8383611f30565b60208301905092915050565b6000602082019050919050565b6000611f6f82611f04565b611f798185611f0f565b9350611f8483611f20565b8060005b83811015611fb5578151611f9c8882611f3f565b9750611fa783611f57565b925050600181019050611f88565b5085935050505092915050565b6000608082019050611fd76000830187611abc565b611fe46020830186611eda565b611ff16040830185611ba5565b81810360608301526120038184611f64565b905095945050505050565b6000806040838503121561202557612024611959565b5b600061203385828601611a62565b925050602061204485828601611a62565b9150509250929050565b600080600080600060a0868803121561206a57612069611959565b5b600061207888828901611d9b565b955050602061208988828901611a62565b945050604061209a88828901611dc7565b93505060606120ab88828901611df3565b92505060806120bc88828901611df3565b9150509295509295909350565b60008115159050919050565b6120de816120c9565b82525050565b60006020820190506120f960008301846120d5565b92915050565b7f4e487b7100000000000000000000000000000000000000000000000000000000600052603260045260246000fd5b600082825260208201905092915050565b7f4e6f7420746865206f776e657200000000000000000000000000000000000000600082015250565b6000612175600d8361212e565b91506121808261213f565b602082019050919050565b600060208201905081810360008301526121a481612168565b9050919050565b7f6e6f6e6578697374656e74207265717565737400000000000000000000000000600082015250565b60006121e160138361212e565b91506121ec826121ab565b602082019050919050565b60006020820190508181036000830152612210816121d4565b9050919050565b7f616c72656164792066756c66696c6c6564000000000000000000000000000000600082015250565b600061224d60118361212e565b915061225882612217565b602082019050919050565b6000602082019050818103600083015261227c81612240565b9050919050565b600081519050919050565b600082825260208201905092915050565b6000819050602082019050919050565b6122b881611a41565b82525050565b60006122ca83836122af565b60208301905092915050565b6000602082019050919050565b60006122ee82612283565b6122f8818561228e565b93506123038361229f565b8060005b8381101561233457815161231b88826122be565b9750612326836122d6565b925050600181019050612307565b5085935050505092915050565b60006040820190506123566000830185611e83565b818103602083015261236881846122e3565b90509392505050565b600081519050919050565b600081905092915050565b60005b838110156123a557808201518184015260208101905061238a565b60008484015250505050565b60006123bc82612371565b6123c6818561237c565b93506123d6818560208601612387565b80840191505092915050565b60006123ee82846123b1565b915081905092915050565b7f63616c6c6261636b206661696c65640000000000000000000000000000000000600082015250565b600061242f600f8361212e565b915061243a826123f9565b602082019050919050565b6000602082019050818103600083015261245e81612422565b9050919050565b6000602082019050818103600083015261247f81846122e3565b905092915050565b7f4e487b7100000000000000000000000000000000000000000000000000000000600052601160045260246000fd5b60006124c182611a41565b91507fffffffffffffffffffffffffffffffffffffffffffffffffffffffffffffffff82036124f3576124f2612487565b5b600182019050919050565b61250781611875565b82525050565b600060e082019050612522600083018a6124fe565b61252f6020830189611ba5565b61253c6040830188611eda565b6125496060830187611e83565b612556608083018661181b565b61256360a083018561183a565b61257060c083018461183a565b98975050505050505050565b6000819050919050565b6000819050919050565b60006125ab6125a66125a18461257c565b612586565b611a41565b9050919050565b6125bb81612590565b82525050565b600060a0820190506125d66000830188611e83565b6125e360208301876125b2565b6125f0604083018661181b565b6125fd606083018561183a565b61260a608083018461183a565b9695505050505050565b600061261f82611a41565b915061262a83611a41565b925082820390508181111561264257612641612487565b5b92915050565b7f4e487b7100000000000000000000000000000000000000000000000000000000600052603160045260246000fd5b600060e08201905061268c600083018a6124fe565b6126996020830189611ba5565b6126a66040830188611e83565b6126b36060830187611e83565b6126c0608083018661181b565b6126cd60a083018561183a565b6126da60c083018461183a565b98975050505050505050565b60006060820190506126fb6000830186611e83565b6127086020830185611e83565b6127156040830184611e83565b94935050505056fea2646970667358221220bd28ab64bccf65588129f5e7caa949ef36488fc441498ed4181e6133b29be03764736f6c634300081c0033",
  "linkReferences": {},
  "deployedLinkReferences": {}
}